:020000040000FA
:0200000001A25B
:0200010001A15B
:0200020001A15A
:0200030001A159
:0200040001A158
:0200050001A157
:0200060001A156
:0200070001A155
:0200080001A154
:0200090001A153
:02000A0001A152
:02000B0001A151
:02000C0001A150
:02000D0001A14F
:02000E0001A14E
:02000F0001A14D
:0200100001A14C
:0200110001A14B
:0200120001A14A
:0200130001A149
:0200140001A148
:0200150001A147
:0200160001A146
:0200170001A145
:0200180001A144
:0200190001A143
:02001A0001A142
:02001B0001A141
:02001C0001A140
:02001D0001A13F
:02001E0001A13E
:02001F0001A03E
:0200200001A03D
:0200210001A03C
:0200220001A03B
:0200230001A03A
:0200240001A039
:0200250001A038
:0200260001A037
:0200270001A036
:0200280001A035
:0200290001A034
:02002A0001A033
:02002B0001A032
:02002C0001A031
:02002D0001A030
:02002E0001A02F
:02002F0001A02E
:0200300001A02D
:0200310001A02C
:0200320001A02B
:0200330001A02A
:0200340001A029
:0200350001A028
:0200360001A027
:0200370001A026
:0200380001A025
:0200390001A024
:02003A0001A023
:02003B0001A022
:02003C0001A021
:02003D00019F21
:02003E00019F20
:02003F00019F1F
:02004000019F1E
:02004100019F1D
:02004200019F1C
:02004300019F1B
:02004400019F1A
:02004500019F19
:02004600019F18
:02004700019F17
:02004800019F16
:02004900019F15
:02004A00019F14
:02004B00019F13
:02004C00019F12
:02004D00019F11
:02004E00019F10
:02004F00019F0F
:02005000019F0E
:02005100019F0D
:02005200019F0C
:02005300019F0B
:02005400019F0A
:02005500019F09
:02005600019F08
:02005700019F07
:02005800019F06
:02005900019F05
:02005A00019F04
:02005B00019E04
:02005C00019E03
:02005D00019E02
:02005E00019E01
:02005F00019E00
:02006000019EFF
:02006100019EFE
:02006200019EFD
:02006300019EFC
:02006400019EFB
:02006500019EFA
:02006600019EF9
:02006700019EF8
:02006800019EF7
:02006900019EF6
:02006A00019EF5
:02006B00019EF4
:02006C00019EF3
:02006D00019EF2
:02006E00019EF1
:02006F00019EF0
:02007000019EEF
:02007100019EEE
:02007200019EED
:02007300019EEC
:02007400019EEB
:02007500019EEA
:02007600019EE9
:02007700019EE8
:02007800019EE7
:02007900019DE7
:02007A00019DE6
:02007B00019DE5
:02007C00019DE4
:02007D00019DE3
:02007E00019DE2
:02007F00019DE1
:02008000019DE0
:02008100019DDF
:02008200019DDE
:02008300019DDD
:02008400019DDC
:02008500019DDB
:02008600019DDA
:02008700019DD9
:02008800019DD8
:02008900019DD7
:02008A00019DD6
:02008B00019DD5
:02008C00019DD4
:02008D00019DD3
:02008E00019DD2
:02008F00019DD1
:02009000019DD0
:02009100019DCF
:02009200019DCE
:02009300019DCD
:02009400019DCC
:02009500019DCB
:02009600019DCA
:02009700019CCA
:02009800019CC9
:02009900019CC8
:02009A00019CC7
:02009B00019CC6
:02009C00019CC5
:02009D00019CC4
:02009E00019CC3
:02009F00019CC2
:0200A000019CC1
:0200A100019CC0
:0200A200019CBF
:0200A300019CBE
:0200A400019CBD
:0200A500019CBC
:0200A600019CBB
:0200A700019CBA
:0200A800019CB9
:0200A900019CB8
:0200AA00019CB7
:0200AB00019CB6
:0200AC00019CB5
:0200AD00019CB4
:0200AE00019CB3
:0200AF00019CB2
:0200B000019CB1
:0200B100019CB0
:0200B200019CAF
:0200B300019CAE
:0200B400019CAD
:0200B500019CAC
:0200B600019BAC
:0200B700019BAB
:0200B800019BAA
:0200B900019BA9
:0200BA00019BA8
:0200BB00019BA7
:0200BC00019BA6
:0200BD00019BA5
:0200BE00019BA4
:0200BF00019BA3
:0200C000019BA2
:0200C100019BA1
:0200C200019BA0
:0200C300019B9F
:0200C400019B9E
:0200C500019B9D
:0200C600019B9C
:0200C700019B9B
:0200C800019B9A
:0200C900019B99
:0200CA00019B98
:0200CB00019B97
:0200CC00019B96
:0200CD00019B95
:0200CE00019B94
:0200CF00019B93
:0200D000019B92
:0200D100019B91
:0200D200019B90
:0200D300019B8F
:0200D400019B8E
:0200D500019A8E
:0200D600019A8D
:0200D700019A8C
:0200D800019A8B
:0200D900019A8A
:0200DA00019A89
:0200DB00019A88
:0200DC00019A87
:0200DD00019A86
:0200DE00019A85
:0200DF00019A84
:0200E000019A83
:0200E100019A82
:0200E200019A81
:0200E300019A80
:0200E400019A7F
:0200E500019A7E
:0200E600019A7D
:0200E700019A7C
:0200E800019A7B
:0200E900019A7A
:0200EA00019A79
:0200EB00019A78
:0200EC00019A77
:0200ED00019A76
:0200EE00019A75
:0200EF00019A74
:0200F000019A73
:0200F100019A72
:0200F200019A71
:0200F300019A70
:0200F400019970
:0200F50001996F
:0200F60001996E
:0200F70001996D
:0200F80001996C
:0200F90001996B
:0200FA0001996A
:0200FB00019969
:0200FC00019968
:0200FD00019967
:0200FE00019966
:0200FF00019965
:02010000019963
:02010100019962
:02010200019961
:02010300019960
:0201040001995F
:0201050001995E
:0201060001995D
:0201070001995C
:0201080001995B
:0201090001995A
:02010A00019959
:02010B00019958
:02010C00019957
:02010D00019956
:02010E00019955
:02010F00019954
:02011000019953
:02011100019952
:02011200019951
:02011300019851
:02011400019850
:0201150001984F
:0201160001984E
:0201170001984D
:0201180001984C
:0201190001984B
:02011A0001984A
:02011B00019849
:02011C00019848
:02011D00019847
:02011E00019846
:02011F00019845
:02012000019844
:02012100019843
:02012200019842
:02012300019841
:02012400019840
:0201250001983F
:0201260001983E
:0201270001983D
:0201280001983C
:0201290001983B
:02012A0001983A
:02012B00019839
:02012C00019838
:02012D00019837
:02012E00019836
:02012F00019835
:02013000019834
:02013100019833
:02013200019733
:02013300019732
:02013400019731
:02013500019730
:0201360001972F
:0201370001972E
:0201380001972D
:0201390001972C
:02013A0001972B
:02013B0001972A
:02013C00019729
:02013D00019728
:02013E00019727
:02013F00019726
:02014000019725
:02014100019724
:02014200019723
:02014300019722
:02014400019721
:02014500019720
:0201460001971F
:0201470001971E
:0201480001971D
:0201490001971C
:02014A0001971B
:02014B0001971A
:02014C00019719
:02014D00019718
:02014E00019717
:02014F00019716
:02015000019715
:02015100019714
:02015200019614
:02015300019613
:02015400019612
:02015500019611
:02015600019610
:0201570001960F
:0201580001960E
:0201590001960D
:02015A0001960C
:02015B0001960B
:02015C0001960A
:02015D00019609
:02015E00019608
:02015F00019607
:02016000019606
:02016100019605
:02016200019604
:02016300019603
:02016400019602
:02016500019601
:02016600019600
:020167000196FF
:020168000196FE
:020169000196FD
:02016A000196FC
:02016B000196FB
:02016C000196FA
:02016D000196F9
:02016E000196F8
:02016F000196F7
:020170000196F6
:020171000196F5
:020172000195F5
:020173000195F4
:020174000195F3
:020175000195F2
:020176000195F1
:020177000195F0
:020178000195EF
:020179000195EE
:02017A000195ED
:02017B000195EC
:02017C000195EB
:02017D000195EA
:02017E000195E9
:02017F000195E8
:020180000195E7
:020181000195E6
:020182000195E5
:020183000195E4
:020184000195E3
:020185000195E2
:020186000195E1
:020187000195E0
:020188000195DF
:020189000195DE
:02018A000195DD
:02018B000195DC
:02018C000195DB
:02018D000195DA
:02018E000195D9
:02018F000195D8
:020190000195D7
:020191000195D6
:020192000194D6
:020193000194D5
:020194000194D4
:020195000194D3
:020196000194D2
:020197000194D1
:020198000194D0
:020199000194CF
:02019A000194CE
:02019B000194CD
:02019C000194CC
:02019D000194CB
:02019E000194CA
:02019F000194C9
:0201A0000194C8
:0201A1000194C7
:0201A2000194C6
:0201A3000194C5
:0201A4000194C4
:0201A5000194C3
:0201A6000194C2
:0201A7000194C1
:0201A8000194C0
:0201A9000194BF
:0201AA000194BE
:0201AB000194BD
:0201AC000194BC
:0201AD000194BB
:0201AE000194BA
:0201AF000194B9
:0201B0000194B8
:0201B1000194B7
:0201B2000194B6
:0201B3000193B6
:0201B4000193B5
:0201B5000193B4
:0201B6000193B3
:0201B7000193B2
:0201B8000193B1
:0201B9000193B0
:0201BA000193AF
:0201BB000193AE
:0201BC000193AD
:0201BD000193AC
:0201BE000193AB
:0201BF000193AA
:0201C0000193A9
:0201C1000193A8
:0201C2000193A7
:0201C3000193A6
:0201C4000193A5
:0201C5000193A4
:0201C6000193A3
:0201C7000193A2
:0201C8000193A1
:0201C9000193A0
:0201CA0001939F
:0201CB0001939E
:0201CC0001939D
:0201CD0001939C
:0201CE0001939B
:0201CF0001939A
:0201D000019399
:0201D100019398
:0201D200019397
:0201D300019297
:0201D400019296
:0201D500019295
:0201D600019294
:0201D700019293
:0201D800019292
:0201D900019291
:0201DA00019290
:0201DB0001928F
:0201DC0001928E
:0201DD0001928D
:0201DE0001928C
:0201DF0001928B
:0201E00001928A
:0201E100019289
:0201E200019288
:0201E300019287
:0201E400019286
:0201E500019285
:0201E600019284
:0201E700019283
:0201E800019282
:0201E900019281
:0201EA00019280
:0201EB0001927F
:0201EC0001927E
:0201ED0001927D
:0201EE0001927C
:0201EF0001927B
:0201F00001927A
:0201F100019279
:0201F200019278
:0201F300019277
:0201F400019177
:0201F500019176
:0201F600019175
:0201F700019174
:0201F800019173
:0201F900019172
:0201FA00019171
:0201FB00019170
:0201FC0001916F
:0201FD0001916E
:0201FE0001916D
:0201FF0001916C
:0202000001916A
:02020100019169
:02020200019168
:02020300019167
:02020400019166
:02020500019165
:02020600019164
:02020700019163
:02020800019162
:02020900019161
:02020A00019160
:02020B0001915F
:02020C0001915E
:02020D0001915D
:02020E0001915C
:02020F0001915B
:0202100001915A
:02021100019159
:02021200019158
:02021300019157
:02021400019156
:02021500019056
:02021600019055
:02021700019054
:02021800019053
:02021900019052
:02021A00019051
:02021B00019050
:02021C0001904F
:02021D0001904E
:02021E0001904D
:02021F0001904C
:0202200001904B
:0202210001904A
:02022200019049
:02022300019048
:02022400019047
:02022500019046
:02022600019045
:02022700019044
:02022800019043
:02022900019042
:02022A00019041
:02022B00019040
:02022C0001903F
:02022D0001903E
:02022E0001903D
:02022F0001903C
:0202300001903B
:0202310001903A
:02023200019039
:02023300019038
:02023400019037
:02023500019036
:02023600019035
:02023700018F35
:02023800018F34
:02023900018F33
:02023A00018F32
:02023B00018F31
:02023C00018F30
:02023D00018F2F
:02023E00018F2E
:02023F00018F2D
:02024000018F2C
:02024100018F2B
:02024200018F2A
:02024300018F29
:02024400018F28
:02024500018F27
:02024600018F26
:02024700018F25
:02024800018F24
:02024900018F23
:02024A00018F22
:02024B00018F21
:02024C00018F20
:02024D00018F1F
:02024E00018F1E
:02024F00018F1D
:02025000018F1C
:02025100018F1B
:02025200018F1A
:02025300018F19
:02025400018F18
:02025500018F17
:02025600018F16
:02025700018F15
:02025800018F14
:02025900018E14
:02025A00018E13
:02025B00018E12
:02025C00018E11
:02025D00018E10
:02025E00018E0F
:02025F00018E0E
:02026000018E0D
:02026100018E0C
:02026200018E0B
:02026300018E0A
:02026400018E09
:02026500018E08
:02026600018E07
:02026700018E06
:02026800018E05
:02026900018E04
:02026A00018E03
:02026B00018E02
:02026C00018E01
:02026D00018E00
:02026E00018EFF
:02026F00018EFE
:02027000018EFD
:02027100018EFC
:02027200018EFB
:02027300018EFA
:02027400018EF9
:02027500018EF8
:02027600018EF7
:02027700018EF6
:02027800018EF5
:02027900018EF4
:02027A00018EF3
:02027B00018DF3
:02027C00018DF2
:02027D00018DF1
:02027E00018DF0
:02027F00018DEF
:02028000018DEE
:02028100018DED
:02028200018DEC
:02028300018DEB
:02028400018DEA
:02028500018DE9
:02028600018DE8
:02028700018DE7
:02028800018DE6
:02028900018DE5
:02028A00018DE4
:02028B00018DE3
:02028C00018DE2
:02028D00018DE1
:02028E00018DE0
:02028F00018DDF
:02029000018DDE
:02029100018DDD
:02029200018DDC
:02029300018DDB
:02029400018DDA
:02029500018DD9
:02029600018DD8
:02029700018DD7
:02029800018DD6
:02029900018DD5
:02029A00018DD4
:02029B00018DD3
:02029C00018DD2
:02029D00018CD2
:02029E00018CD1
:02029F00018CD0
:0202A000018CCF
:0202A100018CCE
:0202A200018CCD
:0202A300018CCC
:0202A400018CCB
:0202A500018CCA
:0202A600018CC9
:0202A700018CC8
:0202A800018CC7
:0202A900018CC6
:0202AA00018CC5
:0202AB00018CC4
:0202AC00018CC3
:0202AD00018CC2
:0202AE00018CC1
:0202AF00018CC0
:0202B000018CBF
:0202B100018CBE
:0202B200018CBD
:0202B300018CBC
:0202B400018CBB
:0202B500018CBA
:0202B600018CB9
:0202B700018CB8
:0202B800018CB7
:0202B900018CB6
:0202BA00018CB5
:0202BB00018CB4
:0202BC00018CB3
:0202BD00018CB2
:0202BE00018CB1
:0202BF00018BB1
:0202C000018BB0
:0202C100018BAF
:0202C200018BAE
:0202C300018BAD
:0202C400018BAC
:0202C500018BAB
:0202C600018BAA
:0202C700018BA9
:0202C800018BA8
:0202C900018BA7
:0202CA00018BA6
:0202CB00018BA5
:0202CC00018BA4
:0202CD00018BA3
:0202CE00018BA2
:0202CF00018BA1
:0202D000018BA0
:0202D100018B9F
:0202D200018B9E
:0202D300018B9D
:0202D400018B9C
:0202D500018B9B
:0202D600018B9A
:0202D700018B99
:0202D800018B98
:0202D900018B97
:0202DA00018B96
:0202DB00018B95
:0202DC00018B94
:0202DD00018B93
:0202DE00018B92
:0202DF00018B91
:0202E000018B90
:0202E100018B8F
:0202E200018A8F
:0202E300018A8E
:0202E400018A8D
:0202E500018A8C
:0202E600018A8B
:0202E700018A8A
:0202E800018A89
:0202E900018A88
:0202EA00018A87
:0202EB00018A86
:0202EC00018A85
:0202ED00018A84
:0202EE00018A83
:0202EF00018A82
:0202F000018A81
:0202F100018A80
:0202F200018A7F
:0202F300018A7E
:0202F400018A7D
:0202F500018A7C
:0202F600018A7B
:0202F700018A7A
:0202F800018A79
:0202F900018A78
:0202FA00018A77
:0202FB00018A76
:0202FC00018A75
:0202FD00018A74
:0202FE00018A73
:0202FF00018A72
:02030000018A70
:02030100018A6F
:02030200018A6E
:02030300018A6D
:02030400018A6C
:0203050001896C
:0203060001896B
:0203070001896A
:02030800018969
:02030900018968
:02030A00018967
:02030B00018966
:02030C00018965
:02030D00018964
:02030E00018963
:02030F00018962
:02031000018961
:02031100018960
:0203120001895F
:0203130001895E
:0203140001895D
:0203150001895C
:0203160001895B
:0203170001895A
:02031800018959
:02031900018958
:02031A00018957
:02031B00018956
:02031C00018955
:02031D00018954
:02031E00018953
:02031F00018952
:02032000018951
:02032100018950
:0203220001894F
:0203230001894E
:0203240001894D
:0203250001894C
:0203260001894B
:0203270001894A
:0203280001884A
:02032900018849
:02032A00018848
:02032B00018847
:02032C00018846
:02032D00018845
:02032E00018844
:02032F00018843
:02033000018842
:02033100018841
:02033200018840
:0203330001883F
:0203340001883E
:0203350001883D
:0203360001883C
:0203370001883B
:0203380001883A
:02033900018839
:02033A00018838
:02033B00018837
:02033C00018836
:02033D00018835
:02033E00018834
:02033F00018833
:02034000018832
:02034100018831
:02034200018830
:0203430001882F
:0203440001882E
:0203450001882D
:0203460001882C
:0203470001882B
:0203480001882A
:02034900018829
:02034A00018828
:02034B00018827
:02034C00018727
:02034D00018726
:02034E00018725
:02034F00018724
:02035000018723
:02035100018722
:02035200018721
:02035300018720
:0203540001871F
:0203550001871E
:0203560001871D
:0203570001871C
:0203580001871B
:0203590001871A
:02035A00018719
:02035B00018718
:02035C00018717
:02035D00018716
:02035E00018715
:02035F00018714
:02036000018713
:02036100018712
:02036200018711
:02036300018710
:0203640001870F
:0203650001870E
:0203660001870D
:0203670001870C
:0203680001870B
:0203690001870A
:02036A00018709
:02036B00018708
:02036C00018707
:02036D00018706
:02036E00018705
:02036F00018605
:02037000018604
:02037100018603
:02037200018602
:02037300018601
:02037400018600
:020375000186FF
:020376000186FE
:020377000186FD
:020378000186FC
:020379000186FB
:02037A000186FA
:02037B000186F9
:02037C000186F8
:02037D000186F7
:02037E000186F6
:02037F000186F5
:020380000186F4
:020381000186F3
:020382000186F2
:020383000186F1
:020384000186F0
:020385000186EF
:020386000186EE
:020387000186ED
:020388000186EC
:020389000186EB
:02038A000186EA
:02038B000186E9
:02038C000186E8
:02038D000186E7
:02038E000186E6
:02038F000186E5
:020390000186E4
:020391000186E3
:020392000186E2
:020393000185E2
:020394000185E1
:020395000185E0
:020396000185DF
:020397000185DE
:020398000185DD
:020399000185DC
:02039A000185DB
:02039B000185DA
:02039C000185D9
:02039D000185D8
:02039E000185D7
:02039F000185D6
:0203A0000185D5
:0203A1000185D4
:0203A2000185D3
:0203A3000185D2
:0203A4000185D1
:0203A5000185D0
:0203A6000185CF
:0203A7000185CE
:0203A8000185CD
:0203A9000185CC
:0203AA000185CB
:0203AB000185CA
:0203AC000185C9
:0203AD000185C8
:0203AE000185C7
:0203AF000185C6
:0203B0000185C5
:0203B1000185C4
:0203B2000185C3
:0203B3000185C2
:0203B4000185C1
:0203B5000185C0
:0203B6000185BF
:0203B7000185BE
:0203B8000184BE
:0203B9000184BD
:0203BA000184BC
:0203BB000184BB
:0203BC000184BA
:0203BD000184B9
:0203BE000184B8
:0203BF000184B7
:0203C0000184B6
:0203C1000184B5
:0203C2000184B4
:0203C3000184B3
:0203C4000184B2
:0203C5000184B1
:0203C6000184B0
:0203C7000184AF
:0203C8000184AE
:0203C9000184AD
:0203CA000184AC
:0203CB000184AB
:0203CC000184AA
:0203CD000184A9
:0203CE000184A8
:0203CF000184A7
:0203D0000184A6
:0203D1000184A5
:0203D2000184A4
:0203D3000184A3
:0203D4000184A2
:0203D5000184A1
:0203D6000184A0
:0203D70001849F
:0203D80001849E
:0203D90001849D
:0203DA0001849C
:0203DB0001849B
:0203DC0001839B
:0203DD0001839A
:0203DE00018399
:0203DF00018398
:0203E000018397
:0203E100018396
:0203E200018395
:0203E300018394
:0203E400018393
:0203E500018392
:0203E600018391
:0203E700018390
:0203E80001838F
:0203E90001838E
:0203EA0001838D
:0203EB0001838C
:0203EC0001838B
:0203ED0001838A
:0203EE00018389
:0203EF00018388
:0203F000018387
:0203F100018386
:0203F200018385
:0203F300018384
:0203F400018383
:0203F500018382
:0203F600018381
:0203F700018380
:0203F80001837F
:0203F90001837E
:0203FA0001837D
:0203FB0001837C
:0203FC0001837B
:0203FD0001837A
:0203FE00018379
:0203FF00018378
:02040000018376
:02040100018276
:02040200018275
:02040300018274
:02040400018273
:02040500018272
:02040600018271
:02040700018270
:0204080001826F
:0204090001826E
:02040A0001826D
:02040B0001826C
:02040C0001826B
:02040D0001826A
:02040E00018269
:02040F00018268
:02041000018267
:02041100018266
:02041200018265
:02041300018264
:02041400018263
:02041500018262
:02041600018261
:02041700018260
:0204180001825F
:0204190001825E
:02041A0001825D
:02041B0001825C
:02041C0001825B
:02041D0001825A
:02041E00018259
:02041F00018258
:02042000018257
:02042100018256
:02042200018255
:02042300018254
:02042400018253
:02042500018252
:02042600018251
:02042700018151
:02042800018150
:0204290001814F
:02042A0001814E
:02042B0001814D
:02042C0001814C
:02042D0001814B
:02042E0001814A
:02042F00018149
:02043000018148
:02043100018147
:02043200018146
:02043300018145
:02043400018144
:02043500018143
:02043600018142
:02043700018141
:02043800018140
:0204390001813F
:02043A0001813E
:02043B0001813D
:02043C0001813C
:02043D0001813B
:02043E0001813A
:02043F00018139
:02044000018138
:02044100018137
:02044200018136
:02044300018135
:02044400018134
:02044500018133
:02044600018132
:02044700018131
:02044800018130
:0204490001812F
:02044A0001812E
:02044B0001812D
:02044C0001802D
:02044D0001802C
:02044E0001802B
:02044F0001802A
:02045000018029
:02045100018028
:02045200018027
:02045300018026
:02045400018025
:02045500018024
:02045600018023
:02045700018022
:02045800018021
:02045900018020
:02045A0001801F
:02045B0001801E
:02045C0001801D
:02045D0001801C
:02045E0001801B
:02045F0001801A
:02046000018019
:02046100018018
:02046200018017
:02046300018016
:02046400018015
:02046500018014
:02046600018013
:02046700018012
:02046800018011
:02046900018010
:02046A0001800F
:02046B0001800E
:02046C0001800D
:02046D0001800C
:02046E0001800B
:02046F0001800A
:02047000018009
:02047100018008
:02047200017F08
:02047300017F07
:02047400017F06
:02047500017F05
:02047600017F04
:02047700017F03
:02047800017F02
:02047900017F01
:02047A00017F00
:02047B00017FFF
:02047C00017FFE
:02047D00017FFD
:02047E00017FFC
:02047F00017FFB
:02048000017FFA
:02048100017FF9
:02048200017FF8
:02048300017FF7
:02048400017FF6
:02048500017FF5
:02048600017FF4
:02048700017FF3
:02048800017FF2
:02048900017FF1
:02048A00017FF0
:02048B00017FEF
:02048C00017FEE
:02048D00017FED
:02048E00017FEC
:02048F00017FEB
:02049000017FEA
:02049100017FE9
:02049200017FE8
:02049300017FE7
:02049400017FE6
:02049500017FE5
:02049600017FE4
:02049700017FE3
:02049800017EE3
:02049900017EE2
:02049A00017EE1
:02049B00017EE0
:02049C00017EDF
:02049D00017EDE
:02049E00017EDD
:02049F00017EDC
:0204A000017EDB
:0204A100017EDA
:0204A200017ED9
:0204A300017ED8
:0204A400017ED7
:0204A500017ED6
:0204A600017ED5
:0204A700017ED4
:0204A800017ED3
:0204A900017ED2
:0204AA00017ED1
:0204AB00017ED0
:0204AC00017ECF
:0204AD00017ECE
:0204AE00017ECD
:0204AF00017ECC
:0204B000017ECB
:0204B100017ECA
:0204B200017EC9
:0204B300017EC8
:0204B400017EC7
:0204B500017EC6
:0204B600017EC5
:0204B700017EC4
:0204B800017EC3
:0204B900017EC2
:0204BA00017EC1
:0204BB00017EC0
:0204BC00017EBF
:0204BD00017EBE
:0204BE00017DBE
:0204BF00017DBD
:0204C000017DBC
:0204C100017DBB
:0204C200017DBA
:0204C300017DB9
:0204C400017DB8
:0204C500017DB7
:0204C600017DB6
:0204C700017DB5
:0204C800017DB4
:0204C900017DB3
:0204CA00017DB2
:0204CB00017DB1
:0204CC00017DB0
:0204CD00017DAF
:0204CE00017DAE
:0204CF00017DAD
:0204D000017DAC
:0204D100017DAB
:0204D200017DAA
:0204D300017DA9
:0204D400017DA8
:0204D500017DA7
:0204D600017DA6
:0204D700017DA5
:0204D800017DA4
:0204D900017DA3
:0204DA00017DA2
:0204DB00017DA1
:0204DC00017DA0
:0204DD00017D9F
:0204DE00017D9E
:0204DF00017D9D
:0204E000017D9C
:0204E100017D9B
:0204E200017D9A
:0204E300017D99
:0204E400017D98
:0204E500017C98
:0204E600017C97
:0204E700017C96
:0204E800017C95
:0204E900017C94
:0204EA00017C93
:0204EB00017C92
:0204EC00017C91
:0204ED00017C90
:0204EE00017C8F
:0204EF00017C8E
:0204F000017C8D
:0204F100017C8C
:0204F200017C8B
:0204F300017C8A
:0204F400017C89
:0204F500017C88
:0204F600017C87
:0204F700017C86
:0204F800017C85
:0204F900017C84
:0204FA00017C83
:0204FB00017C82
:0204FC00017C81
:0204FD00017C80
:0204FE00017C7F
:0204FF00017C7E
:02050000017C7C
:02050100017C7B
:02050200017C7A
:02050300017C79
:02050400017C78
:02050500017C77
:02050600017C76
:02050700017C75
:02050800017C74
:02050900017C73
:02050A00017C72
:02050B00017C71
:02050C00017B71
:02050D00017B70
:02050E00017B6F
:02050F00017B6E
:02051000017B6D
:02051100017B6C
:02051200017B6B
:02051300017B6A
:02051400017B69
:02051500017B68
:02051600017B67
:02051700017B66
:02051800017B65
:02051900017B64
:02051A00017B63
:02051B00017B62
:02051C00017B61
:02051D00017B60
:02051E00017B5F
:02051F00017B5E
:02052000017B5D
:02052100017B5C
:02052200017B5B
:02052300017B5A
:02052400017B59
:02052500017B58
:02052600017B57
:02052700017B56
:02052800017B55
:02052900017B54
:02052A00017B53
:02052B00017B52
:02052C00017B51
:02052D00017B50
:02052E00017B4F
:02052F00017B4E
:02053000017B4D
:02053100017B4C
:02053200017B4B
:02053300017A4B
:02053400017A4A
:02053500017A49
:02053600017A48
:02053700017A47
:02053800017A46
:02053900017A45
:02053A00017A44
:02053B00017A43
:02053C00017A42
:02053D00017A41
:02053E00017A40
:02053F00017A3F
:02054000017A3E
:02054100017A3D
:02054200017A3C
:02054300017A3B
:02054400017A3A
:02054500017A39
:02054600017A38
:02054700017A37
:02054800017A36
:02054900017A35
:02054A00017A34
:02054B00017A33
:02054C00017A32
:02054D00017A31
:02054E00017A30
:02054F00017A2F
:02055000017A2E
:02055100017A2D
:02055200017A2C
:02055300017A2B
:02055400017A2A
:02055500017A29
:02055600017A28
:02055700017A27
:02055800017A26
:02055900017A25
:02055A00017A24
:02055B00017924
:02055C00017923
:02055D00017922
:02055E00017921
:02055F00017920
:0205600001791F
:0205610001791E
:0205620001791D
:0205630001791C
:0205640001791B
:0205650001791A
:02056600017919
:02056700017918
:02056800017917
:02056900017916
:02056A00017915
:02056B00017914
:02056C00017913
:02056D00017912
:02056E00017911
:02056F00017910
:0205700001790F
:0205710001790E
:0205720001790D
:0205730001790C
:0205740001790B
:0205750001790A
:02057600017909
:02057700017908
:02057800017907
:02057900017906
:02057A00017905
:02057B00017904
:02057C00017903
:02057D00017902
:02057E00017901
:02057F00017900
:020580000179FF
:020581000179FE
:020582000179FD
:020583000178FD
:020584000178FC
:020585000178FB
:020586000178FA
:020587000178F9
:020588000178F8
:020589000178F7
:02058A000178F6
:02058B000178F5
:02058C000178F4
:02058D000178F3
:02058E000178F2
:02058F000178F1
:020590000178F0
:020591000178EF
:020592000178EE
:020593000178ED
:020594000178EC
:020595000178EB
:020596000178EA
:020597000178E9
:020598000178E8
:020599000178E7
:02059A000178E6
:02059B000178E5
:02059C000178E4
:02059D000178E3
:02059E000178E2
:02059F000178E1
:0205A0000178E0
:0205A1000178DF
:0205A2000178DE
:0205A3000178DD
:0205A4000178DC
:0205A5000178DB
:0205A6000178DA
:0205A7000178D9
:0205A8000178D8
:0205A9000178D7
:0205AA000178D6
:0205AB000177D6
:0205AC000177D5
:0205AD000177D4
:0205AE000177D3
:0205AF000177D2
:0205B0000177D1
:0205B1000177D0
:0205B2000177CF
:0205B3000177CE
:0205B4000177CD
:0205B5000177CC
:0205B6000177CB
:0205B7000177CA
:0205B8000177C9
:0205B9000177C8
:0205BA000177C7
:0205BB000177C6
:0205BC000177C5
:0205BD000177C4
:0205BE000177C3
:0205BF000177C2
:0205C0000177C1
:0205C1000177C0
:0205C2000177BF
:0205C3000177BE
:0205C4000177BD
:0205C5000177BC
:0205C6000177BB
:0205C7000177BA
:0205C8000177B9
:0205C9000177B8
:0205CA000177B7
:0205CB000177B6
:0205CC000177B5
:0205CD000177B4
:0205CE000177B3
:0205CF000177B2
:0205D0000177B1
:0205D1000177B0
:0205D2000177AF
:0205D3000177AE
:0205D4000176AE
:0205D5000176AD
:0205D6000176AC
:0205D7000176AB
:0205D8000176AA
:0205D9000176A9
:0205DA000176A8
:0205DB000176A7
:0205DC000176A6
:0205DD000176A5
:0205DE000176A4
:0205DF000176A3
:0205E0000176A2
:0205E1000176A1
:0205E2000176A0
:0205E30001769F
:0205E40001769E
:0205E50001769D
:0205E60001769C
:0205E70001769B
:0205E80001769A
:0205E900017699
:0205EA00017698
:0205EB00017697
:0205EC00017696
:0205ED00017695
:0205EE00017694
:0205EF00017693
:0205F000017692
:0205F100017691
:0205F200017690
:0205F30001768F
:0205F40001768E
:0205F50001768D
:0205F60001768C
:0205F70001768B
:0205F80001768A
:0205F900017689
:0205FA00017688
:0205FB00017687
:0205FC00017587
:0205FD00017586
:0205FE00017585
:0205FF00017584
:02060000017582
:02060100017581
:02060200017580
:0206030001757F
:0206040001757E
:0206050001757D
:0206060001757C
:0206070001757B
:0206080001757A
:02060900017579
:02060A00017578
:02060B00017577
:02060C00017576
:02060D00017575
:02060E00017574
:02060F00017573
:02061000017572
:02061100017571
:02061200017570
:0206130001756F
:0206140001756E
:0206150001756D
:0206160001756C
:0206170001756B
:0206180001756A
:02061900017569
:02061A00017568
:02061B00017567
:02061C00017566
:02061D00017565
:02061E00017564
:02061F00017563
:02062000017562
:02062100017561
:02062200017560
:0206230001755F
:0206240001755E
:0206250001755D
:0206260001745D
:0206270001745C
:0206280001745B
:0206290001745A
:02062A00017459
:02062B00017458
:02062C00017457
:02062D00017456
:02062E00017455
:02062F00017454
:02063000017453
:02063100017452
:02063200017451
:02063300017450
:0206340001744F
:0206350001744E
:0206360001744D
:0206370001744C
:0206380001744B
:0206390001744A
:02063A00017449
:02063B00017448
:02063C00017447
:02063D00017446
:02063E00017445
:02063F00017444
:02064000017443
:02064100017442
:02064200017441
:02064300017440
:0206440001743F
:0206450001743E
:0206460001743D
:0206470001743C
:0206480001743B
:0206490001743A
:02064A00017439
:02064B00017438
:02064C00017437
:02064D00017436
:02064E00017435
:02064F00017335
:02065000017334
:02065100017333
:02065200017332
:02065300017331
:02065400017330
:0206550001732F
:0206560001732E
:0206570001732D
:0206580001732C
:0206590001732B
:02065A0001732A
:02065B00017329
:02065C00017328
:02065D00017327
:02065E00017326
:02065F00017325
:02066000017324
:02066100017323
:02066200017322
:02066300017321
:02066400017320
:0206650001731F
:0206660001731E
:0206670001731D
:0206680001731C
:0206690001731B
:02066A0001731A
:02066B00017319
:02066C00017318
:02066D00017317
:02066E00017316
:02066F00017315
:02067000017314
:02067100017313
:02067200017312
:02067300017311
:02067400017310
:0206750001730F
:0206760001730E
:0206770001730D
:0206780001730C
:0206790001720C
:02067A0001720B
:02067B0001720A
:02067C00017209
:02067D00017208
:02067E00017207
:02067F00017206
:02068000017205
:02068100017204
:02068200017203
:02068300017202
:02068400017201
:02068500017200
:020686000172FF
:020687000172FE
:020688000172FD
:020689000172FC
:02068A000172FB
:02068B000172FA
:02068C000172F9
:02068D000172F8
:02068E000172F7
:02068F000172F6
:020690000172F5
:020691000172F4
:020692000172F3
:020693000172F2
:020694000172F1
:020695000172F0
:020696000172EF
:020697000172EE
:020698000172ED
:020699000172EC
:02069A000172EB
:02069B000172EA
:02069C000172E9
:02069D000172E8
:02069E000172E7
:02069F000172E6
:0206A0000172E5
:0206A1000172E4
:0206A2000172E3
:0206A3000171E3
:0206A4000171E2
:0206A5000171E1
:0206A6000171E0
:0206A7000171DF
:0206A8000171DE
:0206A9000171DD
:0206AA000171DC
:0206AB000171DB
:0206AC000171DA
:0206AD000171D9
:0206AE000171D8
:0206AF000171D7
:0206B0000171D6
:0206B1000171D5
:0206B2000171D4
:0206B3000171D3
:0206B4000171D2
:0206B5000171D1
:0206B6000171D0
:0206B7000171CF
:0206B8000171CE
:0206B9000171CD
:0206BA000171CC
:0206BB000171CB
:0206BC000171CA
:0206BD000171C9
:0206BE000171C8
:0206BF000171C7
:0206C0000171C6
:0206C1000171C5
:0206C2000171C4
:0206C3000171C3
:0206C4000171C2
:0206C5000171C1
:0206C6000171C0
:0206C7000171BF
:0206C8000171BE
:0206C9000171BD
:0206CA000171BC
:0206CB000171BB
:0206CC000171BA
:0206CD000171B9
:0206CE000170B9
:0206CF000170B8
:0206D0000170B7
:0206D1000170B6
:0206D2000170B5
:0206D3000170B4
:0206D4000170B3
:0206D5000170B2
:0206D6000170B1
:0206D7000170B0
:0206D8000170AF
:0206D9000170AE
:0206DA000170AD
:0206DB000170AC
:0206DC000170AB
:0206DD000170AA
:0206DE000170A9
:0206DF000170A8
:0206E0000170A7
:0206E1000170A6
:0206E2000170A5
:0206E3000170A4
:0206E4000170A3
:0206E5000170A2
:0206E6000170A1
:0206E7000170A0
:0206E80001709F
:0206E90001709E
:0206EA0001709D
:0206EB0001709C
:0206EC0001709B
:0206ED0001709A
:0206EE00017099
:0206EF00017098
:0206F000017097
:0206F100017096
:0206F200017095
:0206F300017094
:0206F400017093
:0206F500017092
:0206F600017091
:0206F700017090
:0206F80001708F
:0206F900016F8F
:0206FA00016F8E
:0206FB00016F8D
:0206FC00016F8C
:0206FD00016F8B
:0206FE00016F8A
:0206FF00016F89
:02070000016F87
:02070100016F86
:02070200016F85
:02070300016F84
:02070400016F83
:02070500016F82
:02070600016F81
:02070700016F80
:02070800016F7F
:02070900016F7E
:02070A00016F7D
:02070B00016F7C
:02070C00016F7B
:02070D00016F7A
:02070E00016F79
:02070F00016F78
:02071000016F77
:02071100016F76
:02071200016F75
:02071300016F74
:02071400016F73
:02071500016F72
:02071600016F71
:02071700016F70
:02071800016F6F
:02071900016F6E
:02071A00016F6D
:02071B00016F6C
:02071C00016F6B
:02071D00016F6A
:02071E00016F69
:02071F00016F68
:02072000016F67
:02072100016F66
:02072200016F65
:02072300016F64
:02072400016E64
:02072500016E63
:02072600016E62
:02072700016E61
:02072800016E60
:02072900016E5F
:02072A00016E5E
:02072B00016E5D
:02072C00016E5C
:02072D00016E5B
:02072E00016E5A
:02072F00016E59
:02073000016E58
:02073100016E57
:02073200016E56
:02073300016E55
:02073400016E54
:02073500016E53
:02073600016E52
:02073700016E51
:02073800016E50
:02073900016E4F
:02073A00016E4E
:02073B00016E4D
:02073C00016E4C
:02073D00016E4B
:02073E00016E4A
:02073F00016E49
:02074000016E48
:02074100016E47
:02074200016E46
:02074300016E45
:02074400016E44
:02074500016E43
:02074600016E42
:02074700016E41
:02074800016E40
:02074900016E3F
:02074A00016E3E
:02074B00016E3D
:02074C00016E3C
:02074D00016E3B
:02074E00016E3A
:02074F00016E39
:02075000016D39
:02075100016D38
:02075200016D37
:02075300016D36
:02075400016D35
:02075500016D34
:02075600016D33
:02075700016D32
:02075800016D31
:02075900016D30
:02075A00016D2F
:02075B00016D2E
:02075C00016D2D
:02075D00016D2C
:02075E00016D2B
:02075F00016D2A
:02076000016D29
:02076100016D28
:02076200016D27
:02076300016D26
:02076400016D25
:02076500016D24
:02076600016D23
:02076700016D22
:02076800016D21
:02076900016D20
:02076A00016D1F
:02076B00016D1E
:02076C00016D1D
:02076D00016D1C
:02076E00016D1B
:02076F00016D1A
:02077000016D19
:02077100016D18
:02077200016D17
:02077300016D16
:02077400016D15
:02077500016D14
:02077600016D13
:02077700016D12
:02077800016D11
:02077900016D10
:02077A00016D0F
:02077B00016D0E
:02077C00016C0E
:02077D00016C0D
:02077E00016C0C
:02077F00016C0B
:02078000016C0A
:02078100016C09
:02078200016C08
:02078300016C07
:02078400016C06
:02078500016C05
:02078600016C04
:02078700016C03
:02078800016C02
:02078900016C01
:02078A00016C00
:02078B00016CFF
:02078C00016CFE
:02078D00016CFD
:02078E00016CFC
:02078F00016CFB
:02079000016CFA
:02079100016CF9
:02079200016CF8
:02079300016CF7
:02079400016CF6
:02079500016CF5
:02079600016CF4
:02079700016CF3
:02079800016CF2
:02079900016CF1
:02079A00016CF0
:02079B00016CEF
:02079C00016CEE
:02079D00016CED
:02079E00016CEC
:02079F00016CEB
:0207A000016CEA
:0207A100016CE9
:0207A200016CE8
:0207A300016CE7
:0207A400016CE6
:0207A500016CE5
:0207A600016CE4
:0207A700016CE3
:0207A800016BE3
:0207A900016BE2
:0207AA00016BE1
:0207AB00016BE0
:0207AC00016BDF
:0207AD00016BDE
:0207AE00016BDD
:0207AF00016BDC
:0207B000016BDB
:0207B100016BDA
:0207B200016BD9
:0207B300016BD8
:0207B400016BD7
:0207B500016BD6
:0207B600016BD5
:0207B700016BD4
:0207B800016BD3
:0207B900016BD2
:0207BA00016BD1
:0207BB00016BD0
:0207BC00016BCF
:0207BD00016BCE
:0207BE00016BCD
:0207BF00016BCC
:0207C000016BCB
:0207C100016BCA
:0207C200016BC9
:0207C300016BC8
:0207C400016BC7
:0207C500016BC6
:0207C600016BC5
:0207C700016BC4
:0207C800016BC3
:0207C900016BC2
:0207CA00016BC1
:0207CB00016BC0
:0207CC00016BBF
:0207CD00016BBE
:0207CE00016BBD
:0207CF00016BBC
:0207D000016BBB
:0207D100016BBA
:0207D200016BB9
:0207D300016BB8
:0207D400016BB7
:0207D500016AB7
:0207D600016AB6
:0207D700016AB5
:0207D800016AB4
:0207D900016AB3
:0207DA00016AB2
:0207DB00016AB1
:0207DC00016AB0
:0207DD00016AAF
:0207DE00016AAE
:0207DF00016AAD
:0207E000016AAC
:0207E100016AAB
:0207E200016AAA
:0207E300016AA9
:0207E400016AA8
:0207E500016AA7
:0207E600016AA6
:0207E700016AA5
:0207E800016AA4
:0207E900016AA3
:0207EA00016AA2
:0207EB00016AA1
:0207EC00016AA0
:0207ED00016A9F
:0207EE00016A9E
:0207EF00016A9D
:0207F000016A9C
:0207F100016A9B
:0207F200016A9A
:0207F300016A99
:0207F400016A98
:0207F500016A97
:0207F600016A96
:0207F700016A95
:0207F800016A94
:0207F900016A93
:0207FA00016A92
:0207FB00016A91
:0207FC00016A90
:0207FD00016A8F
:0207FE00016A8E
:0207FF00016A8D
:00000001ff
