:020000040000FA
:0200000003E11A
:0200010003A159
:02000200036198
:020003000321D7
:0200040002E117
:0200050002A156
:02000600026195
:020007000222D3
:0200080001E213
:0200090001A252
:02000A00016291
:02000B000123CF
:02000C0000E30F
:02000D0000A34E
:02000E0000638D
:02000F000024CB
:0200100003E407
:0200110003A545
:02001200036584
:020013000325C3
:0200140002E602
:0200150002A641
:0200160002677F
:020017000227BE
:0200180001E8FD
:0200190001A93B
:02001A0001697A
:02001B00012AB8
:02001C0000EAF8
:02001D0000AB36
:02001E00006C74
:02001F00002DB2
:0200200003EDEE
:0200210003AE2C
:02002200036F6A
:020023000330A8
:0200240002F0E8
:0200250002B126
:02002600027264
:020027000233A2
:0200280001F4E1
:0200290001B51F
:02002A0001765D
:02002B0001379B
:02002C0000F8DA
:02002D0000B918
:02002E00007A56
:02002F00003B94
:0200300003FCCF
:0200310003BD0D
:02003200037F4A
:02003300034088
:020034000301C6
:0200350002C205
:02003600028343
:02003700024580
:020038000206BE
:0200390001C7FD
:02003A0001893A
:02003B00014A78
:02003C00010BB6
:02003D0000CDF4
:02003E00008E32
:02003F0000506F
:020040000011AD
:0200410003D3E7
:02004200039425
:02004300035662
:020044000317A0
:0200450002D9DE
:02004600029A1C
:02004700025C59
:02004800021E96
:0200490001DFD5
:02004A0001A112
:02004B0001634F
:02004C0001258C
:02004D0000E6CB
:02004E0000A808
:02004F00006A45
:02005000002C82
:0200510003EEBC
:0200520003AFFA
:02005300037137
:02005400033374
:0200550002F5B2
:0200560002B7EF
:0200570002792C
:02005800023B69
:0200590001FDA7
:02005A0001BFE4
:02005B00018121
:02005C0001435E
:02005D0001069A
:02005E0000C8D8
:02005F00008A15
:02006000004C52
:02006100000E8F
:0200620003D0C9
:02006300039305
:02006400035542
:0200650003177F
:0200660002DABC
:02006700029CF9
:02006800025E36
:02006900022172
:02006A0001E3B0
:02006B0001A5ED
:02006C00016829
:02006D00012A66
:02006E0000EDA3
:02006F0000AFE0
:0200700000721C
:02007100003558
:0200720003F792
:0200730003BACE
:02007400037C0B
:02007500033F47
:02007600030283
:0200770002C4C1
:020078000287FD
:02007900024A39
:02007A00020D75
:02007B0001CFB3
:02007C000192EF
:02007D0001552B
:02007E00011867
:02007F0000DBA4
:02008000009EE0
:0200810000601D
:02008200002359
:0200830003E692
:0200840003A9CE
:02008500036C0A
:02008600032F46
:0200870002F283
:0200880002B5BF
:020089000278FB
:02008A00023C36
:02008B0001FF73
:02008C0001C2AF
:02008D000185EB
:02008E00014827
:02008F00010B63
:0200900000CF9F
:020091000092DB
:02009200005517
:02009300001853
:0200940003DC8B
:02009500039FC7
:02009600036302
:0200970003263E
:0200980002E97B
:0200990002ADB6
:02009A000270F2
:02009B0002342D
:02009C0001F76A
:02009D0001BBA5
:02009E00017EE1
:02009F0001421C
:0200A000010558
:0200A10000C994
:0200A200008DCF
:0200A30000500B
:0200A400001446
:0200A50003D77F
:0200A600039BBA
:0200A700035FF5
:0200A800032330
:0200A90002E66D
:0200AA0002AAA8
:0200AB00026EE3
:0200AC0002321E
:0200AD0001F65A
:0200AE0001BA95
:0200AF00017DD1
:0200B00001410C
:0200B100010547
:0200B20000C983
:0200B300008DBE
:0200B4000051F9
:0200B500001534
:0200B60003D96C
:0200B700039DA7
:0200B8000361E2
:0200B90003261C
:0200BA0002EA58
:0200BB0002AE93
:0200BC000272CE
:0200BD00023609
:0200BE0001FA45
:0200BF0001BF7F
:0200C0000183BA
:0200C1000147F5
:0200C200010B30
:0200C30000D06B
:0200C4000094A6
:0200C5000058E1
:0200C600001D1B
:0200C70003E153
:0200C80003A68D
:0200C900036AC8
:0200CA00032E03
:0200CB0002F33E
:0200CC0002B779
:0200CD00027CB3
:0200CE000241ED
:0200CF00020528
:0200D00001CA63
:0200D100018E9E
:0200D2000153D8
:0200D300011812
:0200D40000DC4E
:0200D50000A188
:0200D6000066C2
:0200D700002AFD
:0200D80003EF34
:0200D90003B46E
:0200DA000379A8
:0200DB00033DE3
:0200DC0003021D
:0200DD0002C758
:0200DE00028C92
:0200DF000251CC
:0200E000021606
:0200E10001DB41
:0200E20001A07B
:0200E3000165B5
:0200E400012AEF
:0200E50000EF2A
:0200E60000B464
:0200E70000799E
:0200E800003ED8
:0200E900000312
:0200EA0003C849
:0200EB00038D83
:0200EC000352BD
:0200ED000318F6
:0200EE0002DD31
:0200EF0002A26B
:0200F0000267A5
:0200F100022CDF
:0200F20001F219
:0200F30001B753
:0200F400017C8D
:0200F5000142C6
:0200F600010700
:0200F70000CC3B
:0200F800009274
:0200F9000057AE
:0200FA00001DE7
:0200FB0003E21E
:0200FC0003A857
:0200FD00036D91
:0200FE000333CA
:0200FF0002F805
:0201000002BE3D
:02010100028377
:020102000249B0
:02010300020FE9
:0201040001D424
:02010500019A5D
:02010600016096
:020107000125D0
:0201080000EB0A
:0201090000B143
:02010A0000777C
:02010B00003CB6
:02010C000002EF
:02010D0003C825
:02010E00038E5E
:02010F00035497
:02011000031AD0
:0201110002DF0B
:0201120002A544
:02011300026B7D
:020114000231B6
:0201150001F7F0
:0201160001BD29
:02011700018362
:0201180001499B
:02011900010FD4
:02011A0000D50E
:02011B00009C46
:02011C0000627F
:02011D000028B8
:02011E0003EEEE
:02011F0003B427
:02012000037A60
:02012100034198
:020122000307D1
:0201230002CD0B
:02012400029344
:02012500025A7C
:020126000220B5
:0201270001E6EF
:0201280001AD27
:02012900017360
:02012A00013999
:02012B000100D1
:02012C0000C60B
:02012D00008D43
:02012E0000537C
:02012F00001AB4
:0201300003E0EA
:0201310003A722
:02013200036D5B
:02013300033493
:0201340002FBCC
:0201350002C105
:0201360002883D
:02013700024E76
:020138000215AE
:0201390001DCE7
:02013A0001A220
:02013B00016958
:02013C00013090
:02013D0000F7C9
:02013E0000BE01
:02013F0000843A
:02014000004B72
:020141000012AA
:0201420003D9DF
:0201430003A017
:0201440003674F
:02014500032E87
:0201460002F5C0
:0201470002BCF8
:02014800028330
:02014900024A68
:02014A000211A0
:02014B0001D8D9
:02014C00019F11
:02014D00016649
:02014E00012D81
:02014F0000F4BA
:0201500000BBF2
:0201510000822A
:02015200004962
:02015300001199
:0201540003D8CE
:02015500039F06
:0201560003663E
:02015700032E75
:0201580002F5AE
:0201590002BCE6
:02015A0002841D
:02015B00024B55
:02015C0002128D
:02015D0001DAC5
:02015E0001A1FD
:02015F00016835
:0201600001306C
:0201610000F7A5
:0201620000BFDC
:02016300008614
:02016400004E4B
:02016500001583
:0201660003DDB7
:0201670003A5EE
:02016800036C26
:0201690003345D
:02016A0002FB96
:02016B0002C3CD
:02016C00028B04
:02016D0002523C
:02016E00021A73
:02016F0001E2AB
:0201700001AAE2
:0201710001711A
:02017200013951
:02017300010188
:0201740000C9C0
:020175000091F7
:0201760000582F
:02017700002066
:0201780003E89A
:0201790003B0D1
:02017A00037808
:02017B0003403F
:02017C00030876
:02017D0002D0AE
:02017E000298E5
:02017F0002601C
:02018000022853
:0201810001F08B
:0201820001B8C2
:020183000180F9
:02018400014830
:02018500011166
:0201860000D99E
:0201870000A1D5
:0201880000690C
:02018900003143
:02018A0003FA76
:02018B0003C2AD
:02018C00038AE4
:02018D0003521B
:02018E00031B51
:02018F0002E389
:0201900002ABC0
:020191000274F6
:02019200023C2D
:02019300020563
:0201940001CD9B
:020195000195D2
:02019600015E08
:0201970001263F
:0201980000EF76
:0201990000B7AD
:02019A000080E3
:02019B0000481A
:02019C00001150
:02019D0003DA83
:02019E0003A2BA
:02019F00036BF0
:0201A000033426
:0201A10002FC5E
:0201A20002C594
:0201A300028ECA
:0201A400025601
:0201A500021F37
:0201A60001E86E
:0201A70001B1A4
:0201A8000179DB
:0201A900014211
:0201AA00010B47
:0201AB0000D47E
:0201AC00009DB4
:0201AD000066EA
:0201AE00002E21
:0201AF0003F754
:0201B00003C08A
:0201B1000389C0
:0201B2000352F6
:0201B300031B2C
:0201B40002E463
:0201B50002AD99
:0201B6000276CF
:0201B700023F05
:0201B80002083B
:0201B90001D271
:0201BA00019BA7
:0201BB000164DD
:0201BC00012D13
:0201BD0000F64A
:0201BE0000BF80
:0201BF000089B5
:0201C0000052EB
:0201C100001B21
:0201C20003E454
:0201C30003AE89
:0201C4000377BF
:0201C5000340F5
:0201C600030A2A
:0201C70002D361
:0201C800029C97
:0201C9000266CC
:0201CA00022F02
:0201CB0001F839
:0201CC0001C26E
:0201CD00018BA4
:0201CE000155D9
:0201CF00011E0F
:0201D00000E845
:0201D10000B17B
:0201D200007BB0
:0201D3000045E5
:0201D400000E1B
:0201D50003D84D
:0201D60003A183
:0201D700036BB8
:0201D8000335ED
:0201D90002FE24
:0201DA0002C859
:0201DB0002928E
:0201DC00025BC4
:0201DD000225F9
:0201DE0001EF2F
:0201DF0001B964
:0201E000018399
:0201E100014CCF
:0201E200011604
:0201E30000E03A
:0201E40000AA6F
:0201E5000074A4
:0201E600003ED9
:0201E70000080E
:0201E80003D240
:0201E900039C75
:0201EA000366AA
:0201EB000330DF
:0201EC0002FA15
:0201ED0002C44A
:0201EE00028E7F
:0201EF000258B4
:0201F0000222E9
:0201F10001EC1F
:0201F20001B654
:0201F300018089
:0201F400014ABE
:0201F5000114F3
:0201F60000DF28
:0201F70000A95D
:0201F800007392
:0201F900003DC7
:0201FA000008FB
:0201FB0003D22D
:0201FC00039C62
:0201FD00036697
:0201FE000331CB
:0201FF0002FB01
:0202000002C535
:02020100029069
:02020200025A9E
:020203000225D2
:0202040001EF08
:0202050001BA3C
:02020600018471
:02020700014FA5
:020208000119DA
:0202090000E40F
:02020A0000AE44
:02020B00007978
:02020C000043AD
:02020D00000EE1
:02020E0003D813
:02020F0003A347
:02021000036E7B
:020211000338B0
:020212000303E4
:0202130002CE19
:0202140002984E
:02021500026382
:02021600022EB6
:0202170001F9EB
:0202180001C320
:02021900018E54
:02021A00015988
:02021B000124BC
:02021C0000EFF1
:02021D0000BA25
:02021E0000845A
:02021F00004F8E
:02022000001AC2
:0202210003E5F3
:0202220003B027
:02022300037B5B
:0202240003468F
:020225000311C3
:0202260002DCF8
:0202270002A72C
:02022800027260
:02022900023D94
:02022A000208C8
:02022B0001D4FC
:02022C00019F30
:02022D00016A64
:02022E00013598
:02022F000100CC
:0202300000CB01
:02023100009734
:02023200006268
:02023300002D9C
:0202340003F8CD
:0202350003C400
:02023600038F34
:02023700035A68
:0202380003259C
:0202390002F1D0
:02023A0002BC04
:02023B00028837
:02023C0002536B
:02023D00021E9F
:02023E0001EAD3
:02023F0001B507
:0202400001813A
:02024100014C6E
:020242000118A1
:0202430000E3D6
:0202440000AF09
:02024500007A3D
:02024600004670
:020247000011A4
:0202480003DDD4
:0202490003A907
:02024A0003743B
:02024B0003406E
:02024C00030CA1
:02024D0002D7D6
:02024E0002A309
:02024F00026F3C
:02025000023A70
:020251000206A3
:0202520001D2D7
:02025300019E0A
:0202540001693E
:02025500013571
:020256000101A4
:0202570000CDD8
:0202580000990B
:0202590000653E
:02025A00003171
:02025B0003FDA1
:02025C0003C8D5
:02025D00039408
:02025E0003603B
:02025F00032C6E
:0202600002F8A2
:0202610002C4D5
:02026200029008
:02026300025C3B
:0202640002296D
:0202650001F5A1
:0202660001C1D4
:02026700018D07
:0202680001593A
:0202690001256D
:02026A0000F1A1
:02026B0000BDD4
:02026C00008A06
:02026D00005639
:02026E0000226C
:02026F0003EE9C
:0202700003BBCE
:02027100038701
:02027200035334
:02027300031F67
:0202740002EC9A
:0202750002B8CD
:02027600028400
:02027700025132
:02027800021D65
:0202790001EA98
:02027A0001B6CB
:02027B000183FD
:02027C00014F30
:02027D00011B63
:02027E0000E896
:02027F0000B4C9
:020280000081FB
:02028100004E2D
:02028200001A60
:0202830003E78F
:0202840003B3C2
:020285000380F4
:02028600034C27
:02028700031959
:0202880002E68C
:0202890002B2BF
:02028A00027FF1
:02028B00024C23
:02028C00021955
:02028D0001E589
:02028E0001B2BB
:02028F00017FED
:02029000014C1F
:02029100011852
:0202920000E585
:0202930000B2B7
:02029400007FE9
:02029500004C1B
:0202960000194D
:0202970003E67C
:0202980003B2AF
:02029900037FE1
:02029A00034C13
:02029B00031945
:02029C0002E678
:02029D0002B3AA
:02029E000280DC
:02029F00024D0E
:0202A000021A40
:0202A10001E773
:0202A20001B4A5
:0202A3000182D6
:0202A400014F08
:0202A500011C3A
:0202A60000E96D
:0202A70000B69F
:0202A8000083D1
:0202A900005003
:0202AA00001E34
:0202AB0003EB63
:0202AC0003B895
:0202AD000385C7
:0202AE000353F8
:0202AF0003202A
:0202B00002ED5D
:0202B10002BA8F
:0202B2000288C0
:0202B3000255F2
:0202B400022323
:0202B50001F056
:0202B60001BD88
:0202B700018BB9
:0202B8000158EB
:0202B90001261C
:0202BA0000F34F
:0202BB0000C081
:0202BC00008EB2
:0202BD00005BE4
:0202BE00002915
:0202BF0003F743
:0202C00003C475
:0202C1000392A6
:0202C200035FD8
:0202C300032D09
:0202C40002FA3C
:0202C50002C86D
:0202C60002969E
:0202C7000263D0
:0202C800023101
:0202C90001FF33
:0202CA0001CC65
:0202CB00019A96
:0202CC000168C7
:0202CD000136F8
:0202CE0001032A
:0202CF0000D15C
:0202D000009F8D
:0202D100006DBE
:0202D200003BEF
:0202D300000920
:0202D40003D64F
:0202D50003A480
:0202D6000372B1
:0202D7000340E2
:0202D800030E13
:0202D90002DC45
:0202DA0002AA76
:0202DB000278A7
:0202DC000246D8
:0202DD00021409
:0202DE0001E23B
:0202DF0001B06C
:0202E000017E9D
:0202E100014CCE
:0202E200011AFF
:0202E30000E831
:0202E40000B662
:0202E500008493
:0202E6000053C3
:0202E7000021F4
:0202E80003EF22
:0202E90003BD53
:0202EA00038B84
:0202EB00035AB4
:0202EC000328E5
:0202ED0002F617
:0202EE0002C448
:0202EF00029378
:0202F0000261A9
:0202F100022FDA
:0202F20001FE0B
:0202F30001CC3C
:0202F400019A6D
:0202F50001699D
:0202F6000137CE
:0202F7000105FF
:0202F80000D430
:0202F90000A261
:0202FA00007191
:0202FB00003FC2
:0202FC00000EF2
:0202FD0003DC20
:0202FE0003AB50
:0202FF00037981
:020300000348B0
:020301000316E1
:0203020002E512
:0203030002B343
:02030400028273
:020305000251A3
:02030600021FD4
:0203070001EE05
:0203080001BD35
:02030900018B66
:02030A00015A96
:02030B000129C6
:02030C0000F7F8
:02030D0000C628
:02030E00009558
:02030F00006488
:020310000032B9
:020311000001E9
:0203120003D016
:02031300039F46
:02031400036E76
:02031500033DA6
:02031600030BD7
:0203170002DA08
:0203180002A938
:02031900027868
:02031A00024798
:02031B000216C8
:02031C0001E5F9
:02031D0001B429
:02031E00018359
:02031F00015289
:020320000121B9
:0203210000F0EA
:0203220000BF1A
:02032300008E4A
:02032400005D7A
:02032500002CAA
:0203260003FCD6
:0203270003CB06
:02032800039A36
:02032900036966
:02032A00033896
:02032B000307C6
:02032C0002D7F6
:02032D0002A626
:02032E00027556
:02032F00024486
:020330000214B5
:0203310001E3E6
:0203320001B216
:02033300018146
:02033400015175
:020335000120A5
:0203360000EFD6
:0203370000BF05
:02033800008E35
:02033900005E64
:02033A00002D94
:02033B0003FCC1
:02033C0003CCF0
:02033D00039B20
:02033E00036B4F
:02033F00033A7F
:02034000030AAE
:0203410002D9DF
:0203420002A90E
:0203430002783E
:0203440002486D
:0203450002189C
:0203460001E7CD
:0203470001B7FC
:0203480001862C
:0203490001565B
:02034A0001268A
:02034B0000F5BB
:02034C0000C5EA
:02034D00009519
:02034E00006449
:02034F00003478
:020350000004A7
:0203510003D4D3
:0203520003A303
:02035300037332
:02035400034361
:02035500031390
:0203560002E3C0
:0203570002B2F0
:0203580002821F
:0203590002524E
:02035A0002227D
:02035B0001F2AD
:02035C0001C2DC
:02035D0001920B
:02035E0001623A
:02035F00013269
:02036000010298
:0203610000D2C8
:0203620000A2F7
:02036300007226
:02036400004255
:02036500001284
:0203660003E2B0
:0203670003B2DF
:0203680003820E
:0203690003523D
:02036A0003226C
:02036B0002F29C
:02036C0002C2CB
:02036D000293F9
:02036E00026328
:02036F00023357
:02037000020386
:0203710001D3B6
:0203720001A4E4
:02037300017413
:02037400014442
:02037500011471
:0203760000E5A0
:0203770000B5CF
:020378000085FE
:0203790000562C
:02037A0000265B
:02037B0003F687
:02037C0003C7B5
:02037D000397E4
:02037E00036812
:02037F00033841
:02038000030870
:0203810002D99F
:0203820002A9CE
:02038300027AFC
:02038400024A2B
:02038500021B59
:0203860001EB89
:0203870001BCB7
:02038800018CE6
:02038900015D14
:02038A00012D43
:02038B0000FE72
:02038C0000CFA0
:02038D00009FCF
:02038E000070FD
:02038F0000412B
:0203900000115A
:0203910003E285
:0203920003B3B3
:020393000383E2
:02039400035410
:0203950003253E
:0203960002F56E
:0203970002C69C
:020398000297CA
:020399000268F8
:02039A00023926
:02039B00020955
:02039C0001DA84
:02039D0001ABB2
:02039E00017CE0
:02039F00014D0E
:0203A000011E3C
:0203A10000EF6B
:0203A20000C099
:0203A3000090C8
:0203A4000061F6
:0203A500003224
:0203A600000352
:0203A70003D47D
:0203A80003A5AB
:0203A9000376D9
:0203AA00034707
:0203AB00031835
:0203AC0002E964
:0203AD0002BB91
:0203AE00028CBF
:0203AF00025DED
:0203B000022E1B
:0203B10001FF4A
:0203B20001D078
:0203B30001A1A6
:0203B4000172D4
:0203B500014401
:0203B60001152F
:0203B70000E65E
:0203B80000B78C
:0203B9000088BA
:0203BA00005AE7
:0203BB00002B15
:0203BC0003FC40
:0203BD0003CE6D
:0203BE00039F9B
:0203BF000370C9
:0203C0000341F7
:0203C100031324
:0203C20002E453
:0203C30002B680
:0203C4000287AE
:0203C5000258DC
:0203C600022A09
:0203C70001FB38
:0203C80001CD65
:0203C900019E93
:0203CA000170C0
:0203CB000141EE
:0203CC0001131B
:0203CD0000E44A
:0203CE0000B677
:0203CF000087A5
:0203D0000059D2
:0203D100002A00
:0203D20003FC2A
:0203D30003CD58
:0203D400039F85
:0203D5000371B2
:0203D6000342E0
:0203D70003140D
:0203D80002E63B
:0203D90002B769
:0203DA00028996
:0203DB00025BC3
:0203DC00022CF1
:0203DD0001FE1F
:0203DE0001D04C
:0203DF0001A279
:0203E0000173A7
:0203E1000145D4
:0203E200011701
:0203E30000E92F
:0203E40000BB5C
:0203E500008C8A
:0203E600005EB7
:0203E7000030E4
:0203E800000211
:0203E90003D43B
:0203EA0003A668
:0203EB00037895
:0203EC00034AC2
:0203ED00031CEF
:0203EE0002EE1D
:0203EF0002C04A
:0203F000029277
:0203F1000264A4
:0203F2000236D1
:0203F3000208FE
:0203F40001DA2C
:0203F50001AC59
:0203F600017E86
:0203F7000150B3
:0203F8000122E0
:0203F90000F40E
:0203FA0000C63B
:0203FB00009868
:0203FC00006B94
:0203FD00003DC1
:0203FE00000FEE
:0203FF0003E118
:0204000003B344
:02040100038571
:0204020003589D
:02040300032ACA
:0204040002FCF8
:0204050002CE25
:0204060002A151
:0204070002737E
:020408000245AB
:020409000218D7
:02040A0001EA05
:02040B0001BC32
:02040C00018F5E
:02040D0001618B
:02040E000134B7
:02040F000106E4
:0204100000D812
:0204110000AB3E
:02041200007D6B
:02041300005097
:020414000022C4
:0204150003F5ED
:0204160003C71A
:02041700039A46
:02041800036C73
:02041900033F9F
:02041A000311CC
:02041B0002E4F9
:02041C0002B626
:02041D00028952
:02041E00025C7E
:02041F00022EAB
:020420000201D7
:0204210001D404
:0204220001A631
:0204230001795D
:02042400014C89
:02042500011EB6
:0204260000F1E3
:0204270000C40F
:0204280000963C
:02042900006968
:02042A00003C94
:02042B00000FC0
:02042C0003E1EA
:02042D0003B416
:02042E00038742
:02042F00035A6E
:02043000032D9A
:020431000300C6
:0204320002D2F4
:0204330002A520
:0204340002784C
:02043500024B78
:02043600021EA4
:0204370001F1D1
:0204380001C4FD
:02043900019729
:02043A00016A55
:02043B00013D81
:02043C000110AD
:02043D0000E3DA
:02043E0000B606
:02043F00008932
:02044000005C5E
:02044100002F8A
:020442000002B6
:0204430003D5DF
:0204440003A80B
:02044500037B37
:02044600034F62
:0204470003228E
:0204480002F5BB
:0204490002C8E7
:02044A00029B13
:02044B00026E3F
:02044C0002426A
:02044D00021596
:02044E0001E8C3
:02044F0001BBEF
:02045000018F1A
:02045100016246
:02045200013572
:0204530001089E
:0204540000DCCA
:0204550000AFF6
:02045600008222
:0204570000564D
:02045800002979
:0204590003FCA2
:02045A0003D0CD
:02045B0003A3F9
:02045C00037724
:02045D00034A50
:02045E00031E7B
:02045F0002F1A8
:0204600002C4D4
:020461000298FF
:02046200026B2B
:02046300023F56
:02046400021282
:0204650001E6AE
:0204660001BAD9
:02046700018D05
:02046800016130
:0204690001345C
:02046A00010887
:02046B0000DBB4
:02046C0000AFDF
:02046D0000830A
:02046E00005636
:02046F00002A61
:0204700003FE89
:0204710003D1B5
:0204720003A5E0
:0204730003790B
:02047400034C37
:02047500032062
:0204760002F48E
:0204770002C8B9
:02047800029BE5
:02047900026F10
:02047A0002433B
:02047B00021766
:02047C0001EB92
:02047D0001BEBE
:02047E000192E9
:02047F00016614
:02048000013A3F
:02048100010E6A
:0204820000E296
:0204830000B6C1
:02048400008AEC
:02048500005E17
:02048600003242
:0204870000056E
:0204880003D996
:0204890003ADC1
:02048A000381EC
:02048B00035517
:02048C00032942
:02048D0002FD6E
:02048E0002D298
:02048F0002A6C3
:02049000027AEE
:02049100024E19
:02049200022244
:0204930001F670
:0204940001CA9B
:02049500019EC6
:020496000172F1
:0204970001471B
:02049800011B46
:0204990000EF72
:02049A0000C39D
:02049B000097C8
:02049C00006BF3
:02049D0000401D
:02049E00001448
:02049F0003E870
:0204A00003BC9B
:0204A1000391C5
:0204A2000365F0
:0204A30003391B
:0204A400030E45
:0204A50002E271
:0204A60002B69C
:0204A700028BC6
:0204A800025FF1
:0204A90002331C
:0204AA00020846
:0204AB0001DC72
:0204AC0001B19C
:0204AD000185C7
:0204AE00015AF1
:0204AF00012E1C
:0204B000010346
:0204B10000D772
:0204B20000AB9D
:0204B3000080C7
:0204B4000055F1
:0204B50000291C
:0204B60003FE43
:0204B70003D26E
:0204B80003A798
:0204B900037BC3
:0204BA000350ED
:0204BB00032418
:0204BC0002F943
:0204BD0002CE6D
:0204BE0002A298
:0204BF000277C2
:0204C000024CEC
:0204C100022017
:0204C20001F542
:0204C30001CA6C
:0204C400019E97
:0204C5000173C1
:0204C6000148EB
:0204C700011D15
:0204C80000F141
:0204C90000C66B
:0204CA00009B95
:0204CB000070BF
:0204CC000045E9
:0204CD00001914
:0204CE0003EE3B
:0204CF0003C365
:0204D00003988F
:0204D100036DB9
:0204D2000342E3
:0204D30003170D
:0204D40002EC38
:0204D50002C063
:0204D60002958D
:0204D700026AB7
:0204D800023FE1
:0204D90002140B
:0204DA0001E936
:0204DB0001BE60
:0204DC0001938A
:0204DD000168B4
:0204DE00013DDE
:0204DF00011208
:0204E00000E733
:0204E10000BC5D
:0204E200009286
:0204E3000067B0
:0204E400003CDA
:0204E500001104
:0204E60003E62B
:0204E70003BB55
:0204E80003907F
:0204E9000365A9
:0204EA00033BD2
:0204EB000310FC
:0204EC0002E527
:0204ED0002BA51
:0204EE00028F7B
:0204EF000265A4
:0204F000023ACE
:0204F100020FF8
:0204F20001E423
:0204F30001BA4C
:0204F400018F76
:0204F5000164A0
:0204F600013AC9
:0204F700010FF3
:0204F80000E41E
:0204F90000BA47
:0204FA00008F71
:0204FB0000649B
:0204FC00003AC4
:0204FD00000FEE
:0204FE0003E514
:0204FF0003BA3E
:02050000038F67
:02050100036590
:02050200033ABA
:020503000310E3
:0205040002E50E
:0205050002BB37
:02050600029061
:0205070002668A
:02050800023BB4
:020509000211DD
:02050A0001E608
:02050B0001BC31
:02050C0001925A
:02050D00016784
:02050E00013DAD
:02050F000112D7
:0205100000E801
:0205110000BE2A
:02051200009354
:0205130000697D
:02051400003FA6
:020515000014D0
:0205160003EAF6
:0205170003C01F
:02051800039648
:02051900036B72
:02051A0003419B
:02051B000317C4
:02051C0002EDEE
:02051D0002C218
:02051E00029841
:02051F00026E6A
:02052000024493
:02052100021ABC
:0205220001EFE7
:0205230001C510
:02052400019B39
:02052500017162
:0205260001478B
:02052700011DB4
:0205280000F3DE
:0205290000C907
:02052A00009E31
:02052B0000745A
:02052C00004A83
:02052D000020AC
:02052E0003F6D2
:02052F0003CCFB
:0205300003A224
:0205310003784D
:02053200034E76
:0205330003249F
:0205340002FAC9
:0205350002D0F2
:0205360002A71A
:02053700027D43
:0205380002536C
:02053900022995
:02053A0001FFBF
:02053B0001D5E8
:02053C0001AB11
:02053D0001813A
:02053E00015862
:02053F00012E8B
:020540000104B4
:0205410000DADE
:0205420000B007
:0205430000872F
:02054400005D58
:02054500003381
:020546000009AA
:0205470003E0CF
:0205480003B6F8
:02054900038C21
:02054A0003624A
:02054B00033972
:02054C00030F9B
:02054D0002E5C5
:02054E0002BCED
:02054F00029216
:0205500002683F
:02055100023F67
:02055200021590
:0205530001ECB9
:0205540001C2E2
:0205550001980B
:02055600016F33
:0205570001455C
:02055800011C84
:0205590000F2AE
:02055A0000C9D6
:02055B00009FFF
:02055C00007627
:02055D00004C50
:02055E00002378
:02055F0003F99E
:0205600003D0C6
:0205610003A6EF
:02056200037D17
:0205630003543F
:02056400032A68
:02056500030190
:0205660002D7BA
:0205670002AEE2
:0205680002850A
:02056900025B33
:02056A0002325B
:02056B00020983
:02056C0001DFAD
:02056D0001B6D5
:02056E00018DFD
:02056F00016425
:02057000013A4E
:02057100011176
:0205720000E89F
:0205730000BFC7
:020574000095F0
:02057500006C18
:02057600004340
:02057700001A68
:0205780003F18D
:0205790003C7B6
:02057A00039EDE
:02057B00037506
:02057C00034C2E
:02057D00032356
:02057E0002FA7F
:02057F0002D1A7
:0205800002A8CF
:02058100027EF8
:02058200025520
:02058300022C48
:02058400020370
:0205850001DA99
:0205860001B1C1
:020587000188E9
:02058800015F11
:02058900013639
:02058A00010D61
:02058B0000E48A
:02058C0000BBB2
:02058D000092DA
:02058E00006902
:02058F00004129
:02059000001851
:0205910003EF76
:0205920003C69E
:02059300039DC6
:020594000374EE
:02059500034B16
:0205960003223E
:0205970002FA66
:0205980002D18E
:0205990002A8B6
:02059A00027FDE
:02059B00025606
:02059C00022E2D
:02059D00020555
:02059E0001DC7E
:02059F0001B3A6
:0205A000018BCD
:0205A1000162F5
:0205A20001391D
:0205A300011144
:0205A40000E86D
:0205A50000BF95
:0205A6000096BD
:0205A700006EE4
:0205A80000450C
:0205A900001D33
:0205AA0003F458
:0205AB0003CB80
:0205AC0003A3A7
:0205AD00037ACF
:0205AE000352F6
:0205AF0003291E
:0205B000030046
:0205B10002D86E
:0205B20002AF96
:0205B3000287BD
:0205B400025EE5
:0205B50002360C
:0205B600020D34
:0205B70001E55C
:0205B80001BC84
:0205B9000194AB
:0205BA00016BD3
:0205BB000143FA
:0205BC00011B21
:0205BD0000F24A
:0205BE0000CA71
:0205BF0000A199
:0205C0000079C0
:0205C1000051E7
:0205C20000280F
:0205C300000036
:0205C40003D85A
:0205C50003AF82
:0205C6000387A9
:0205C700035FD0
:0205C8000336F8
:0205C900030E1F
:0205CA0002E647
:0205CB0002BE6E
:0205CC00029596
:0205CD00026DBD
:0205CE000245E4
:0205CF00021D0B
:0205D00001F434
:0205D10001CC5B
:0205D20001A482
:0205D300017CA9
:0205D4000154D0
:0205D500012CF7
:0205D60001031F
:0205D70000DB47
:0205D80000B36E
:0205D900008B95
:0205DA000063BC
:0205DB00003BE3
:0205DC0000130A
:0205DD0003EB2E
:0205DE0003C355
:0205DF00039B7C
:0205E0000373A3
:0205E100034BCA
:0205E2000323F1
:0205E30002FB19
:0205E40002D340
:0205E50002AB67
:0205E60002838E
:0205E700025BB5
:0205E8000233DC
:0205E900020B03
:0205EA0001E32B
:0205EB0001BB52
:0205EC00019379
:0205ED00016BA0
:0205EE000143C7
:0205EF00011BEE
:0205F00000F316
:0205F10000CC3C
:0205F20000A463
:0205F300007C8A
:0205F4000054B1
:0205F500002CD8
:0205F6000005FE
:0205F70003DD22
:0205F80003B549
:0205F900038D70
:0205FA00036597
:0205FB00033EBD
:0205FC000316E4
:0205FD0002EE0C
:0205FE0002C633
:0205FF00029F59
:0206000002777F
:02060100024FA6
:020602000228CC
:020603000200F3
:0206040001D81B
:0206050001B141
:02060600018968
:0206070001628E
:02060800013AB5
:020609000112DC
:02060A0000EB03
:02060B0000C32A
:02060C00009C50
:02060D00007477
:02060E00004C9E
:02060F000025C4
:0206100003FDE8
:0206110003D60E
:0206120003AE35
:0206130003875B
:02061400035F82
:020615000338A8
:020616000310CF
:0206170002E9F6
:0206180002C21C
:02061900029A43
:02061A00027369
:02061B00024B90
:02061C000224B6
:02061D0001FDDD
:02061E0001D504
:02061F0001AE2A
:02062000018651
:02062100015F77
:0206220001389D
:020623000110C4
:0206240000E9EB
:0206250000C211
:02062600009A38
:0206270000735E
:02062800004C84
:020629000025AA
:02062A0003FDCE
:02062B0003D6F4
:02062C0003AF1A
:02062D00038840
:02062E00036067
:02062F0003398D
:020630000312B3
:0206310002EBDA
:0206320002C400
:02063300029D26
:0206340002754D
:02063500024E73
:02063600022799
:020637000200BF
:0206380001D9E6
:0206390001B20C
:02063A00018B32
:02063B00016458
:02063C00013D7E
:02063D000116A4
:02063E0000EECC
:02063F0000C7F2
:0206400000A018
:0206410000793E
:02064200005264
:02064300002B8A
:020644000004B0
:0206450003DDD3
:0206460003B6F9
:0206470003901E
:02064800036944
:0206490003426A
:02064A00031B90
:02064B0002F4B7
:02064C0002CDDD
:02064D0002A603
:02064E00027F29
:02064F0002584F
:02065000023175
:02065100020B9A
:0206520001E4C1
:0206530001BDE7
:0206540001960D
:02065500016F33
:02065600014859
:0206570001227E
:0206580000FBA5
:0206590000D4CB
:02065A0000ADF1
:02065B00008716
:02065C0000603C
:02065D00003962
:02065E00001288
:02065F0003ECAA
:0206600003C5D0
:02066100039EF6
:0206620003781B
:02066300035141
:02066400032A67
:0206650003048C
:0206660002DDB3
:0206670002B6D9
:020668000290FE
:02066900026924
:02066A00024349
:02066B00021C6F
:02066C0001F596
:02066D0001CFBB
:02066E0001A8E1
:02066F00018206
:02067000015B2C
:02067100013551
:02067200010E77
:0206730000E89D
:0206740000C1C3
:02067500009BE8
:0206760000740E
:02067700004E33
:02067800002759
:0206790000017E
:02067A0003DAA1
:02067B0003B4C6
:02067C00038DEC
:02067D00036711
:02067E00034136
:02067F00031A5C
:0206800002F482
:0206810002CEA7
:0206820002A7CD
:020683000281F2
:02068400025A18
:0206850002343D
:02068600020E62
:0206870001E888
:0206880001C1AE
:02068900019BD3
:02068A000175F8
:02068B00014E1E
:02068C00012843
:02068D00010268
:02068E0000DC8E
:02068F0000B5B4
:02069000008FD9
:020691000069FE
:02069200004323
:02069300001D48
:0206940003F66B
:0206950003D090
:0206960003AAB5
:020697000384DA
:02069800035EFF
:02069900033824
:02069A00031249
:02069B0002EB70
:02069C0002C595
:02069D00029FBA
:02069E000279DF
:02069F00025304
:0206A000022D29
:0206A10002074E
:0206A20001E174
:0206A30001BB99
:0206A4000195BE
:0206A500016FE3
:0206A600014908
:0206A70001232D
:0206A80000FD53
:0206A90000D778
:0206AA0000B19D
:0206AB00008BC2
:0206AC000065E7
:0206AD00003F0C
:0206AE00001931
:0206AF0003F353
:0206B00003CD78
:0206B10003A79D
:0206B2000382C1
:0206B300035CE6
:0206B40003360B
:0206B500031030
:0206B60002EA56
:0206B70002C47B
:0206B800029EA0
:0206B9000279C4
:0206BA000253E9
:0206BB00022D0E
:0206BC00020733
:0206BD0001E258
:0206BE0001BC7D
:0206BF000196A2
:0206C0000170C7
:0206C100014BEB
:0206C200012510
:0206C30000FF36
:0206C40000D95B
:0206C50000B47F
:0206C600008EA4
:0206C7000068C9
:0206C8000043ED
:0206C900001D12
:0206CA0003F734
:0206CB0003D258
:0206CC0003AC7D
:0206CD000386A2
:0206CE000361C6
:0206CF00033BEB
:0206D00003160F
:0206D10002F035
:0206D20002CA5A
:0206D30002A57E
:0206D400027FA3
:0206D500025AC7
:0206D6000234EC
:0206D700020F10
:0206D80001E936
:0206D90001C45A
:0206DA00019E7F
:0206DB000179A3
:0206DC000153C8
:0206DD00012EEC
:0206DE00010811
:0206DF0000E336
:0206E00000BD5B
:0206E10000987F
:0206E2000073A3
:0206E300004DC8
:0206E4000028EC
:0206E500000211
:0206E60003DD32
:0206E70003B856
:0206E80003927B
:0206E900036D9F
:0206EA000348C3
:0206EB000322E8
:0206EC0002FD0D
:0206ED0002D831
:0206EE0002B256
:0206EF00028D7A
:0206F00002689E
:0206F1000242C3
:0206F200021DE7
:0206F30001F80C
:0206F40001D330
:0206F50001AD55
:0206F600018879
:0206F70001639D
:0206F800013EC1
:0206F9000119E5
:0206FA0000F30B
:0206FB0000CE2F
:0206FC0000A953
:0206FD00008477
:0206FE00005F9B
:0206FF00003ABF
:020700000014E3
:0207010003EF04
:0207020003CA28
:0207030003A54C
:02070400038070
:02070500035B94
:020706000336B8
:020707000311DC
:0207080002EC01
:0207090002C725
:02070A0002A249
:02070B00027D6D
:02070C00025891
:02070D000233B5
:02070E00020ED9
:02070F0001E9FE
:0207100001C422
:02071100019F46
:02071200017A6A
:0207130001558E
:020714000130B2
:02071500010BD6
:0207160000E6FB
:0207170000C11F
:02071800009C43
:02071900007767
:02071A0000528B
:02071B00002DAF
:02071C000009D2
:02071D0003E4F3
:02071E0003BF17
:02071F00039A3B
:0207200003755F
:02072100035083
:02072200032BA7
:020723000307CA
:0207240002E2EF
:0207250002BD13
:02072600029837
:0207270002745A
:02072800024F7E
:02072900022AA2
:02072A000205C6
:02072B0001E1EA
:02072C0001BC0E
:02072D00019732
:02072E00017256
:02072F00014E79
:0207300001299D
:020731000104C1
:0207320000E0E5
:0207330000BB09
:0207340000962D
:02073500007250
:02073600004D74
:02073700002997
:020738000004BB
:0207390003DFDC
:02073A0003BBFF
:02073B00039623
:02073C00037246
:02073D00034D6A
:02073E0003288E
:02073F000304B1
:0207400002DFD6
:0207410002BBF9
:0207420002961D
:02074300027240
:02074400024D64
:02074500022987
:020746000204AB
:0207470001E0CF
:0207480001BBF3
:02074900019716
:02074A00017339
:02074B00014E5D
:02074C00012A80
:02074D000105A4
:02074E0000E1C8
:02074F0000BCEC
:0207500000980F
:02075100007432
:02075200004F56
:02075300002B79
:0207540000079C
:0207550003E2BD
:0207560003BEE0
:02075700039A03
:02075800037527
:0207590003514A
:02075A00032D6D
:02075B00030891
:02075C0002E4B5
:02075D0002C0D8
:02075E00029CFB
:02075F0002771F
:02076000025342
:02076100022F65
:02076200020B88
:0207630001E6AD
:0207640001C2D0
:02076500019EF3
:02076600017A16
:02076700015639
:0207680001315D
:02076900010D80
:02076A0000E9A4
:02076B0000C5C7
:02076C0000A1EA
:02076D00007D0D
:02076E00005930
:02076F00003454
:02077000001077
:0207710003EC97
:0207720003C8BA
:0207730003A4DD
:02077400038000
:02077500035C23
:02077600033846
:02077700031469
:0207780002F08D
:0207790002CCB0
:02077A0002A8D3
:02077B000284F6
:02077C00026019
:02077D00023C3C
:02077E0002185F
:02077F0001F483
:0207800001D0A6
:0207810001ACC9
:020782000188EC
:0207830001640F
:02078400014032
:02078500011C55
:0207860000F879
:0207870000D59B
:0207880000B1BE
:02078900008DE1
:02078A00006904
:02078B00004527
:02078C0000214A
:02078D0003FD6A
:02078E0003DA8C
:02078F0003B6AF
:020790000392D2
:02079100036EF5
:02079200034A18
:0207930003273A
:0207940003035D
:0207950002DF81
:0207960002BBA4
:020797000298C6
:020798000274E9
:0207990002500C
:02079A00022C2F
:02079B00020951
:02079C0001E575
:02079D0001C198
:02079E00019EBA
:02079F00017ADD
:0207A000015600
:0207A100013322
:0207A200010F45
:0207A30000EB69
:0207A40000C88B
:0207A50000A4AE
:0207A6000080D1
:0207A700005DF3
:0207A800003916
:0207A900001638
:0207AA0003F258
:0207AB0003CE7B
:0207AC0003AB9D
:0207AD000387C0
:0207AE000364E2
:0207AF00034005
:0207B000031D27
:0207B10002F94B
:0207B20002D66D
:0207B30002B290
:0207B400028FB2
:0207B500026BD5
:0207B6000248F7
:0207B70002241A
:0207B80002013C
:0207B90001DD60
:0207BA0001BA82
:0207BB000196A5
:0207BC000173C7
:0207BD000150E9
:0207BE00012C0C
:0207BF0001092E
:0207C00000E552
:0207C10000C274
:0207C200009F96
:0207C300007BB9
:0207C4000058DB
:0207C5000035FD
:0207C600001120
:0207C70003EE3F
:0207C80003CB61
:0207C90003A784
:0207CA000384A6
:0207CB000361C8
:0207CC00033DEB
:0207CD00031A0D
:0207CE0002F730
:0207CF0002D452
:0207D00002B075
:0207D100028D97
:0207D200026AB9
:0207D3000247DB
:0207D4000223FE
:0207D500020020
:0207D60001DD43
:0207D70001BA65
:0207D800019787
:0207D9000173AA
:0207DA000150CC
:0207DB00012DEE
:0207DC00010A10
:0207DD0000E733
:0207DE0000C455
:0207DF0000A177
:0207E000007E99
:0207E100005ABC
:0207E2000037DE
:0207E300001400
:0207E40003F11F
:0207E50003CE41
:0207E60003AB63
:0207E700038885
:0207E8000365A7
:0207E9000342C9
:0207EA00031FEB
:0207EB0002FC0E
:0207EC0002D930
:0207ED0002B652
:0207EE00029374
:0207EF00027096
:0207F000024DB8
:0207F100022ADA
:0207F2000207FC
:0207F30001E41F
:0207F40001C141
:0207F500019E63
:0207F600017B85
:0207F7000158A7
:0207F8000135C9
:0207F9000113EA
:0207FA0000F00D
:0207FB0000CD2F
:0207FC0000AA51
:0207FD00008773
:0207FE00006495
:0207FF000041B7
:00000001ff
