:020000040000FA
:010000001FE0
:010001001DE1
:010002001BE2
:0100030019E3
:0100040017E4
:0100050015E5
:0100060013E6
:0100070011E7
:010008000FE8
:010009000DE9
:01000A000BEA
:01000B0009EB
:01000C0007EC
:01000D0005ED
:01000E0003EE
:01000F0001EF
:010010001ED1
:010011001CD2
:010012001AD3
:0100130018D4
:0100140016D5
:0100150014D6
:0100160012D7
:0100170010D8
:010018000ED9
:010019000DD9
:01001A000BDA
:01001B0009DB
:01001C0007DC
:01001D0005DD
:01001E0003DE
:01001F0001DF
:010020001DC2
:010021001BC3
:0100220019C4
:0100230018C4
:0100240016C5
:0100250014C6
:0100260012C7
:0100270010C8
:010028000EC9
:010029000CCA
:01002A000ACB
:01002B0008CC
:01002C0007CC
:01002D0005CD
:01002E0003CE
:01002F0001CF
:010030001DB2
:010031001BB3
:0100320019B4
:0100330017B5
:0100340015B6
:0100350013B7
:0100360012B7
:0100370010B8
:010038000EB9
:010039000CBA
:01003A000ABB
:01003B0008BC
:01003C0006BD
:01003D0005BD
:01003E0003BE
:01003F0001BF
:010040001CA3
:010041001AA4
:0100420018A5
:0100430017A5
:0100440015A6
:0100450013A7
:0100460011A8
:010047000FA9
:010048000EA9
:010049000CAA
:01004A000AAB
:01004B0008AC
:01004C0006AD
:01004D0005AD
:01004E0003AE
:01004F0001AF
:010050001B94
:010051001A94
:010052001895
:010053001696
:010054001497
:010055001397
:010056001198
:010057000F99
:010058000D9A
:010059000B9B
:01005A000A9B
:01005B00089C
:01005C00069D
:01005D00049E
:01005E00039E
:01005F00019F
:010060001B84
:010061001985
:010062001786
:010063001686
:010064001487
:010065001288
:010066001089
:010067000F89
:010068000D8A
:010069000B8B
:01006A000A8B
:01006B00088C
:01006C00068D
:01006D00048E
:01006E00038E
:01006F00018F
:010070001A75
:010071001975
:010072001776
:010073001577
:010074001378
:010075001278
:010076001079
:010077000E7A
:010078000D7A
:010079000B7B
:01007A00097C
:01007B00087C
:01007C00067D
:01007D00047E
:01007E00037E
:01007F00017F
:010080001A65
:010081001866
:010082001667
:010083001567
:010084001368
:010085001169
:010086001069
:010087000E6A
:010088000C6B
:010089000B6B
:01008A00096C
:01008B00076D
:01008C00066D
:01008D00046E
:01008E00026F
:01008F00016F
:010090001956
:010091001856
:010092001657
:010093001458
:010094001358
:010095001159
:010096000F5A
:010097000E5A
:010098000C5B
:010099000B5B
:01009A00095C
:01009B00075D
:01009C00065D
:01009D00045E
:01009E00025F
:01009F00015F
:0100A0001946
:0100A1001747
:0100A2001548
:0100A3001448
:0100A4001249
:0100A5001149
:0100A6000F4A
:0100A7000E4A
:0100A8000C4B
:0100A9000A4C
:0100AA00094C
:0100AB00074D
:0100AC00064D
:0100AD00044E
:0100AE00024F
:0100AF00014F
:0100B0001837
:0100B1001737
:0100B2001538
:0100B3001438
:0100B4001239
:0100B500103A
:0100B6000F3A
:0100B7000D3B
:0100B8000C3B
:0100B9000A3C
:0100BA00093C
:0100BB00073D
:0100BC00053E
:0100BD00043E
:0100BE00023F
:0100BF00013F
:0100C0001827
:0100C1001628
:0100C2001528
:0100C3001329
:0100C4001229
:0100C500102A
:0100C6000F2A
:0100C7000D2B
:0100C8000B2C
:0100C9000A2C
:0100CA00082D
:0100CB00072D
:0100CC00052E
:0100CD00042E
:0100CE00022F
:0100CF00012F
:0100D0001718
:0100D1001618
:0100D2001419
:0100D3001319
:0100D400111A
:0100D500101A
:0100D6000E1B
:0100D7000D1B
:0100D8000B1C
:0100D9000A1C
:0100DA00081D
:0100DB00071D
:0100DC00051E
:0100DD00041E
:0100DE00021F
:0100DF00011F
:0100E0001708
:0100E1001509
:0100E2001409
:0100E300120A
:0100E400110A
:0100E5000F0B
:0100E6000E0B
:0100E7000D0B
:0100E8000B0C
:0100E9000A0C
:0100EA00080D
:0100EB00070D
:0100EC00050E
:0100ED00040E
:0100EE00020F
:0100EF00010F
:0100F00016F9
:0100F10015F9
:0100F20014F9
:0100F30012FA
:0100F40011FA
:0100F5000FFB
:0100F6000EFB
:0100F7000CFC
:0100F8000BFC
:0100F90009FD
:0100FA0008FD
:0100FB0007FD
:0100FC0005FE
:0100FD0004FE
:0100FE0002FF
:0100FF0001FF
:0101000016E8
:0101010015E8
:0101020013E9
:0101030012E9
:0101040010EA
:010105000FEA
:010106000DEB
:010107000CEB
:010108000BEB
:0101090009EC
:01010A0008EC
:01010B0006ED
:01010C0005ED
:01010D0004ED
:01010E0002EE
:01010F0001EE
:0101100016D8
:0101110014D9
:0101120013D9
:0101130011DA
:0101140010DA
:010115000FDA
:010116000DDB
:010117000CDB
:010118000ADC
:0101190009DC
:01011A0008DC
:01011B0006DD
:01011C0005DD
:01011D0003DE
:01011E0002DE
:01011F0001DE
:0101200015C9
:0101210014C9
:0101220012CA
:0101230011CA
:0101240010CA
:010125000ECB
:010126000DCB
:010127000CCB
:010128000ACC
:0101290009CC
:01012A0008CC
:01012B0006CD
:01012C0005CD
:01012D0003CE
:01012E0002CE
:01012F0001CE
:0101300015B9
:0101310013BA
:0101320012BA
:0101330011BA
:010134000FBB
:010135000EBB
:010136000DBB
:010137000BBC
:010138000ABC
:0101390009BC
:01013A0007BD
:01013B0006BD
:01013C0005BD
:01013D0003BE
:01013E0002BE
:01013F0001BE
:0101400014AA
:0101410013AA
:0101420012AA
:0101430010AB
:010144000FAB
:010145000EAB
:010146000DAB
:010147000BAC
:010148000AAC
:0101490009AC
:01014A0007AD
:01014B0006AD
:01014C0005AD
:01014D0003AE
:01014E0002AE
:01014F0001AE
:01015000149A
:01015100139A
:01015200119B
:01015300109B
:010154000F9B
:010155000E9B
:010156000C9C
:010157000B9C
:010158000A9C
:01015900089D
:01015A00079D
:01015B00069D
:01015C00059D
:01015D00039E
:01015E00029E
:01015F00019E
:01016000148A
:01016100128B
:01016200118B
:01016300108B
:010164000F8B
:010165000D8C
:010166000C8C
:010167000B8C
:010168000A8C
:01016900088D
:01016A00078D
:01016B00068D
:01016C00048E
:01016D00038E
:01016E00028E
:01016F00018E
:01017000137B
:01017100127B
:01017200117B
:01017300107B
:010174000E7C
:010175000D7C
:010176000C7C
:010177000B7C
:01017800097D
:01017900087D
:01017A00077D
:01017B00067D
:01017C00047E
:01017D00037E
:01017E00027E
:01017F00017E
:01018000136B
:01018100126B
:01018200116B
:010183000F6C
:010184000E6C
:010185000D6C
:010186000C6C
:010187000A6D
:01018800096D
:01018900086D
:01018A00076D
:01018B00066D
:01018C00046E
:01018D00036E
:01018E00026E
:01018F00016E
:01019000135B
:01019100125B
:01019200105C
:010193000F5C
:010194000E5C
:010195000D5C
:010196000B5D
:010197000A5D
:01019800095D
:01019900085D
:01019A00075D
:01019B00055E
:01019C00045E
:01019D00035E
:01019E00025E
:01019F00015E
:0101A000124C
:0101A100114C
:0101A200104C
:0101A3000F4C
:0101A4000E4C
:0101A5000C4D
:0101A6000B4D
:0101A7000A4D
:0101A800094D
:0101A900084D
:0101AA00074D
:0101AB00054E
:0101AC00044E
:0101AD00034E
:0101AE00024E
:0101AF00014E
:0101B000123C
:0101B100113C
:0101B200103C
:0101B3000F3C
:0101B4000D3D
:0101B5000C3D
:0101B6000B3D
:0101B7000A3D
:0101B800093D
:0101B900083D
:0101BA00063E
:0101BB00053E
:0101BC00043E
:0101BD00033E
:0101BE00023E
:0101BF00013E
:0101C000122C
:0101C100112C
:0101C200102C
:0101C3000E2D
:0101C4000D2D
:0101C5000C2D
:0101C6000B2D
:0101C7000A2D
:0101C800092D
:0101C900072E
:0101CA00062E
:0101CB00052E
:0101CC00042E
:0101CD00032E
:0101CE00022E
:0101CF00012E
:0101D000121C
:0101D100101D
:0101D2000F1D
:0101D3000E1D
:0101D4000D1D
:0101D5000C1D
:0101D6000B1D
:0101D7000A1D
:0101D800081E
:0101D900071E
:0101DA00061E
:0101DB00051E
:0101DC00041E
:0101DD00031E
:0101DE00021E
:0101DF00011E
:0101E000110D
:0101E100100D
:0101E2000F0D
:0101E3000E0D
:0101E4000D0D
:0101E5000C0D
:0101E6000B0D
:0101E700090E
:0101E800080E
:0101E900070E
:0101EA00060E
:0101EB00050E
:0101EC00040E
:0101ED00030E
:0101EE00020E
:0101EF00010E
:0101F00011FD
:0101F10010FD
:0101F2000FFD
:0101F3000EFD
:0101F4000DFD
:0101F5000CFD
:0101F6000AFE
:0101F70009FE
:0101F80008FE
:0101F90007FE
:0101FA0006FE
:0101FB0005FE
:0101FC0004FE
:0101FD0003FE
:0101FE0002FE
:0101FF0001FE
:0102000011EC
:0102010010EC
:010202000FEC
:010203000EEC
:010204000CED
:010205000BED
:010206000AED
:0102070009ED
:0102080008ED
:0102090007ED
:01020A0006ED
:01020B0005ED
:01020C0004ED
:01020D0003ED
:01020E0002ED
:01020F0001ED
:0102100010DD
:010211000FDD
:010212000EDD
:010213000DDD
:010214000CDD
:010215000BDD
:010216000ADD
:0102170009DD
:0102180008DD
:0102190007DD
:01021A0006DD
:01021B0005DD
:01021C0004DD
:01021D0003DD
:01021E0002DD
:01021F0001DD
:0102200010CD
:010221000FCD
:010222000ECD
:010223000DCD
:010224000CCD
:010225000BCD
:010226000ACD
:0102270009CD
:0102280008CD
:0102290007CD
:01022A0006CD
:01022B0005CD
:01022C0004CD
:01022D0003CD
:01022E0002CD
:01022F0001CD
:0102300010BD
:010231000FBD
:010232000EBD
:010233000DBD
:010234000CBD
:010235000BBD
:010236000ABD
:0102370009BD
:0102380008BD
:0102390007BD
:01023A0006BD
:01023B0005BD
:01023C0004BD
:01023D0003BD
:01023E0002BD
:01023F0001BD
:0102400010AD
:010241000FAD
:010242000EAD
:010243000DAD
:010244000CAD
:010245000BAD
:010246000AAD
:0102470009AD
:0102480008AD
:0102490007AD
:01024A0006AD
:01024B0005AD
:01024C0004AD
:01024D0003AD
:01024E0002AD
:01024F0001AD
:01025000109D
:010251000F9D
:010252000E9D
:010253000D9D
:010254000C9D
:010255000B9D
:010256000A9D
:01025700099D
:01025800089D
:01025900079D
:01025A00069D
:01025B00059D
:01025C00049D
:01025D00039D
:01025E00029D
:01025F00019D
:010260000F8E
:010261000E8E
:010262000D8E
:010263000C8E
:010264000B8E
:010265000A8E
:01026600098E
:01026700088E
:01026800078E
:01026900068E
:01026A00058E
:01026B00048E
:01026C00038E
:01026D00028E
:01026E00018E
:01026F00008E
:010270000F7E
:010271000E7E
:010272000D7E
:010273000C7E
:010274000B7E
:010275000A7E
:01027600097E
:01027700087E
:01027800077E
:01027900067E
:01027A00057E
:01027B00047E
:01027C00037E
:01027D00027E
:01027E00017E
:01027F00007E
:010280000F6E
:010281000E6E
:010282000D6E
:010283000C6E
:010284000B6E
:010285000A6E
:01028600096E
:01028700086E
:01028800076E
:01028900066E
:01028A00056E
:01028B00046E
:01028C00036E
:01028D00026E
:01028E00016E
:01028F00006E
:010290000F5E
:010291000E5E
:010292000D5E
:010293000C5E
:010294000B5E
:010295000A5E
:01029600095E
:01029700085E
:01029800075E
:01029900065E
:01029A00055E
:01029B00045E
:01029C00035E
:01029D00025E
:01029E00015E
:01029F00005E
:0102A0000E4F
:0102A1000E4E
:0102A2000D4E
:0102A3000C4E
:0102A4000B4E
:0102A5000A4E
:0102A600094E
:0102A700084E
:0102A800074E
:0102A900064E
:0102AA00054E
:0102AB00044E
:0102AC00034E
:0102AD00024E
:0102AE00014E
:0102AF00004E
:0102B0000E3F
:0102B1000D3F
:0102B2000C3F
:0102B3000B3F
:0102B4000B3E
:0102B5000A3E
:0102B600093E
:0102B700083E
:0102B800073E
:0102B900063E
:0102BA00053E
:0102BB00043E
:0102BC00033E
:0102BD00023E
:0102BE00013E
:0102BF00003E
:0102C0000E2F
:0102C1000D2F
:0102C2000C2F
:0102C3000B2F
:0102C4000A2F
:0102C5000A2E
:0102C600092E
:0102C700082E
:0102C800072E
:0102C900062E
:0102CA00052E
:0102CB00042E
:0102CC00032E
:0102CD00022E
:0102CE00012E
:0102CF00002E
:0102D0000E1F
:0102D1000D1F
:0102D2000C1F
:0102D3000B1F
:0102D4000A1F
:0102D500091F
:0102D600081F
:0102D700081E
:0102D800071E
:0102D900061E
:0102DA00051E
:0102DB00041E
:0102DC00031E
:0102DD00021E
:0102DE00011E
:0102DF00001E
:0102E0000E0F
:0102E1000D0F
:0102E2000C0F
:0102E3000B0F
:0102E4000A0F
:0102E500090F
:0102E600080F
:0102E700070F
:0102E800070E
:0102E900060E
:0102EA00050E
:0102EB00040E
:0102EC00030E
:0102ED00020E
:0102EE00010E
:0102EF00000E
:0102F0000D00
:0102F1000DFF
:0102F2000CFF
:0102F3000BFF
:0102F4000AFF
:0102F50009FF
:0102F60008FF
:0102F70007FF
:0102F80007FE
:0102F90006FE
:0102FA0005FE
:0102FB0004FE
:0102FC0003FE
:0102FD0002FE
:0102FE0001FE
:0102FF0000FE
:010300000DEF
:010301000CEF
:010302000CEE
:010303000BEE
:010304000AEE
:0103050009EE
:0103060008EE
:0103070007EE
:0103080006EE
:0103090006ED
:01030A0005ED
:01030B0004ED
:01030C0003ED
:01030D0002ED
:01030E0001ED
:01030F0000ED
:010310000DDF
:010311000CDF
:010312000BDF
:010313000BDE
:010314000ADE
:0103150009DE
:0103160008DE
:0103170007DE
:0103180006DE
:0103190006DD
:01031A0005DD
:01031B0004DD
:01031C0003DD
:01031D0002DD
:01031E0001DD
:01031F0000DD
:010320000DCF
:010321000CCF
:010322000BCF
:010323000ACF
:010324000ACE
:0103250009CE
:0103260008CE
:0103270007CE
:0103280006CE
:0103290005CE
:01032A0005CD
:01032B0004CD
:01032C0003CD
:01032D0002CD
:01032E0001CD
:01032F0000CD
:010330000DBF
:010331000CBF
:010332000BBF
:010333000ABF
:0103340009BF
:0103350009BE
:0103360008BE
:0103370007BE
:0103380006BE
:0103390005BE
:01033A0005BD
:01033B0004BD
:01033C0003BD
:01033D0002BD
:01033E0001BD
:01033F0000BD
:010340000DAF
:010341000CAF
:010342000BAF
:010343000AAF
:0103440009AF
:0103450009AE
:0103460008AE
:0103470007AE
:0103480006AE
:0103490005AE
:01034A0004AE
:01034B0004AD
:01034C0003AD
:01034D0002AD
:01034E0001AD
:01034F0000AD
:010350000CA0
:010351000C9F
:010352000B9F
:010353000A9F
:01035400099F
:01035500089F
:01035600089E
:01035700079E
:01035800069E
:01035900059E
:01035A00049E
:01035B00049D
:01035C00039D
:01035D00029D
:01035E00019D
:01035F00009D
:010360000C90
:010361000C8F
:010362000B8F
:010363000A8F
:01036400098F
:01036500088F
:01036600088E
:01036700078E
:01036800068E
:01036900058E
:01036A00048E
:01036B00048D
:01036C00038D
:01036D00028D
:01036E00018D
:01036F00008D
:010370000C80
:010371000B80
:010372000B7F
:010373000A7F
:01037400097F
:01037500087F
:01037600077F
:01037700077E
:01037800067E
:01037900057E
:01037A00047E
:01037B00047D
:01037C00037D
:01037D00027D
:01037E00017D
:01037F00007D
:010380000C70
:010381000B70
:010382000A70
:010383000A6F
:01038400096F
:01038500086F
:01038600076F
:01038700076E
:01038800066E
:01038900056E
:01038A00046E
:01038B00036E
:01038C00036D
:01038D00026D
:01038E00016D
:01038F00006D
:010390000C60
:010391000B60
:010392000A60
:010393000A5F
:01039400095F
:01039500085F
:01039600075F
:01039700065F
:01039800065E
:01039900055E
:01039A00045E
:01039B00035E
:01039C00035D
:01039D00025D
:01039E00015D
:01039F00005D
:0103A0000C50
:0103A1000B50
:0103A2000A50
:0103A3000950
:0103A400094F
:0103A500084F
:0103A600074F
:0103A700064F
:0103A800064E
:0103A900054E
:0103AA00044E
:0103AB00034E
:0103AC00034D
:0103AD00024D
:0103AE00014D
:0103AF00004D
:0103B0000C40
:0103B1000B40
:0103B2000A40
:0103B3000940
:0103B400093F
:0103B500083F
:0103B600073F
:0103B700063F
:0103B800063E
:0103B900053E
:0103BA00043E
:0103BB00033E
:0103BC00033D
:0103BD00023D
:0103BE00013D
:0103BF00003D
:0103C0000B31
:0103C1000B30
:0103C2000A30
:0103C3000930
:0103C4000830
:0103C500082F
:0103C600072F
:0103C700062F
:0103C800062E
:0103C900052E
:0103CA00042E
:0103CB00032E
:0103CC00032D
:0103CD00022D
:0103CE00012D
:0103CF00002D
:0103D0000B21
:0103D1000B20
:0103D2000A20
:0103D3000920
:0103D4000820
:0103D500081F
:0103D600071F
:0103D700061F
:0103D800051F
:0103D900051E
:0103DA00041E
:0103DB00031E
:0103DC00031D
:0103DD00021D
:0103DE00011D
:0103DF00001D
:0103E0000B11
:0103E1000A11
:0103E2000A10
:0103E3000910
:0103E4000810
:0103E500080F
:0103E600070F
:0103E700060F
:0103E800050F
:0103E900050E
:0103EA00040E
:0103EB00030E
:0103EC00030D
:0103ED00020D
:0103EE00010D
:0103EF00000D
:0103F0000B01
:0103F1000A01
:0103F2000A00
:0103F3000900
:0103F4000800
:0103F5000700
:0103F60007FF
:0103F70006FF
:0103F80005FF
:0103F90005FE
:0103FA0004FE
:0103FB0003FE
:0103FC0002FE
:0103FD0002FD
:0103FE0001FD
:0103FF0000FD
:00000001ff
