:020000040000FA
:0200000001FFFE
:0200010001FFFD
:0200020001FFFC
:0200030001FFFB
:0200040001FFFA
:0200050001FFF9
:0200060001FFF8
:0200070001FFF7
:0200080001FFF6
:0200090001FFF5
:02000A0001FFF4
:02000B0001FFF3
:02000C0001FFF2
:02000D0001FFF1
:02000E0001FFF0
:02000F0001FFEF
:0200100001FEEF
:0200110001FEEE
:0200120001FEED
:0200130001FEEC
:0200140001FEEB
:0200150001FEEA
:0200160001FEE9
:0200170001FEE8
:0200180001FEE7
:0200190001FEE6
:02001A0001FEE5
:02001B0001FEE4
:02001C0001FEE3
:02001D0001FEE2
:02001E0001FEE1
:02001F0001FEE0
:0200200001FDE0
:0200210001FDDF
:0200220001FDDE
:0200230001FDDD
:0200240001FDDC
:0200250001FDDB
:0200260001FDDA
:0200270001FDD9
:0200280001FDD8
:0200290001FDD7
:02002A0001FDD6
:02002B0001FDD5
:02002C0001FDD4
:02002D0001FDD3
:02002E0001FDD2
:02002F0001FDD1
:0200300001FCD1
:0200310001FCD0
:0200320001FCCF
:0200330001FCCE
:0200340001FCCD
:0200350001FCCC
:0200360001FCCB
:0200370001FCCA
:0200380001FCC9
:0200390001FCC8
:02003A0001FCC7
:02003B0001FCC6
:02003C0001FCC5
:02003D0001FCC4
:02003E0001FCC3
:02003F0001FCC2
:0200400001FCC1
:0200410001FBC1
:0200420001FBC0
:0200430001FBBF
:0200440001FBBE
:0200450001FBBD
:0200460001FBBC
:0200470001FBBB
:0200480001FBBA
:0200490001FBB9
:02004A0001FBB8
:02004B0001FBB7
:02004C0001FBB6
:02004D0001FBB5
:02004E0001FBB4
:02004F0001FBB3
:0200500001FBB2
:0200510001FAB2
:0200520001FAB1
:0200530001FAB0
:0200540001FAAF
:0200550001FAAE
:0200560001FAAD
:0200570001FAAC
:0200580001FAAB
:0200590001FAAA
:02005A0001FAA9
:02005B0001FAA8
:02005C0001FAA7
:02005D0001FAA6
:02005E0001FAA5
:02005F0001FAA4
:0200600001FAA3
:0200610001FAA2
:0200620001F9A2
:0200630001F9A1
:0200640001F9A0
:0200650001F99F
:0200660001F99E
:0200670001F99D
:0200680001F99C
:0200690001F99B
:02006A0001F99A
:02006B0001F999
:02006C0001F998
:02006D0001F997
:02006E0001F996
:02006F0001F995
:0200700001F994
:0200710001F993
:0200720001F893
:0200730001F892
:0200740001F891
:0200750001F890
:0200760001F88F
:0200770001F88E
:0200780001F88D
:0200790001F88C
:02007A0001F88B
:02007B0001F88A
:02007C0001F889
:02007D0001F888
:02007E0001F887
:02007F0001F886
:0200800001F885
:0200810001F884
:0200820001F883
:0200830001F783
:0200840001F782
:0200850001F781
:0200860001F780
:0200870001F77F
:0200880001F77E
:0200890001F77D
:02008A0001F77C
:02008B0001F77B
:02008C0001F77A
:02008D0001F779
:02008E0001F778
:02008F0001F777
:0200900001F776
:0200910001F775
:0200920001F774
:0200930001F773
:0200940001F673
:0200950001F672
:0200960001F671
:0200970001F670
:0200980001F66F
:0200990001F66E
:02009A0001F66D
:02009B0001F66C
:02009C0001F66B
:02009D0001F66A
:02009E0001F669
:02009F0001F668
:0200A00001F667
:0200A10001F666
:0200A20001F665
:0200A30001F664
:0200A40001F663
:0200A50001F563
:0200A60001F562
:0200A70001F561
:0200A80001F560
:0200A90001F55F
:0200AA0001F55E
:0200AB0001F55D
:0200AC0001F55C
:0200AD0001F55B
:0200AE0001F55A
:0200AF0001F559
:0200B00001F558
:0200B10001F557
:0200B20001F556
:0200B30001F555
:0200B40001F554
:0200B50001F553
:0200B60001F453
:0200B70001F452
:0200B80001F451
:0200B90001F450
:0200BA0001F44F
:0200BB0001F44E
:0200BC0001F44D
:0200BD0001F44C
:0200BE0001F44B
:0200BF0001F44A
:0200C00001F449
:0200C10001F448
:0200C20001F447
:0200C30001F446
:0200C40001F445
:0200C50001F444
:0200C60001F443
:0200C70001F343
:0200C80001F342
:0200C90001F341
:0200CA0001F340
:0200CB0001F33F
:0200CC0001F33E
:0200CD0001F33D
:0200CE0001F33C
:0200CF0001F33B
:0200D00001F33A
:0200D10001F339
:0200D20001F338
:0200D30001F337
:0200D40001F336
:0200D50001F335
:0200D60001F334
:0200D70001F333
:0200D80001F233
:0200D90001F232
:0200DA0001F231
:0200DB0001F230
:0200DC0001F22F
:0200DD0001F22E
:0200DE0001F22D
:0200DF0001F22C
:0200E00001F22B
:0200E10001F22A
:0200E20001F229
:0200E30001F228
:0200E40001F227
:0200E50001F226
:0200E60001F225
:0200E70001F224
:0200E80001F223
:0200E90001F222
:0200EA0001F122
:0200EB0001F121
:0200EC0001F120
:0200ED0001F11F
:0200EE0001F11E
:0200EF0001F11D
:0200F00001F11C
:0200F10001F11B
:0200F20001F11A
:0200F30001F119
:0200F40001F118
:0200F50001F117
:0200F60001F116
:0200F70001F115
:0200F80001F114
:0200F90001F113
:0200FA0001F112
:0200FB0001F012
:0200FC0001F011
:0200FD0001F010
:0200FE0001F00F
:0200FF0001F00E
:0201000001F00C
:0201010001F00B
:0201020001F00A
:0201030001F009
:0201040001F008
:0201050001F007
:0201060001F006
:0201070001F005
:0201080001F004
:0201090001F003
:02010A0001F002
:02010B0001F001
:02010C0001F000
:02010D0001EF00
:02010E0001EFFF
:02010F0001EFFE
:0201100001EFFD
:0201110001EFFC
:0201120001EFFB
:0201130001EFFA
:0201140001EFF9
:0201150001EFF8
:0201160001EFF7
:0201170001EFF6
:0201180001EFF5
:0201190001EFF4
:02011A0001EFF3
:02011B0001EFF2
:02011C0001EFF1
:02011D0001EFF0
:02011E0001EEF0
:02011F0001EEEF
:0201200001EEEE
:0201210001EEED
:0201220001EEEC
:0201230001EEEB
:0201240001EEEA
:0201250001EEE9
:0201260001EEE8
:0201270001EEE7
:0201280001EEE6
:0201290001EEE5
:02012A0001EEE4
:02012B0001EEE3
:02012C0001EEE2
:02012D0001EEE1
:02012E0001EEE0
:02012F0001EEDF
:0201300001EDDF
:0201310001EDDE
:0201320001EDDD
:0201330001EDDC
:0201340001EDDB
:0201350001EDDA
:0201360001EDD9
:0201370001EDD8
:0201380001EDD7
:0201390001EDD6
:02013A0001EDD5
:02013B0001EDD4
:02013C0001EDD3
:02013D0001EDD2
:02013E0001EDD1
:02013F0001EDD0
:0201400001EDCF
:0201410001EDCE
:0201420001ECCE
:0201430001ECCD
:0201440001ECCC
:0201450001ECCB
:0201460001ECCA
:0201470001ECC9
:0201480001ECC8
:0201490001ECC7
:02014A0001ECC6
:02014B0001ECC5
:02014C0001ECC4
:02014D0001ECC3
:02014E0001ECC2
:02014F0001ECC1
:0201500001ECC0
:0201510001ECBF
:0201520001ECBE
:0201530001ECBD
:0201540001EBBD
:0201550001EBBC
:0201560001EBBB
:0201570001EBBA
:0201580001EBB9
:0201590001EBB8
:02015A0001EBB7
:02015B0001EBB6
:02015C0001EBB5
:02015D0001EBB4
:02015E0001EBB3
:02015F0001EBB2
:0201600001EBB1
:0201610001EBB0
:0201620001EBAF
:0201630001EBAE
:0201640001EBAD
:0201650001EBAC
:0201660001EAAC
:0201670001EAAB
:0201680001EAAA
:0201690001EAA9
:02016A0001EAA8
:02016B0001EAA7
:02016C0001EAA6
:02016D0001EAA5
:02016E0001EAA4
:02016F0001EAA3
:0201700001EAA2
:0201710001EAA1
:0201720001EAA0
:0201730001EA9F
:0201740001EA9E
:0201750001EA9D
:0201760001EA9C
:0201770001EA9B
:0201780001E99B
:0201790001E99A
:02017A0001E999
:02017B0001E998
:02017C0001E997
:02017D0001E996
:02017E0001E995
:02017F0001E994
:0201800001E993
:0201810001E992
:0201820001E991
:0201830001E990
:0201840001E98F
:0201850001E98E
:0201860001E98D
:0201870001E98C
:0201880001E98B
:0201890001E98A
:02018A0001E88A
:02018B0001E889
:02018C0001E888
:02018D0001E887
:02018E0001E886
:02018F0001E885
:0201900001E884
:0201910001E883
:0201920001E882
:0201930001E881
:0201940001E880
:0201950001E87F
:0201960001E87E
:0201970001E87D
:0201980001E87C
:0201990001E87B
:02019A0001E87A
:02019B0001E879
:02019C0001E878
:02019D0001E778
:02019E0001E777
:02019F0001E776
:0201A00001E775
:0201A10001E774
:0201A20001E773
:0201A30001E772
:0201A40001E771
:0201A50001E770
:0201A60001E76F
:0201A70001E76E
:0201A80001E76D
:0201A90001E76C
:0201AA0001E76B
:0201AB0001E76A
:0201AC0001E769
:0201AD0001E768
:0201AE0001E767
:0201AF0001E667
:0201B00001E666
:0201B10001E665
:0201B20001E664
:0201B30001E663
:0201B40001E662
:0201B50001E661
:0201B60001E660
:0201B70001E65F
:0201B80001E65E
:0201B90001E65D
:0201BA0001E65C
:0201BB0001E65B
:0201BC0001E65A
:0201BD0001E659
:0201BE0001E658
:0201BF0001E657
:0201C00001E656
:0201C10001E655
:0201C20001E555
:0201C30001E554
:0201C40001E553
:0201C50001E552
:0201C60001E551
:0201C70001E550
:0201C80001E54F
:0201C90001E54E
:0201CA0001E54D
:0201CB0001E54C
:0201CC0001E54B
:0201CD0001E54A
:0201CE0001E549
:0201CF0001E548
:0201D00001E547
:0201D10001E546
:0201D20001E545
:0201D30001E544
:0201D40001E543
:0201D50001E443
:0201D60001E442
:0201D70001E441
:0201D80001E440
:0201D90001E43F
:0201DA0001E43E
:0201DB0001E43D
:0201DC0001E43C
:0201DD0001E43B
:0201DE0001E43A
:0201DF0001E439
:0201E00001E438
:0201E10001E437
:0201E20001E436
:0201E30001E435
:0201E40001E434
:0201E50001E433
:0201E60001E432
:0201E70001E431
:0201E80001E331
:0201E90001E330
:0201EA0001E32F
:0201EB0001E32E
:0201EC0001E32D
:0201ED0001E32C
:0201EE0001E32B
:0201EF0001E32A
:0201F00001E329
:0201F10001E328
:0201F20001E327
:0201F30001E326
:0201F40001E325
:0201F50001E324
:0201F60001E323
:0201F70001E322
:0201F80001E321
:0201F90001E320
:0201FA0001E31F
:0201FB0001E21F
:0201FC0001E21E
:0201FD0001E21D
:0201FE0001E21C
:0201FF0001E21B
:0202000001E219
:0202010001E218
:0202020001E217
:0202030001E216
:0202040001E215
:0202050001E214
:0202060001E213
:0202070001E212
:0202080001E211
:0202090001E210
:02020A0001E20F
:02020B0001E20E
:02020C0001E20D
:02020D0001E20C
:02020E0001E10C
:02020F0001E10B
:0202100001E10A
:0202110001E109
:0202120001E108
:0202130001E107
:0202140001E106
:0202150001E105
:0202160001E104
:0202170001E103
:0202180001E102
:0202190001E101
:02021A0001E100
:02021B0001E1FF
:02021C0001E1FE
:02021D0001E1FD
:02021E0001E1FC
:02021F0001E1FB
:0202200001E1FA
:0202210001E0FA
:0202220001E0F9
:0202230001E0F8
:0202240001E0F7
:0202250001E0F6
:0202260001E0F5
:0202270001E0F4
:0202280001E0F3
:0202290001E0F2
:02022A0001E0F1
:02022B0001E0F0
:02022C0001E0EF
:02022D0001E0EE
:02022E0001E0ED
:02022F0001E0EC
:0202300001E0EB
:0202310001E0EA
:0202320001E0E9
:0202330001E0E8
:0202340001DFE8
:0202350001DFE7
:0202360001DFE6
:0202370001DFE5
:0202380001DFE4
:0202390001DFE3
:02023A0001DFE2
:02023B0001DFE1
:02023C0001DFE0
:02023D0001DFDF
:02023E0001DFDE
:02023F0001DFDD
:0202400001DFDC
:0202410001DFDB
:0202420001DFDA
:0202430001DFD9
:0202440001DFD8
:0202450001DFD7
:0202460001DFD6
:0202470001DFD5
:0202480001DED5
:0202490001DED4
:02024A0001DED3
:02024B0001DED2
:02024C0001DED1
:02024D0001DED0
:02024E0001DECF
:02024F0001DECE
:0202500001DECD
:0202510001DECC
:0202520001DECB
:0202530001DECA
:0202540001DEC9
:0202550001DEC8
:0202560001DEC7
:0202570001DEC6
:0202580001DEC5
:0202590001DEC4
:02025A0001DEC3
:02025B0001DDC3
:02025C0001DDC2
:02025D0001DDC1
:02025E0001DDC0
:02025F0001DDBF
:0202600001DDBE
:0202610001DDBD
:0202620001DDBC
:0202630001DDBB
:0202640001DDBA
:0202650001DDB9
:0202660001DDB8
:0202670001DDB7
:0202680001DDB6
:0202690001DDB5
:02026A0001DDB4
:02026B0001DDB3
:02026C0001DDB2
:02026D0001DDB1
:02026E0001DDB0
:02026F0001DCB0
:0202700001DCAF
:0202710001DCAE
:0202720001DCAD
:0202730001DCAC
:0202740001DCAB
:0202750001DCAA
:0202760001DCA9
:0202770001DCA8
:0202780001DCA7
:0202790001DCA6
:02027A0001DCA5
:02027B0001DCA4
:02027C0001DCA3
:02027D0001DCA2
:02027E0001DCA1
:02027F0001DCA0
:0202800001DC9F
:0202810001DC9E
:0202820001DC9D
:0202830001DB9D
:0202840001DB9C
:0202850001DB9B
:0202860001DB9A
:0202870001DB99
:0202880001DB98
:0202890001DB97
:02028A0001DB96
:02028B0001DB95
:02028C0001DB94
:02028D0001DB93
:02028E0001DB92
:02028F0001DB91
:0202900001DB90
:0202910001DB8F
:0202920001DB8E
:0202930001DB8D
:0202940001DB8C
:0202950001DB8B
:0202960001DB8A
:0202970001DA8A
:0202980001DA89
:0202990001DA88
:02029A0001DA87
:02029B0001DA86
:02029C0001DA85
:02029D0001DA84
:02029E0001DA83
:02029F0001DA82
:0202A00001DA81
:0202A10001DA80
:0202A20001DA7F
:0202A30001DA7E
:0202A40001DA7D
:0202A50001DA7C
:0202A60001DA7B
:0202A70001DA7A
:0202A80001DA79
:0202A90001DA78
:0202AA0001DA77
:0202AB0001D977
:0202AC0001D976
:0202AD0001D975
:0202AE0001D974
:0202AF0001D973
:0202B00001D972
:0202B10001D971
:0202B20001D970
:0202B30001D96F
:0202B40001D96E
:0202B50001D96D
:0202B60001D96C
:0202B70001D96B
:0202B80001D96A
:0202B90001D969
:0202BA0001D968
:0202BB0001D967
:0202BC0001D966
:0202BD0001D965
:0202BE0001D964
:0202BF0001D864
:0202C00001D863
:0202C10001D862
:0202C20001D861
:0202C30001D860
:0202C40001D85F
:0202C50001D85E
:0202C60001D85D
:0202C70001D85C
:0202C80001D85B
:0202C90001D85A
:0202CA0001D859
:0202CB0001D858
:0202CC0001D857
:0202CD0001D856
:0202CE0001D855
:0202CF0001D854
:0202D00001D853
:0202D10001D852
:0202D20001D851
:0202D30001D850
:0202D40001D750
:0202D50001D74F
:0202D60001D74E
:0202D70001D74D
:0202D80001D74C
:0202D90001D74B
:0202DA0001D74A
:0202DB0001D749
:0202DC0001D748
:0202DD0001D747
:0202DE0001D746
:0202DF0001D745
:0202E00001D744
:0202E10001D743
:0202E20001D742
:0202E30001D741
:0202E40001D740
:0202E50001D73F
:0202E60001D73E
:0202E70001D73D
:0202E80001D63D
:0202E90001D63C
:0202EA0001D63B
:0202EB0001D63A
:0202EC0001D639
:0202ED0001D638
:0202EE0001D637
:0202EF0001D636
:0202F00001D635
:0202F10001D634
:0202F20001D633
:0202F30001D632
:0202F40001D631
:0202F50001D630
:0202F60001D62F
:0202F70001D62E
:0202F80001D62D
:0202F90001D62C
:0202FA0001D62B
:0202FB0001D62A
:0202FC0001D629
:0202FD0001D529
:0202FE0001D528
:0202FF0001D527
:0203000001D525
:0203010001D524
:0203020001D523
:0203030001D522
:0203040001D521
:0203050001D520
:0203060001D51F
:0203070001D51E
:0203080001D51D
:0203090001D51C
:02030A0001D51B
:02030B0001D51A
:02030C0001D519
:02030D0001D518
:02030E0001D517
:02030F0001D516
:0203100001D515
:0203110001D514
:0203120001D414
:0203130001D413
:0203140001D412
:0203150001D411
:0203160001D410
:0203170001D40F
:0203180001D40E
:0203190001D40D
:02031A0001D40C
:02031B0001D40B
:02031C0001D40A
:02031D0001D409
:02031E0001D408
:02031F0001D407
:0203200001D406
:0203210001D405
:0203220001D404
:0203230001D403
:0203240001D402
:0203250001D401
:0203260001D301
:0203270001D300
:0203280001D3FF
:0203290001D3FE
:02032A0001D3FD
:02032B0001D3FC
:02032C0001D3FB
:02032D0001D3FA
:02032E0001D3F9
:02032F0001D3F8
:0203300001D3F7
:0203310001D3F6
:0203320001D3F5
:0203330001D3F4
:0203340001D3F3
:0203350001D3F2
:0203360001D3F1
:0203370001D3F0
:0203380001D3EF
:0203390001D3EE
:02033A0001D3ED
:02033B0001D2ED
:02033C0001D2EC
:02033D0001D2EB
:02033E0001D2EA
:02033F0001D2E9
:0203400001D2E8
:0203410001D2E7
:0203420001D2E6
:0203430001D2E5
:0203440001D2E4
:0203450001D2E3
:0203460001D2E2
:0203470001D2E1
:0203480001D2E0
:0203490001D2DF
:02034A0001D2DE
:02034B0001D2DD
:02034C0001D2DC
:02034D0001D2DB
:02034E0001D2DA
:02034F0001D2D9
:0203500001D2D8
:0203510001D1D8
:0203520001D1D7
:0203530001D1D6
:0203540001D1D5
:0203550001D1D4
:0203560001D1D3
:0203570001D1D2
:0203580001D1D1
:0203590001D1D0
:02035A0001D1CF
:02035B0001D1CE
:02035C0001D1CD
:02035D0001D1CC
:02035E0001D1CB
:02035F0001D1CA
:0203600001D1C9
:0203610001D1C8
:0203620001D1C7
:0203630001D1C6
:0203640001D1C5
:0203650001D1C4
:0203660001D0C4
:0203670001D0C3
:0203680001D0C2
:0203690001D0C1
:02036A0001D0C0
:02036B0001D0BF
:02036C0001D0BE
:02036D0001D0BD
:02036E0001D0BC
:02036F0001D0BB
:0203700001D0BA
:0203710001D0B9
:0203720001D0B8
:0203730001D0B7
:0203740001D0B6
:0203750001D0B5
:0203760001D0B4
:0203770001D0B3
:0203780001D0B2
:0203790001D0B1
:02037A0001D0B0
:02037B0001CFB0
:02037C0001CFAF
:02037D0001CFAE
:02037E0001CFAD
:02037F0001CFAC
:0203800001CFAB
:0203810001CFAA
:0203820001CFA9
:0203830001CFA8
:0203840001CFA7
:0203850001CFA6
:0203860001CFA5
:0203870001CFA4
:0203880001CFA3
:0203890001CFA2
:02038A0001CFA1
:02038B0001CFA0
:02038C0001CF9F
:02038D0001CF9E
:02038E0001CF9D
:02038F0001CF9C
:0203900001CF9B
:0203910001CE9B
:0203920001CE9A
:0203930001CE99
:0203940001CE98
:0203950001CE97
:0203960001CE96
:0203970001CE95
:0203980001CE94
:0203990001CE93
:02039A0001CE92
:02039B0001CE91
:02039C0001CE90
:02039D0001CE8F
:02039E0001CE8E
:02039F0001CE8D
:0203A00001CE8C
:0203A10001CE8B
:0203A20001CE8A
:0203A30001CE89
:0203A40001CE88
:0203A50001CE87
:0203A60001CE86
:0203A70001CD86
:0203A80001CD85
:0203A90001CD84
:0203AA0001CD83
:0203AB0001CD82
:0203AC0001CD81
:0203AD0001CD80
:0203AE0001CD7F
:0203AF0001CD7E
:0203B00001CD7D
:0203B10001CD7C
:0203B20001CD7B
:0203B30001CD7A
:0203B40001CD79
:0203B50001CD78
:0203B60001CD77
:0203B70001CD76
:0203B80001CD75
:0203B90001CD74
:0203BA0001CD73
:0203BB0001CD72
:0203BC0001CC72
:0203BD0001CC71
:0203BE0001CC70
:0203BF0001CC6F
:0203C00001CC6E
:0203C10001CC6D
:0203C20001CC6C
:0203C30001CC6B
:0203C40001CC6A
:0203C50001CC69
:0203C60001CC68
:0203C70001CC67
:0203C80001CC66
:0203C90001CC65
:0203CA0001CC64
:0203CB0001CC63
:0203CC0001CC62
:0203CD0001CC61
:0203CE0001CC60
:0203CF0001CC5F
:0203D00001CC5E
:0203D10001CC5D
:0203D20001CB5D
:0203D30001CB5C
:0203D40001CB5B
:0203D50001CB5A
:0203D60001CB59
:0203D70001CB58
:0203D80001CB57
:0203D90001CB56
:0203DA0001CB55
:0203DB0001CB54
:0203DC0001CB53
:0203DD0001CB52
:0203DE0001CB51
:0203DF0001CB50
:0203E00001CB4F
:0203E10001CB4E
:0203E20001CB4D
:0203E30001CB4C
:0203E40001CB4B
:0203E50001CB4A
:0203E60001CB49
:0203E70001CB48
:0203E80001CB47
:0203E90001CA47
:0203EA0001CA46
:0203EB0001CA45
:0203EC0001CA44
:0203ED0001CA43
:0203EE0001CA42
:0203EF0001CA41
:0203F00001CA40
:0203F10001CA3F
:0203F20001CA3E
:0203F30001CA3D
:0203F40001CA3C
:0203F50001CA3B
:0203F60001CA3A
:0203F70001CA39
:0203F80001CA38
:0203F90001CA37
:0203FA0001CA36
:0203FB0001CA35
:0203FC0001CA34
:0203FD0001CA33
:0203FE0001CA32
:0203FF0001C932
:0204000001C930
:0204010001C92F
:0204020001C92E
:0204030001C92D
:0204040001C92C
:0204050001C92B
:0204060001C92A
:0204070001C929
:0204080001C928
:0204090001C927
:02040A0001C926
:02040B0001C925
:02040C0001C924
:02040D0001C923
:02040E0001C922
:02040F0001C921
:0204100001C920
:0204110001C91F
:0204120001C91E
:0204130001C91D
:0204140001C91C
:0204150001C81C
:0204160001C81B
:0204170001C81A
:0204180001C819
:0204190001C818
:02041A0001C817
:02041B0001C816
:02041C0001C815
:02041D0001C814
:02041E0001C813
:02041F0001C812
:0204200001C811
:0204210001C810
:0204220001C80F
:0204230001C80E
:0204240001C80D
:0204250001C80C
:0204260001C80B
:0204270001C80A
:0204280001C809
:0204290001C808
:02042A0001C807
:02042B0001C806
:02042C0001C706
:02042D0001C705
:02042E0001C704
:02042F0001C703
:0204300001C702
:0204310001C701
:0204320001C700
:0204330001C7FF
:0204340001C7FE
:0204350001C7FD
:0204360001C7FC
:0204370001C7FB
:0204380001C7FA
:0204390001C7F9
:02043A0001C7F8
:02043B0001C7F7
:02043C0001C7F6
:02043D0001C7F5
:02043E0001C7F4
:02043F0001C7F3
:0204400001C7F2
:0204410001C7F1
:0204420001C7F0
:0204430001C6F0
:0204440001C6EF
:0204450001C6EE
:0204460001C6ED
:0204470001C6EC
:0204480001C6EB
:0204490001C6EA
:02044A0001C6E9
:02044B0001C6E8
:02044C0001C6E7
:02044D0001C6E6
:02044E0001C6E5
:02044F0001C6E4
:0204500001C6E3
:0204510001C6E2
:0204520001C6E1
:0204530001C6E0
:0204540001C6DF
:0204550001C6DE
:0204560001C6DD
:0204570001C6DC
:0204580001C6DB
:0204590001C5DB
:02045A0001C5DA
:02045B0001C5D9
:02045C0001C5D8
:02045D0001C5D7
:02045E0001C5D6
:02045F0001C5D5
:0204600001C5D4
:0204610001C5D3
:0204620001C5D2
:0204630001C5D1
:0204640001C5D0
:0204650001C5CF
:0204660001C5CE
:0204670001C5CD
:0204680001C5CC
:0204690001C5CB
:02046A0001C5CA
:02046B0001C5C9
:02046C0001C5C8
:02046D0001C5C7
:02046E0001C5C6
:02046F0001C5C5
:0204700001C4C5
:0204710001C4C4
:0204720001C4C3
:0204730001C4C2
:0204740001C4C1
:0204750001C4C0
:0204760001C4BF
:0204770001C4BE
:0204780001C4BD
:0204790001C4BC
:02047A0001C4BB
:02047B0001C4BA
:02047C0001C4B9
:02047D0001C4B8
:02047E0001C4B7
:02047F0001C4B6
:0204800001C4B5
:0204810001C4B4
:0204820001C4B3
:0204830001C4B2
:0204840001C4B1
:0204850001C4B0
:0204860001C4AF
:0204870001C4AE
:0204880001C3AE
:0204890001C3AD
:02048A0001C3AC
:02048B0001C3AB
:02048C0001C3AA
:02048D0001C3A9
:02048E0001C3A8
:02048F0001C3A7
:0204900001C3A6
:0204910001C3A5
:0204920001C3A4
:0204930001C3A3
:0204940001C3A2
:0204950001C3A1
:0204960001C3A0
:0204970001C39F
:0204980001C39E
:0204990001C39D
:02049A0001C39C
:02049B0001C39B
:02049C0001C39A
:02049D0001C399
:02049E0001C398
:02049F0001C298
:0204A00001C297
:0204A10001C296
:0204A20001C295
:0204A30001C294
:0204A40001C293
:0204A50001C292
:0204A60001C291
:0204A70001C290
:0204A80001C28F
:0204A90001C28E
:0204AA0001C28D
:0204AB0001C28C
:0204AC0001C28B
:0204AD0001C28A
:0204AE0001C289
:0204AF0001C288
:0204B00001C287
:0204B10001C286
:0204B20001C285
:0204B30001C284
:0204B40001C283
:0204B50001C282
:0204B60001C182
:0204B70001C181
:0204B80001C180
:0204B90001C17F
:0204BA0001C17E
:0204BB0001C17D
:0204BC0001C17C
:0204BD0001C17B
:0204BE0001C17A
:0204BF0001C179
:0204C00001C178
:0204C10001C177
:0204C20001C176
:0204C30001C175
:0204C40001C174
:0204C50001C173
:0204C60001C172
:0204C70001C171
:0204C80001C170
:0204C90001C16F
:0204CA0001C16E
:0204CB0001C16D
:0204CC0001C16C
:0204CD0001C16B
:0204CE0001C06B
:0204CF0001C06A
:0204D00001C069
:0204D10001C068
:0204D20001C067
:0204D30001C066
:0204D40001C065
:0204D50001C064
:0204D60001C063
:0204D70001C062
:0204D80001C061
:0204D90001C060
:0204DA0001C05F
:0204DB0001C05E
:0204DC0001C05D
:0204DD0001C05C
:0204DE0001C05B
:0204DF0001C05A
:0204E00001C059
:0204E10001C058
:0204E20001C057
:0204E30001C056
:0204E40001C055
:0204E50001C054
:0204E60001BF54
:0204E70001BF53
:0204E80001BF52
:0204E90001BF51
:0204EA0001BF50
:0204EB0001BF4F
:0204EC0001BF4E
:0204ED0001BF4D
:0204EE0001BF4C
:0204EF0001BF4B
:0204F00001BF4A
:0204F10001BF49
:0204F20001BF48
:0204F30001BF47
:0204F40001BF46
:0204F50001BF45
:0204F60001BF44
:0204F70001BF43
:0204F80001BF42
:0204F90001BF41
:0204FA0001BF40
:0204FB0001BF3F
:0204FC0001BF3E
:0204FD0001BF3D
:0204FE0001BE3D
:0204FF0001BE3C
:0205000001BE3A
:0205010001BE39
:0205020001BE38
:0205030001BE37
:0205040001BE36
:0205050001BE35
:0205060001BE34
:0205070001BE33
:0205080001BE32
:0205090001BE31
:02050A0001BE30
:02050B0001BE2F
:02050C0001BE2E
:02050D0001BE2D
:02050E0001BE2C
:02050F0001BE2B
:0205100001BE2A
:0205110001BE29
:0205120001BE28
:0205130001BE27
:0205140001BE26
:0205150001BE25
:0205160001BD25
:0205170001BD24
:0205180001BD23
:0205190001BD22
:02051A0001BD21
:02051B0001BD20
:02051C0001BD1F
:02051D0001BD1E
:02051E0001BD1D
:02051F0001BD1C
:0205200001BD1B
:0205210001BD1A
:0205220001BD19
:0205230001BD18
:0205240001BD17
:0205250001BD16
:0205260001BD15
:0205270001BD14
:0205280001BD13
:0205290001BD12
:02052A0001BD11
:02052B0001BD10
:02052C0001BD0F
:02052D0001BD0E
:02052E0001BC0E
:02052F0001BC0D
:0205300001BC0C
:0205310001BC0B
:0205320001BC0A
:0205330001BC09
:0205340001BC08
:0205350001BC07
:0205360001BC06
:0205370001BC05
:0205380001BC04
:0205390001BC03
:02053A0001BC02
:02053B0001BC01
:02053C0001BC00
:02053D0001BCFF
:02053E0001BCFE
:02053F0001BCFD
:0205400001BCFC
:0205410001BCFB
:0205420001BCFA
:0205430001BCF9
:0205440001BCF8
:0205450001BCF7
:0205460001BCF6
:0205470001BBF6
:0205480001BBF5
:0205490001BBF4
:02054A0001BBF3
:02054B0001BBF2
:02054C0001BBF1
:02054D0001BBF0
:02054E0001BBEF
:02054F0001BBEE
:0205500001BBED
:0205510001BBEC
:0205520001BBEB
:0205530001BBEA
:0205540001BBE9
:0205550001BBE8
:0205560001BBE7
:0205570001BBE6
:0205580001BBE5
:0205590001BBE4
:02055A0001BBE3
:02055B0001BBE2
:02055C0001BBE1
:02055D0001BBE0
:02055E0001BBDF
:02055F0001BADF
:0205600001BADE
:0205610001BADD
:0205620001BADC
:0205630001BADB
:0205640001BADA
:0205650001BAD9
:0205660001BAD8
:0205670001BAD7
:0205680001BAD6
:0205690001BAD5
:02056A0001BAD4
:02056B0001BAD3
:02056C0001BAD2
:02056D0001BAD1
:02056E0001BAD0
:02056F0001BACF
:0205700001BACE
:0205710001BACD
:0205720001BACC
:0205730001BACB
:0205740001BACA
:0205750001BAC9
:0205760001BAC8
:0205770001BAC7
:0205780001B9C7
:0205790001B9C6
:02057A0001B9C5
:02057B0001B9C4
:02057C0001B9C3
:02057D0001B9C2
:02057E0001B9C1
:02057F0001B9C0
:0205800001B9BF
:0205810001B9BE
:0205820001B9BD
:0205830001B9BC
:0205840001B9BB
:0205850001B9BA
:0205860001B9B9
:0205870001B9B8
:0205880001B9B7
:0205890001B9B6
:02058A0001B9B5
:02058B0001B9B4
:02058C0001B9B3
:02058D0001B9B2
:02058E0001B9B1
:02058F0001B9B0
:0205900001B9AF
:0205910001B8AF
:0205920001B8AE
:0205930001B8AD
:0205940001B8AC
:0205950001B8AB
:0205960001B8AA
:0205970001B8A9
:0205980001B8A8
:0205990001B8A7
:02059A0001B8A6
:02059B0001B8A5
:02059C0001B8A4
:02059D0001B8A3
:02059E0001B8A2
:02059F0001B8A1
:0205A00001B8A0
:0205A10001B89F
:0205A20001B89E
:0205A30001B89D
:0205A40001B89C
:0205A50001B89B
:0205A60001B89A
:0205A70001B899
:0205A80001B898
:0205A90001B897
:0205AA0001B797
:0205AB0001B796
:0205AC0001B795
:0205AD0001B794
:0205AE0001B793
:0205AF0001B792
:0205B00001B791
:0205B10001B790
:0205B20001B78F
:0205B30001B78E
:0205B40001B78D
:0205B50001B78C
:0205B60001B78B
:0205B70001B78A
:0205B80001B789
:0205B90001B788
:0205BA0001B787
:0205BB0001B786
:0205BC0001B785
:0205BD0001B784
:0205BE0001B783
:0205BF0001B782
:0205C00001B781
:0205C10001B780
:0205C20001B77F
:0205C30001B77E
:0205C40001B67E
:0205C50001B67D
:0205C60001B67C
:0205C70001B67B
:0205C80001B67A
:0205C90001B679
:0205CA0001B678
:0205CB0001B677
:0205CC0001B676
:0205CD0001B675
:0205CE0001B674
:0205CF0001B673
:0205D00001B672
:0205D10001B671
:0205D20001B670
:0205D30001B66F
:0205D40001B66E
:0205D50001B66D
:0205D60001B66C
:0205D70001B66B
:0205D80001B66A
:0205D90001B669
:0205DA0001B668
:0205DB0001B667
:0205DC0001B666
:0205DD0001B566
:0205DE0001B565
:0205DF0001B564
:0205E00001B563
:0205E10001B562
:0205E20001B561
:0205E30001B560
:0205E40001B55F
:0205E50001B55E
:0205E60001B55D
:0205E70001B55C
:0205E80001B55B
:0205E90001B55A
:0205EA0001B559
:0205EB0001B558
:0205EC0001B557
:0205ED0001B556
:0205EE0001B555
:0205EF0001B554
:0205F00001B553
:0205F10001B552
:0205F20001B551
:0205F30001B550
:0205F40001B54F
:0205F50001B54E
:0205F60001B54D
:0205F70001B44D
:0205F80001B44C
:0205F90001B44B
:0205FA0001B44A
:0205FB0001B449
:0205FC0001B448
:0205FD0001B447
:0205FE0001B446
:0205FF0001B445
:0206000001B443
:0206010001B442
:0206020001B441
:0206030001B440
:0206040001B43F
:0206050001B43E
:0206060001B43D
:0206070001B43C
:0206080001B43B
:0206090001B43A
:02060A0001B439
:02060B0001B438
:02060C0001B437
:02060D0001B436
:02060E0001B435
:02060F0001B434
:0206100001B334
:0206110001B333
:0206120001B332
:0206130001B331
:0206140001B330
:0206150001B32F
:0206160001B32E
:0206170001B32D
:0206180001B32C
:0206190001B32B
:02061A0001B32A
:02061B0001B329
:02061C0001B328
:02061D0001B327
:02061E0001B326
:02061F0001B325
:0206200001B324
:0206210001B323
:0206220001B322
:0206230001B321
:0206240001B320
:0206250001B31F
:0206260001B31E
:0206270001B31D
:0206280001B31C
:0206290001B31B
:02062A0001B21B
:02062B0001B21A
:02062C0001B219
:02062D0001B218
:02062E0001B217
:02062F0001B216
:0206300001B215
:0206310001B214
:0206320001B213
:0206330001B212
:0206340001B211
:0206350001B210
:0206360001B20F
:0206370001B20E
:0206380001B20D
:0206390001B20C
:02063A0001B20B
:02063B0001B20A
:02063C0001B209
:02063D0001B208
:02063E0001B207
:02063F0001B206
:0206400001B205
:0206410001B204
:0206420001B203
:0206430001B202
:0206440001B201
:0206450001B101
:0206460001B100
:0206470001B1FF
:0206480001B1FE
:0206490001B1FD
:02064A0001B1FC
:02064B0001B1FB
:02064C0001B1FA
:02064D0001B1F9
:02064E0001B1F8
:02064F0001B1F7
:0206500001B1F6
:0206510001B1F5
:0206520001B1F4
:0206530001B1F3
:0206540001B1F2
:0206550001B1F1
:0206560001B1F0
:0206570001B1EF
:0206580001B1EE
:0206590001B1ED
:02065A0001B1EC
:02065B0001B1EB
:02065C0001B1EA
:02065D0001B1E9
:02065E0001B1E8
:02065F0001B0E8
:0206600001B0E7
:0206610001B0E6
:0206620001B0E5
:0206630001B0E4
:0206640001B0E3
:0206650001B0E2
:0206660001B0E1
:0206670001B0E0
:0206680001B0DF
:0206690001B0DE
:02066A0001B0DD
:02066B0001B0DC
:02066C0001B0DB
:02066D0001B0DA
:02066E0001B0D9
:02066F0001B0D8
:0206700001B0D7
:0206710001B0D6
:0206720001B0D5
:0206730001B0D4
:0206740001B0D3
:0206750001B0D2
:0206760001B0D1
:0206770001B0D0
:0206780001B0CF
:0206790001B0CE
:02067A0001AFCE
:02067B0001AFCD
:02067C0001AFCC
:02067D0001AFCB
:02067E0001AFCA
:02067F0001AFC9
:0206800001AFC8
:0206810001AFC7
:0206820001AFC6
:0206830001AFC5
:0206840001AFC4
:0206850001AFC3
:0206860001AFC2
:0206870001AFC1
:0206880001AFC0
:0206890001AFBF
:02068A0001AFBE
:02068B0001AFBD
:02068C0001AFBC
:02068D0001AFBB
:02068E0001AFBA
:02068F0001AFB9
:0206900001AFB8
:0206910001AFB7
:0206920001AFB6
:0206930001AFB5
:0206940001AEB5
:0206950001AEB4
:0206960001AEB3
:0206970001AEB2
:0206980001AEB1
:0206990001AEB0
:02069A0001AEAF
:02069B0001AEAE
:02069C0001AEAD
:02069D0001AEAC
:02069E0001AEAB
:02069F0001AEAA
:0206A00001AEA9
:0206A10001AEA8
:0206A20001AEA7
:0206A30001AEA6
:0206A40001AEA5
:0206A50001AEA4
:0206A60001AEA3
:0206A70001AEA2
:0206A80001AEA1
:0206A90001AEA0
:0206AA0001AE9F
:0206AB0001AE9E
:0206AC0001AE9D
:0206AD0001AE9C
:0206AE0001AE9B
:0206AF0001AD9B
:0206B00001AD9A
:0206B10001AD99
:0206B20001AD98
:0206B30001AD97
:0206B40001AD96
:0206B50001AD95
:0206B60001AD94
:0206B70001AD93
:0206B80001AD92
:0206B90001AD91
:0206BA0001AD90
:0206BB0001AD8F
:0206BC0001AD8E
:0206BD0001AD8D
:0206BE0001AD8C
:0206BF0001AD8B
:0206C00001AD8A
:0206C10001AD89
:0206C20001AD88
:0206C30001AD87
:0206C40001AD86
:0206C50001AD85
:0206C60001AD84
:0206C70001AD83
:0206C80001AD82
:0206C90001AD81
:0206CA0001AC81
:0206CB0001AC80
:0206CC0001AC7F
:0206CD0001AC7E
:0206CE0001AC7D
:0206CF0001AC7C
:0206D00001AC7B
:0206D10001AC7A
:0206D20001AC79
:0206D30001AC78
:0206D40001AC77
:0206D50001AC76
:0206D60001AC75
:0206D70001AC74
:0206D80001AC73
:0206D90001AC72
:0206DA0001AC71
:0206DB0001AC70
:0206DC0001AC6F
:0206DD0001AC6E
:0206DE0001AC6D
:0206DF0001AC6C
:0206E00001AC6B
:0206E10001AC6A
:0206E20001AC69
:0206E30001AC68
:0206E40001AC67
:0206E50001AC66
:0206E60001AB66
:0206E70001AB65
:0206E80001AB64
:0206E90001AB63
:0206EA0001AB62
:0206EB0001AB61
:0206EC0001AB60
:0206ED0001AB5F
:0206EE0001AB5E
:0206EF0001AB5D
:0206F00001AB5C
:0206F10001AB5B
:0206F20001AB5A
:0206F30001AB59
:0206F40001AB58
:0206F50001AB57
:0206F60001AB56
:0206F70001AB55
:0206F80001AB54
:0206F90001AB53
:0206FA0001AB52
:0206FB0001AB51
:0206FC0001AB50
:0206FD0001AB4F
:0206FE0001AB4E
:0206FF0001AB4D
:0207000001AB4B
:0207010001AA4B
:0207020001AA4A
:0207030001AA49
:0207040001AA48
:0207050001AA47
:0207060001AA46
:0207070001AA45
:0207080001AA44
:0207090001AA43
:02070A0001AA42
:02070B0001AA41
:02070C0001AA40
:02070D0001AA3F
:02070E0001AA3E
:02070F0001AA3D
:0207100001AA3C
:0207110001AA3B
:0207120001AA3A
:0207130001AA39
:0207140001AA38
:0207150001AA37
:0207160001AA36
:0207170001AA35
:0207180001AA34
:0207190001AA33
:02071A0001AA32
:02071B0001AA31
:02071C0001AA30
:02071D0001A930
:02071E0001A92F
:02071F0001A92E
:0207200001A92D
:0207210001A92C
:0207220001A92B
:0207230001A92A
:0207240001A929
:0207250001A928
:0207260001A927
:0207270001A926
:0207280001A925
:0207290001A924
:02072A0001A923
:02072B0001A922
:02072C0001A921
:02072D0001A920
:02072E0001A91F
:02072F0001A91E
:0207300001A91D
:0207310001A91C
:0207320001A91B
:0207330001A91A
:0207340001A919
:0207350001A918
:0207360001A917
:0207370001A916
:0207380001A915
:0207390001A815
:02073A0001A814
:02073B0001A813
:02073C0001A812
:02073D0001A811
:02073E0001A810
:02073F0001A80F
:0207400001A80E
:0207410001A80D
:0207420001A80C
:0207430001A80B
:0207440001A80A
:0207450001A809
:0207460001A808
:0207470001A807
:0207480001A806
:0207490001A805
:02074A0001A804
:02074B0001A803
:02074C0001A802
:02074D0001A801
:02074E0001A800
:02074F0001A8FF
:0207500001A8FE
:0207510001A8FD
:0207520001A8FC
:0207530001A8FB
:0207540001A8FA
:0207550001A7FA
:0207560001A7F9
:0207570001A7F8
:0207580001A7F7
:0207590001A7F6
:02075A0001A7F5
:02075B0001A7F4
:02075C0001A7F3
:02075D0001A7F2
:02075E0001A7F1
:02075F0001A7F0
:0207600001A7EF
:0207610001A7EE
:0207620001A7ED
:0207630001A7EC
:0207640001A7EB
:0207650001A7EA
:0207660001A7E9
:0207670001A7E8
:0207680001A7E7
:0207690001A7E6
:02076A0001A7E5
:02076B0001A7E4
:02076C0001A7E3
:02076D0001A7E2
:02076E0001A7E1
:02076F0001A7E0
:0207700001A7DF
:0207710001A6DF
:0207720001A6DE
:0207730001A6DD
:0207740001A6DC
:0207750001A6DB
:0207760001A6DA
:0207770001A6D9
:0207780001A6D8
:0207790001A6D7
:02077A0001A6D6
:02077B0001A6D5
:02077C0001A6D4
:02077D0001A6D3
:02077E0001A6D2
:02077F0001A6D1
:0207800001A6D0
:0207810001A6CF
:0207820001A6CE
:0207830001A6CD
:0207840001A6CC
:0207850001A6CB
:0207860001A6CA
:0207870001A6C9
:0207880001A6C8
:0207890001A6C7
:02078A0001A6C6
:02078B0001A6C5
:02078C0001A6C4
:02078D0001A5C4
:02078E0001A5C3
:02078F0001A5C2
:0207900001A5C1
:0207910001A5C0
:0207920001A5BF
:0207930001A5BE
:0207940001A5BD
:0207950001A5BC
:0207960001A5BB
:0207970001A5BA
:0207980001A5B9
:0207990001A5B8
:02079A0001A5B7
:02079B0001A5B6
:02079C0001A5B5
:02079D0001A5B4
:02079E0001A5B3
:02079F0001A5B2
:0207A00001A5B1
:0207A10001A5B0
:0207A20001A5AF
:0207A30001A5AE
:0207A40001A5AD
:0207A50001A5AC
:0207A60001A5AB
:0207A70001A5AA
:0207A80001A5A9
:0207A90001A5A8
:0207AA0001A4A8
:0207AB0001A4A7
:0207AC0001A4A6
:0207AD0001A4A5
:0207AE0001A4A4
:0207AF0001A4A3
:0207B00001A4A2
:0207B10001A4A1
:0207B20001A4A0
:0207B30001A49F
:0207B40001A49E
:0207B50001A49D
:0207B60001A49C
:0207B70001A49B
:0207B80001A49A
:0207B90001A499
:0207BA0001A498
:0207BB0001A497
:0207BC0001A496
:0207BD0001A495
:0207BE0001A494
:0207BF0001A493
:0207C00001A492
:0207C10001A491
:0207C20001A490
:0207C30001A48F
:0207C40001A48E
:0207C50001A48D
:0207C60001A48C
:0207C70001A38C
:0207C80001A38B
:0207C90001A38A
:0207CA0001A389
:0207CB0001A388
:0207CC0001A387
:0207CD0001A386
:0207CE0001A385
:0207CF0001A384
:0207D00001A383
:0207D10001A382
:0207D20001A381
:0207D30001A380
:0207D40001A37F
:0207D50001A37E
:0207D60001A37D
:0207D70001A37C
:0207D80001A37B
:0207D90001A37A
:0207DA0001A379
:0207DB0001A378
:0207DC0001A377
:0207DD0001A376
:0207DE0001A375
:0207DF0001A374
:0207E00001A373
:0207E10001A372
:0207E20001A371
:0207E30001A370
:0207E40001A270
:0207E50001A26F
:0207E60001A26E
:0207E70001A26D
:0207E80001A26C
:0207E90001A26B
:0207EA0001A26A
:0207EB0001A269
:0207EC0001A268
:0207ED0001A267
:0207EE0001A266
:0207EF0001A265
:0207F00001A264
:0207F10001A263
:0207F20001A262
:0207F30001A261
:0207F40001A260
:0207F50001A25F
:0207F60001A25E
:0207F70001A25D
:0207F80001A25C
:0207F90001A25B
:0207FA0001A25A
:0207FB0001A259
:0207FC0001A258
:0207FD0001A257
:0207FE0001A256
:0207FF0001A255
:00000001ff
