:020000040000FA
:02000000001EE0
:0200010003FCFE
:0200020003D920
:0200030003B642
:02000400039364
:02000500037086
:02000600034EA7
:02000700032BC9
:020008000308EB
:0200090002E50E
:02000A0002C32F
:02000B0002A051
:02000C00027D73
:02000D00025A95
:02000E000238B6
:02000F000215D8
:0200100001F2FB
:0200110001D01C
:0200120001AD3E
:02001300018A60
:02001400016881
:020015000145A3
:020016000122C5
:020017000100E6
:0200180000DD09
:0200190000BA2B
:02001A0000984C
:02001B0000756E
:02001C00005290
:02001D000030B1
:02001E00000DD3
:02001F0003EBF1
:0200200003C813
:0200210003A634
:02002200038356
:02002300036177
:02002400033E99
:02002500031BBB
:0200260002F9DD
:0200270002D6FF
:0200280002B420
:02002900029142
:02002A00026F63
:02002B00024C85
:02002C00022AA6
:02002D000208C7
:02002E0001E5EA
:02002F0001C30B
:0200300001A02D
:02003100017E4E
:02003200015B70
:02003300013991
:020034000117B2
:0200350000F4D5
:0200360000D2F6
:0200370000AF18
:02003800008D39
:02003900006B5A
:02003A0000487C
:02003B0000269D
:02003C000004BE
:02003D0003E1DD
:02003E0003BFFE
:02003F00039D1F
:02004000037A41
:02004100035862
:02004200033683
:020043000314A4
:0200440002F1C7
:0200450002CFE8
:0200460002AD09
:02004700028B2A
:0200480002684C
:0200490002466D
:02004A0002248E
:02004B000202AF
:02004C0001DFD2
:02004D0001BDF3
:02004E00019B14
:02004F00017935
:02005000015756
:02005100013577
:02005200011299
:0200530000F0BB
:0200540000CEDC
:0200550000ACFD
:02005600008A1E
:0200570000683F
:02005800004660
:02005900002481
:02005A000002A2
:02005B0003DFC1
:02005C0003BDE2
:02005D00039B03
:02005E00037924
:02005F00035745
:02006000033566
:02006100031387
:0200620002F1A9
:0200630002CFCA
:0200640002ADEB
:02006500028B0C
:0200660002692D
:0200670002474E
:0200680002256F
:02006900020390
:02006A0001E1B2
:02006B0001BFD3
:02006C00019DF4
:02006D00017B15
:02006E00015A35
:02006F00013856
:02007000011677
:0200710000F499
:0200720000D2BA
:0200730000B0DB
:02007400008EFC
:02007500006C1D
:02007600004A3E
:0200770000295E
:0200780000077F
:0200790003E59D
:02007A0003C3BE
:02007B0003A1DF
:02007C00037F00
:02007D00035E20
:02007E00033C41
:02007F00031A62
:0200800002F884
:0200810002D7A4
:0200820002B5C5
:020083000293E6
:02008400027107
:02008500025027
:02008600022E48
:02008700020C69
:0200880001EA8B
:0200890001C9AB
:02008A0001A7CC
:02008B000185ED
:02008C0001640D
:02008D0001422E
:02008E0001204F
:02008F0000FF70
:0200900000DD91
:0200910000BBB2
:02009200009AD2
:020093000078F3
:02009400005614
:02009500003534
:02009600001355
:0200970003F272
:0200980003D093
:0200990003AFB3
:02009A00038DD4
:02009B00036BF5
:02009C00034A15
:02009D00032836
:02009E00030756
:02009F0002E578
:0200A00002C498
:0200A10002A2B9
:0200A2000281D9
:0200A300025FFA
:0200A400023E1A
:0200A500021C3B
:0200A60001FB5C
:0200A70001D97D
:0200A80001B89D
:0200A9000196BE
:0200AA000175DE
:0200AB000154FE
:0200AC0001321F
:0200AD0001113F
:0200AE0000EF61
:0200AF0000CE81
:0200B00000ADA1
:0200B100008BC2
:0200B200006AE2
:0200B300004803
:0200B400002723
:0200B500000643
:0200B60003E461
:0200B70003C381
:0200B80003A2A1
:0200B9000380C2
:0200BA00035FE2
:0200BB00033E02
:0200BC00031C23
:0200BD0002FB44
:0200BE0002DA64
:0200BF0002B984
:0200C0000297A5
:0200C1000276C5
:0200C2000255E5
:0200C300023405
:0200C400021226
:0200C50001F147
:0200C60001D067
:0200C70001AF87
:0200C800018DA8
:0200C900016CC8
:0200CA00014BE8
:0200CB00012A08
:0200CC00010928
:0200CD0000E849
:0200CE0000C66A
:0200CF0000A58A
:0200D0000084AA
:0200D1000063CA
:0200D2000042EA
:0200D30000210A
:0200D40000002A
:0200D50003DF47
:0200D60003BD68
:0200D700039C88
:0200D800037BA8
:0200D900035AC8
:0200DA000339E8
:0200DB00031808
:0200DC0002F729
:0200DD0002D649
:0200DE0002B569
:0200DF00029489
:0200E0000273A9
:0200E1000252C9
:0200E2000231E9
:0200E300021009
:0200E40001EF2A
:0200E50001CE4A
:0200E60001AD6A
:0200E700018C8A
:0200E800016BAA
:0200E900014ACA
:0200EA000129EA
:0200EB0001080A
:0200EC0000E72B
:0200ED0000C64B
:0200EE0000A66A
:0200EF0000858A
:0200F0000064AA
:0200F1000043CA
:0200F2000022EA
:0200F30000010A
:0200F40003E027
:0200F50003BF47
:0200F600039F66
:0200F700037E86
:0200F800035DA6
:0200F900033CC6
:0200FA00031BE6
:0200FB0002FA07
:0200FC0002DA26
:0200FD0002B946
:0200FE00029866
:0200FF00027786
:020100000257A4
:020101000236C4
:020102000215E4
:0201030001F405
:0201040001D424
:0201050001B344
:02010600019264
:02010700017184
:020108000151A3
:020109000130C3
:02010A00010FE3
:02010B0000EF03
:02010C0000CE23
:02010D0000AD43
:02010E00008D62
:02010F00006C82
:02011000004BA2
:02011100002BC1
:02011200000AE1
:0201130003E9FE
:0201140003C91D
:0201150003A83D
:0201160003885C
:0201170003677C
:0201180003469C
:020119000326BB
:02011A000305DB
:02011B0002E5FB
:02011C0002C41B
:02011D0002A43A
:02011E0002835A
:02011F00026379
:02012000024299
:020121000221B9
:020122000201D8
:0201230001E0F9
:0201240001C018
:02012500019F38
:02012600017F57
:02012700015F76
:02012800013E96
:02012900011EB5
:02012A0000FDD6
:02012B0000DDF5
:02012C0000BC15
:02012D00009C34
:02012E00007B54
:02012F00005B73
:02013000003B92
:02013100001AB2
:0201320003FACE
:0201330003D9EE
:0201340003B90D
:0201350003992C
:0201360003784C
:0201370003586B
:0201380003388A
:020139000317AA
:02013A0002F7CA
:02013B0002D7E9
:02013C0002B609
:02013D00029628
:02013E00027647
:02013F00025567
:02014000023586
:020141000215A5
:0201420001F5C5
:0201430001D4E5
:0201440001B404
:02014500019423
:02014600017442
:02014700015362
:02014800013381
:020149000113A0
:02014A0000F3C0
:02014B0000D3DF
:02014C0000B2FF
:02014D0000921E
:02014E0000723D
:02014F0000525C
:0201500000327B
:0201510000129A
:0201520003F1B7
:0201530003D1D6
:0201540003B1F5
:02015500039114
:02015600037133
:02015700035152
:02015800033171
:02015900031190
:02015A0002F0B1
:02015B0002D0D0
:02015C0002B0EF
:02015D0002900E
:02015E0002702D
:02015F0002504C
:0201600002306B
:0201610002108A
:0201620001F0AA
:0201630001D0C9
:0201640001B0E8
:02016500019007
:02016600017026
:02016700015045
:02016800013064
:02016900011083
:02016A0000F0A3
:02016B0000D0C2
:02016C0000B0E1
:02016D00009000
:02016E0000701F
:02016F0000503E
:0201700000305D
:0201710000107C
:0201720003F197
:0201730003D1B6
:0201740003B1D5
:020175000391F4
:02017600037113
:02017700035132
:02017800033151
:02017900031170
:02017A0002F28F
:02017B0002D2AE
:02017C0002B2CD
:02017D000292EC
:02017E0002720B
:02017F0002522A
:02018000023348
:02018100021367
:0201820001F387
:0201830001D3A6
:0201840001B3C5
:020185000194E3
:02018600017402
:02018700015421
:02018800013440
:0201890001155E
:02018A0000F57E
:02018B0000D59D
:02018C0000B5BC
:02018D000096DA
:02018E000076F9
:02018F00005618
:02019000003736
:02019100001755
:0201920003F771
:0201930003D88F
:0201940003B8AE
:020195000398CD
:020196000379EB
:0201970003590A
:02019800033929
:02019900031A47
:02019A0002FA67
:02019B0002DA86
:02019C0002BBA4
:02019D00029BC3
:02019E00027CE1
:02019F00025C00
:0201A000023D1E
:0201A100021D3D
:0201A20001FD5D
:0201A30001DE7B
:0201A40001BE9A
:0201A500019FB8
:0201A600017FD7
:0201A7000160F5
:0201A800014014
:0201A900012132
:0201AA00010151
:0201AB0000E270
:0201AC0000C28F
:0201AD0000A3AD
:0201AE000083CC
:0201AF000064EA
:0201B000004409
:0201B100002527
:0201B200000546
:0201B30003E661
:0201B40003C77F
:0201B50003A79E
:0201B6000388BC
:0201B7000368DB
:0201B8000349F9
:0201B900032918
:0201BA00030A36
:0201BB0002EB55
:0201BC0002CB74
:0201BD0002AC92
:0201BE00028DB0
:0201BF00026DCF
:0201C000024EED
:0201C100022F0B
:0201C200020F2A
:0201C30001F049
:0201C40001D167
:0201C50001B186
:0201C6000192A4
:0201C7000173C2
:0201C8000153E1
:0201C9000134FF
:0201CA0001151D
:0201CB0000F63C
:0201CC0000D65B
:0201CD0000B779
:0201CE00009897
:0201CF000079B5
:0201D0000059D4
:0201D100003AF2
:0201D200001B10
:0201D30003FC2B
:0201D40003DC4A
:0201D50003BD68
:0201D600039E86
:0201D700037FA4
:0201D8000360C2
:0201D9000341E0
:0201DA000321FF
:0201DB0003021D
:0201DC0002E33C
:0201DD0002C45A
:0201DE0002A578
:0201DF00028696
:0201E0000267B4
:0201E1000247D3
:0201E2000228F1
:0201E30002090F
:0201E40001EA2E
:0201E50001CB4C
:0201E60001AC6A
:0201E700018D88
:0201E800016EA6
:0201E900014FC4
:0201EA000130E2
:0201EB00011100
:0201EC0000F21F
:0201ED0000D33D
:0201EE0000B45B
:0201EF00009579
:0201F000007697
:0201F1000057B5
:0201F2000038D3
:0201F3000019F1
:0201F40003FA0C
:0201F50003DB2A
:0201F60003BC48
:0201F700039D66
:0201F800037E84
:0201F900035FA2
:0201FA000340C0
:0201FB000321DE
:0201FC000302FC
:0201FD0002E31B
:0201FE0002C439
:0201FF0002A557
:02020000028674
:02020100026792
:020202000249AF
:02020300022ACD
:02020400020BEB
:0202050001EC0A
:0202060001CD28
:0202070001AE46
:02020800018F64
:02020900017181
:02020A0001529F
:02020B000133BD
:02020C000114DB
:02020D0000F5FA
:02020E0000D717
:02020F0000B835
:02021000009953
:02021100007A71
:02021200005B8F
:02021300003DAC
:02021400001ECA
:0202150003FFE5
:0202160003E003
:0202170003C220
:0202180003A33E
:0202190003845C
:02021A00036679
:02021B00034797
:02021C000328B5
:02021D000309D3
:02021E0002EBF1
:02021F0002CC0F
:0202200002AD2D
:02022100028F4A
:02022200027068
:02022300025186
:020224000233A3
:020225000214C1
:0202260001F5E0
:0202270001D7FD
:0202280001B81B
:02022900019A38
:02022A00017B56
:02022B00015C74
:02022C00013E91
:02022D00011FAF
:02022E000101CC
:02022F0000E2EB
:0202300000C408
:0202310000A526
:02023200008644
:02023300006861
:0202340000497F
:02023500002B9C
:02023600000CBA
:0202370003EED4
:0202380003CFF2
:0202390003B10F
:02023A0003922D
:02023B0003744A
:02023C00035568
:02023D00033785
:02023E000318A3
:02023F0002FAC1
:0202400002DBDF
:0202410002BDFC
:02024200029F19
:02024300028037
:02024400026254
:02024500024372
:0202460002258F
:020247000206AD
:0202480001E8CB
:0202490001CAE8
:02024A0001AB06
:02024B00018D23
:02024C00016E41
:02024D0001505E
:02024E0001327B
:02024F00011399
:0202500000F5B7
:0202510000D7D4
:0202520000B8F2
:02025300009A0F
:02025400007C2C
:02025500005D4A
:02025600003F67
:02025700002184
:020258000003A1
:0202590003E4BC
:02025A0003C6D9
:02025B0003A8F6
:02025C00038914
:02025D00036B31
:02025E00034D4E
:02025F00032F6B
:02026000031089
:0202610002F2A7
:0202620002D4C4
:0202630002B6E1
:020264000298FE
:0202650002791C
:02026600025B39
:02026700023D56
:02026800021F73
:02026900020190
:02026A0001E2AF
:02026B0001C4CC
:02026C0001A6E9
:02026D00018806
:02026E00016A23
:02026F00014C40
:02027000012D5E
:02027100010F7B
:0202720000F199
:0202730000D3B6
:0202740000B5D3
:020275000097F0
:0202760000790D
:02027700005B2A
:02027800003D47
:02027900001F64
:02027A00000181
:02027B0003E29C
:02027C0003C4B9
:02027D0003A6D6
:02027E000388F3
:02027F00036A10
:02028000034C2D
:02028100032E4A
:02028200031067
:0202830002F285
:0202840002D4A2
:0202850002B6BF
:020286000298DC
:02028700027AF9
:02028800025C16
:02028900023E33
:02028A00022050
:02028B0002026D
:02028C0001E48B
:02028D0001C7A7
:02028E0001A9C4
:02028F00018BE1
:02029000016DFE
:02029100014F1B
:02029200013138
:02029300011355
:0202940000F573
:0202950000D790
:0202960000B9AD
:02029700009CC9
:02029800007EE6
:02029900006003
:02029A00004220
:02029B0000243D
:02029C0000065A
:02029D0003E874
:02029E0003CB90
:02029F0003ADAD
:0202A000038FCA
:0202A1000371E7
:0202A200035304
:0202A300033620
:0202A40003183D
:0202A50002FA5B
:0202A60002DC78
:0202A70002BE95
:0202A80002A1B1
:0202A9000283CE
:0202AA000265EB
:0202AB00024708
:0202AC00022A24
:0202AD00020C41
:0202AE0001EE5F
:0202AF0001D17B
:0202B00001B398
:0202B1000195B5
:0202B2000177D2
:0202B300015AEE
:0202B400013C0B
:0202B500011E28
:0202B600010144
:0202B70000E362
:0202B80000C57F
:0202B90000A89B
:0202BA00008AB8
:0202BB00006CD5
:0202BC00004FF1
:0202BD0000310E
:0202BE0000142A
:0202BF0003F644
:0202C00003D861
:0202C10003BB7D
:0202C200039D9A
:0202C3000380B6
:0202C4000362D3
:0202C5000344F0
:0202C60003270C
:0202C700030929
:0202C80002EC46
:0202C90002CE63
:0202CA0002B17F
:0202CB0002939C
:0202CC000276B8
:0202CD000258D5
:0202CE00023BF1
:0202CF00021D0E
:0202D00002002A
:0202D10001E248
:0202D20001C564
:0202D30001A781
:0202D400018A9D
:0202D500016CBA
:0202D600014FD6
:0202D7000131F3
:0202D80001140F
:0202D90000F62D
:0202DA0000D949
:0202DB0000BB66
:0202DC00009E82
:0202DD0000819E
:0202DE000063BB
:0202DF000046D7
:0202E0000028F4
:0202E100000B10
:0202E20003EE29
:0202E30003D046
:0202E40003B362
:0202E50003957F
:0202E60003789B
:0202E700035BB7
:0202E800033DD4
:0202E9000320F0
:0202EA0003030C
:0202EB0002E52A
:0202EC0002C846
:0202ED0002AB62
:0202EE00028D7F
:0202EF0002709B
:0202F0000253B7
:0202F1000236D3
:0202F2000218F0
:0202F30001FB0D
:0202F40001DE29
:0202F50001C046
:0202F60001A362
:0202F70001867E
:0202F80001699A
:0202F900014BB7
:0202FA00012ED3
:0202FB000111EF
:0202FC0000F40C
:0202FD0000D728
:0202FE0000B945
:0202FF00009C61
:02030000007F7C
:02030100006298
:020302000045B4
:020303000027D1
:02030400000AED
:0203050003ED06
:0203060003D022
:0203070003B33E
:0203080003965A
:02030900037877
:02030A00035B93
:02030B00033EAF
:02030C000321CB
:02030D000304E7
:02030E0002E704
:02030F0002CA20
:0203100002AD3C
:02031100029058
:02031200027374
:02031300025591
:020314000238AD
:02031500021BC9
:0203160001FEE6
:0203170001E102
:0203180001C41E
:0203190001A73A
:02031A00018A56
:02031B00016D72
:02031C0001508E
:02031D000133AA
:02031E000116C6
:02031F0000F9E3
:0203200000DCFF
:0203210000BF1B
:0203220000A237
:02032300008553
:0203240000686F
:02032500004B8B
:02032600002EA7
:020327000011C3
:0203280003F4DC
:0203290003D7F8
:02032A0003BA14
:02032B00039E2F
:02032C0003814B
:02032D00036467
:02032E00034783
:02032F00032A9F
:02033000030DBB
:0203310002F0D8
:0203320002D3F4
:0203330002B610
:0203340002992C
:02033500027D47
:02033600026063
:0203370002437F
:0203380002269B
:020339000209B7
:02033A0001ECD4
:02033B0001D0EF
:02033C0001B30B
:02033D00019627
:02033E00017943
:02033F00015C5F
:0203400001407A
:02034100012396
:020342000106B2
:0203430000E9CF
:0203440000CCEB
:0203450000B006
:02034600009322
:0203470000763E
:0203480000595A
:02034900003D75
:02034A00002091
:02034B000003AD
:02034C0003E6C6
:02034D0003CAE1
:02034E0003ADFD
:02034F00039019
:02035000037434
:02035100035750
:02035200033A6C
:02035300031E87
:020354000301A3
:0203550002E4C0
:0203560002C8DB
:0203570002ABF7
:02035800028E13
:0203590002722E
:02035A0002554A
:02035B00023866
:02035C00021C81
:02035D0001FF9E
:02035E0001E3B9
:02035F0001C6D5
:0203600001A9F1
:02036100018D0C
:02036200017028
:02036300015443
:0203640001375F
:02036500011A7B
:0203660000FE97
:0203670000E1B3
:0203680000C5CE
:0203690000A8EA
:02036A00008C05
:02036B00006F21
:02036C0000533C
:02036D00003658
:02036E00001A73
:02036F0003FD8C
:0203700003E1A7
:0203710003C4C3
:0203720003A8DE
:02037300038BFA
:02037400036F15
:02037500035231
:0203760003364C
:02037700031968
:0203780002FD84
:0203790002E0A0
:02037A0002C4BB
:02037B0002A8D6
:02037C00028BF2
:02037D00026F0D
:02037E00025229
:02037F00023644
:02038000021960
:0203810001FD7C
:0203820001E197
:0203830001C4B3
:0203840001A8CE
:02038500018CE9
:02038600016F05
:02038700015320
:0203880001363C
:02038900011A57
:02038A0000FE73
:02038B0000E18F
:02038C0000C5AA
:02038D0000A9C5
:02038E00008CE1
:02038F000070FC
:02039000005417
:02039100003832
:02039200001B4E
:0203930003FF66
:0203940003E381
:0203950003C69D
:0203960003AAB8
:02039700038ED3
:020398000372EE
:0203990003550A
:02039A00033925
:02039B00031D40
:02039C0003015B
:02039D0002E478
:02039E0002C893
:02039F0002ACAE
:0203A0000290C9
:0203A1000274E4
:0203A200025700
:0203A300023B1B
:0203A400021F36
:0203A500020351
:0203A60001E76D
:0203A70001CA89
:0203A80001AEA4
:0203A9000192BF
:0203AA000176DA
:0203AB00015AF5
:0203AC00013E10
:0203AD0001222B
:0203AE00010547
:0203AF0000E963
:0203B00000CD7E
:0203B10000B199
:0203B2000095B4
:0203B3000079CF
:0203B400005DEA
:0203B500004105
:0203B600002520
:0203B70000093B
:0203B80003EC54
:0203B90003D06F
:0203BA0003B48A
:0203BB000398A5
:0203BC00037CC0
:0203BD000360DB
:0203BE000344F6
:0203BF00032811
:0203C000030C2C
:0203C10002F048
:0203C20002D463
:0203C30002B87E
:0203C400029C99
:0203C5000280B4
:0203C6000264CF
:0203C7000248EA
:0203C800022C05
:0203C900021020
:0203CA0001F43C
:0203CB0001D857
:0203CC0001BC72
:0203CD0001A08D
:0203CE000184A8
:0203CF000169C2
:0203D000014DDD
:0203D1000131F8
:0203D200011513
:0203D30000F92F
:0203D40000DD4A
:0203D50000C165
:0203D60000A580
:0203D70000899B
:0203D800006DB6
:0203D9000052D0
:0203DA000036EB
:0203DB00001A06
:0203DC0003FE1E
:0203DD0003E239
:0203DE0003C654
:0203DF0003AA6F
:0203E000038F89
:0203E1000373A4
:0203E2000357BF
:0203E300033BDA
:0203E400031FF5
:0203E50003040F
:0203E60002E82B
:0203E70002CC46
:0203E80002B061
:0203E90002947C
:0203EA00027996
:0203EB00025DB1
:0203EC000241CC
:0203ED000225E7
:0203EE00020A01
:0203EF0001EE1D
:0203F00001D238
:0203F10001B653
:0203F200019B6D
:0203F300017F88
:0203F4000163A3
:0203F5000148BD
:0203F600012CD8
:0203F7000110F3
:0203F80000F40F
:0203F90000D929
:0203FA0000BD44
:0203FB0000A15F
:0203FC00008679
:0203FD00006A94
:0203FE00004EAF
:0203FF000033C9
:020400000017E3
:0204010003FBFB
:0204020003E015
:0204030003C430
:0204040003A94A
:02040500038D65
:02040600037180
:0204070003569A
:02040800033AB5
:02040900031FCF
:02040A000303EA
:02040B0002E706
:02040C0002CC20
:02040D0002B03B
:02040E00029555
:02040F00027970
:02041000025E8A
:020411000242A5
:020412000226C0
:02041300020BDA
:0204140001EFF6
:0204150001D410
:0204160001B82B
:02041700019D45
:02041800018160
:0204190001667A
:02041A00014A95
:02041B00012FAF
:02041C000113CA
:02041D0000F8E5
:02041E0000DC00
:02041F0000C11A
:0204200000A535
:02042100008A4F
:02042200006F69
:02042300005384
:0204240000389E
:02042500001CB9
:020426000001D3
:0204270003E5EB
:0204280003CA05
:0204290003AF1F
:02042A0003933A
:02042B00037854
:02042C00035C6F
:02042D00034189
:02042E000326A3
:02042F00030ABE
:0204300002EFD9
:0204310002D4F3
:0204320002B80E
:02043300029D28
:02043400028143
:0204350002665D
:02043600024B77
:02043700022F92
:020438000214AC
:0204390001F9C7
:02043A0001DDE2
:02043B0001C2FC
:02043C0001A716
:02043D00018C30
:02043E0001704B
:02043F00015565
:02044000013A7F
:02044100011E9A
:020442000103B4
:0204430000E8CF
:0204440000CDE9
:0204450000B104
:0204460000961E
:02044700007B38
:02044800006052
:0204490000446D
:02044A00002987
:02044B00000EA1
:02044C0003F3B8
:02044D0003D8D2
:02044E0003BCED
:02044F0003A107
:02045000038621
:02045100036B3B
:02045200035055
:02045300033470
:0204540003198A
:0204550002FEA5
:0204560002E3BF
:0204570002C8D9
:0204580002ADF3
:0204590002920D
:02045A00027628
:02045B00025B42
:02045C0002405C
:02045D00022576
:02045E00020A90
:02045F0001EFAB
:0204600001D4C5
:0204610001B9DF
:02046200019EF9
:02046300018214
:0204640001672E
:02046500014C48
:02046600013162
:0204670001167C
:0204680000FB97
:0204690000E0B1
:02046A0000C5CB
:02046B0000AAE5
:02046C00008FFF
:02046D00007419
:02046E00005933
:02046F00003E4D
:02047000002367
:02047100000881
:0204720003ED98
:0204730003D2B2
:0204740003B7CC
:02047500039CE6
:02047600038100
:0204770003661A
:02047800034B34
:0204790003304E
:02047A00031568
:02047B0002FA83
:02047C0002DF9D
:02047D0002C4B7
:02047E0002A9D1
:02047F00028EEB
:02048000027404
:0204810002591E
:02048200023E38
:02048300022352
:0204840002086C
:0204850001ED87
:0204860001D2A1
:0204870001B7BB
:02048800019CD5
:020489000181EF
:02048A00016708
:02048B00014C22
:02048C0001313C
:02048D00011656
:02048E0000FB71
:02048F0000E08B
:0204900000C6A4
:0204910000ABBE
:020492000090D8
:020493000075F2
:02049400005A0C
:02049500003F26
:0204960000253F
:02049700000A59
:0204980003EF70
:0204990003D48A
:02049A0003BAA3
:02049B00039FBD
:02049C000384D7
:02049D000369F1
:02049E00034E0B
:02049F00033424
:0204A00003193E
:0204A10002FE59
:0204A20002E373
:0204A30002C98C
:0204A40002AEA6
:0204A5000293C0
:0204A6000279D9
:0204A700025EF3
:0204A80002430D
:0204A900022827
:0204AA00020E40
:0204AB0001F35B
:0204AC0001D875
:0204AD0001BE8E
:0204AE0001A3A8
:0204AF000188C2
:0204B000016EDB
:0204B1000153F5
:0204B20001380F
:0204B300011E28
:0204B400010342
:0204B50000E95C
:0204B60000CE76
:0204B70000B390
:0204B8000099A9
:0204B900007EC3
:0204BA000064DC
:0204BB000049F6
:0204BC00002E10
:0204BD00001429
:0204BE0003F940
:0204BF0003DF59
:0204C00003C473
:0204C10003A98D
:0204C200038FA6
:0204C3000374C0
:0204C400035AD9
:0204C500033FF3
:0204C60003250C
:0204C700030A26
:0204C80002F040
:0204C90002D55A
:0204CA0002BB73
:0204CB0002A08D
:0204CC000286A6
:0204CD00026BC0
:0204CE000251D9
:0204CF000236F3
:0204D000021C0C
:0204D100020126
:0204D20001E740
:0204D30001CC5A
:0204D40001B273
:0204D50001978D
:0204D600017DA6
:0204D7000162C0
:0204D8000148D9
:0204D900012DF3
:0204DA0001130C
:0204DB0000F926
:0204DC0000DE40
:0204DD0000C459
:0204DE0000A973
:0204DF00008F8C
:0204E0000075A5
:0204E100005ABF
:0204E2000040D8
:0204E3000025F2
:0204E400000B0B
:0204E50003F121
:0204E60003D63B
:0204E70003BC54
:0204E80003A26D
:0204E900038787
:0204EA00036DA0
:0204EB000353B9
:0204EC000338D3
:0204ED00031EEC
:0204EE00030405
:0204EF0002E920
:0204F00002CF39
:0204F10002B552
:0204F200029A6C
:0204F300028085
:0204F40002669E
:0204F500024BB8
:0204F6000231D1
:0204F7000217EA
:0204F80001FD04
:0204F90001E21E
:0204FA0001C837
:0204FB0001AE50
:0204FC00019469
:0204FD00017983
:0204FE00015F9C
:0204FF000145B5
:02050000012BCD
:020501000110E7
:0205020000F601
:0205030000DC1A
:0205040000C233
:0205050000A84C
:02050600008D66
:0205070000737F
:02050800005998
:02050900003FB1
:02050A000025CA
:02050B00000AE4
:02050C0003F0FA
:02050D0003D613
:02050E0003BC2C
:02050F0003A245
:0205100003885E
:02051100036E77
:02051200035391
:020513000339AA
:02051400031FC3
:020515000305DC
:0205160002EBF6
:0205170002D10F
:0205180002B728
:02051900029D41
:02051A0002835A
:02051B00026874
:02051C00024E8D
:02051D000234A6
:02051E00021ABF
:02051F000200D8
:0205200001E6F2
:0205210001CC0B
:0205220001B224
:0205230001983D
:02052400017E56
:0205250001646F
:02052600014A88
:020527000130A1
:020528000116BA
:0205290000FCD4
:02052A0000E2ED
:02052B0000C806
:02052C0000AE1F
:02052D00009438
:02052E00007A51
:02052F0000606A
:02053000004683
:02053100002C9C
:020532000012B5
:0205330003F8CB
:0205340003DEE4
:0205350003C4FD
:0205360003AA16
:0205370003902F
:02053800037648
:02053900035C61
:02053A0003427A
:02053B00032992
:02053C00030FAB
:02053D0002F5C5
:02053E0002DBDE
:02053F0002C1F7
:0205400002A710
:02054100028D29
:02054200027342
:0205430002595B
:02054400023F74
:0205450002268C
:02054600020CA5
:0205470001F2BF
:0205480001D8D8
:0205490001BEF1
:02054A0001A40A
:02054B00018B22
:02054C0001713B
:02054D00015754
:02054E00013D6D
:02054F00012386
:0205500001099F
:0205510000F0B8
:0205520000D6D1
:0205530000BCEA
:0205540000A203
:0205550000881C
:02055600006F34
:0205570000554D
:02055800003B66
:0205590000217F
:02055A00000897
:02055B0003EEAD
:02055C0003D4C6
:02055D0003BADF
:02055E0003A1F7
:02055F00038710
:02056000036D29
:02056100035342
:02056200033A5A
:02056300032073
:0205640003068C
:0205650002EDA5
:0205660002D3BE
:0205670002B9D7
:0205680002A0EF
:02056900028608
:02056A00026C21
:02056B00025339
:02056C00023952
:02056D00021F6B
:02056E00020683
:02056F0001EC9D
:0205700001D2B6
:0205710001B9CE
:02057200019FE7
:02057300018500
:02057400016C18
:02057500015231
:0205760001384A
:02057700011F62
:0205780001057B
:0205790000EC94
:02057A0000D2AD
:02057B0000B8C6
:02057C00009FDE
:02057D000085F7
:02057E00006C0F
:02057F00005228
:02058000003940
:02058100001F59
:02058200000572
:0205830003EC87
:0205840003D2A0
:0205850003B9B8
:02058600039FD1
:020587000386E9
:02058800036C02
:0205890003531A
:02058A00033933
:02058B0003204B
:02058C00030664
:02058D0002ED7D
:02058E0002D396
:02058F0002BAAE
:0205900002A0C7
:020591000287DF
:02059200026DF8
:02059300025410
:02059400023A29
:02059500022141
:0205960002075A
:0205970001EE73
:0205980001D58B
:0205990001BBA4
:02059A0001A2BC
:02059B000188D5
:02059C00016FED
:02059D00015506
:02059E00013C1E
:02059F00012336
:0205A00001094F
:0205A10000F068
:0205A20000D681
:0205A30000BD99
:0205A40000A4B1
:0205A500008ACA
:0205A6000071E2
:0205A7000058FA
:0205A800003E13
:0205A90000252B
:0205AA00000B44
:0205AB0003F259
:0205AC0003D971
:0205AD0003BF8A
:0205AE0003A6A2
:0205AF00038DBA
:0205B0000373D3
:0205B100035AEB
:0205B200034103
:0205B30003281B
:0205B400030E34
:0205B50002F54D
:0205B60002DC65
:0205B70002C27E
:0205B80002A996
:0205B9000290AE
:0205BA000277C6
:0205BB00025DDF
:0205BC000244F7
:0205BD00022B0F
:0205BE00021128
:0205BF0001F841
:0205C00001DF59
:0205C10001C671
:0205C20001AD89
:0205C3000193A2
:0205C400017ABA
:0205C5000161D2
:0205C6000148EA
:0205C700012E03
:0205C80001151B
:0205C90000FC34
:0205CA0000E34C
:0205CB0000CA64
:0205CC0000B07D
:0205CD00009795
:0205CE00007EAD
:0205CF000065C5
:0205D000004CDD
:0205D1000033F5
:0205D20000190E
:0205D300000026
:0205D40003E73B
:0205D50003CE53
:0205D60003B56B
:0205D700039C83
:0205D80003839B
:0205D900036AB3
:0205DA000350CC
:0205DB000337E4
:0205DC00031EFC
:0205DD00030514
:0205DE0002EC2D
:0205DF0002D345
:0205E00002BA5D
:0205E10002A175
:0205E20002888D
:0205E300026FA5
:0205E4000256BD
:0205E500023DD5
:0205E6000223EE
:0205E700020A06
:0205E80001F11F
:0205E90001D837
:0205EA0001BF4F
:0205EB0001A667
:0205EC00018D7F
:0205ED00017497
:0205EE00015BAF
:0205EF000142C7
:0205F0000129DF
:0205F1000110F7
:0205F20000F710
:0205F30000DE28
:0205F40000C540
:0205F50000AC58
:0205F600009370
:0205F700007A88
:0205F8000061A0
:0205F9000048B8
:0205FA00002FD0
:0205FB000016E8
:0205FC0003FDFD
:0205FD0003E514
:0205FE0003CC2C
:0205FF0003B344
:02060000039A5B
:02060100038173
:0206020003688B
:02060300034FA3
:020604000336BB
:02060500031DD3
:020606000304EB
:0206070002EB04
:0206080002D31B
:0206090002BA33
:02060A0002A14B
:02060B00028863
:02060C00026F7B
:02060D00025693
:02060E00023DAB
:02060F000224C3
:02061000020CDA
:0206110001F3F3
:0206120001DA0B
:0206130001C123
:0206140001A83B
:02061500018F53
:0206160001776A
:02061700015E82
:0206180001459A
:02061900012CB2
:02061A000113CA
:02061B0000FBE2
:02061C0000E2FA
:02061D0000C912
:02061E0000B02A
:02061F00009742
:02062000007F59
:02062100006671
:02062200004D89
:020623000034A1
:02062400001CB8
:020625000003D0
:0206260003EAE5
:0206270003D1FD
:0206280003B914
:0206290003A02C
:02062A00038744
:02062B00036E5C
:02062C00035673
:02062D00033D8B
:02062E000324A3
:02062F00030CBA
:0206300002F3D3
:0206310002DAEB
:0206320002C202
:0206330002A91A
:02063400029032
:02063500027849
:02063600025F61
:02063700024679
:02063800022E90
:020639000215A8
:02063A0001FCC1
:02063B0001E4D8
:02063C0001CBF0
:02063D0001B208
:02063E00019A1F
:02063F00018137
:0206400001684F
:02064100015066
:0206420001377E
:02064300011F95
:020644000106AD
:0206450000EDC6
:0206460000D5DD
:0206470000BCF5
:0206480000A40C
:02064900008B24
:02064A0000733B
:02064B00005A53
:02064C0000416B
:02064D00002982
:02064E0000109A
:02064F0003F8AE
:0206500003DFC6
:0206510003C7DD
:0206520003AEF5
:0206530003960C
:02065400037D24
:0206550003653B
:02065600034C53
:0206570003346A
:02065800031B82
:02065900030399
:02065A0002EAB2
:02065B0002D2C9
:02065C0002B9E1
:02065D0002A1F8
:02065E00028810
:02065F00027027
:0206600002573F
:02066100023F56
:0206620002266E
:02066300020E85
:0206640001F59E
:0206650001DDB5
:0206660001C4CD
:0206670001ACE4
:020668000194FB
:02066900017B13
:02066A0001632A
:02066B00014A42
:02066C00013259
:02066D00011971
:02066E00010188
:02066F0000E9A0
:0206700000D0B8
:0206710000B8CF
:0206720000A0E6
:020673000087FE
:02067400006F15
:0206750000562D
:02067600003E44
:0206770000265B
:02067800000D73
:0206790003F587
:02067A0003DD9E
:02067B0003C4B6
:02067C0003ACCD
:02067D000394E4
:02067E00037BFC
:02067F00036313
:02068000034B2A
:02068100033242
:02068200031A59
:02068300030270
:0206840002E989
:0206850002D1A0
:0206860002B9B7
:0206870002A1CE
:020688000288E6
:020689000270FD
:02068A00025814
:02068B00023F2C
:02068C00022743
:02068D00020F5A
:02068E0001F772
:02068F0001DE8A
:0206900001C6A1
:0206910001AEB8
:020692000196CF
:02069300017EE6
:020694000165FE
:02069500014D15
:0206960001352C
:02069700011D43
:0206980001045B
:0206990000EC73
:02069A0000D48A
:02069B0000BCA1
:02069C0000A4B8
:02069D00008BD0
:02069E000073E7
:02069F00005BFE
:0206A000004315
:0206A100002B2C
:0206A200001343
:0206A30003FA58
:0206A40003E26F
:0206A50003CA86
:0206A60003B29D
:0206A700039AB4
:0206A8000382CB
:0206A900036AE2
:0206AA000352F9
:0206AB00033911
:0206AC00032128
:0206AD0003093F
:0206AE0002F157
:0206AF0002D96E
:0206B00002C185
:0206B10002A99C
:0206B2000291B3
:0206B3000279CA
:0206B4000261E1
:0206B5000249F8
:0206B600023010
:0206B700021827
:0206B80002003E
:0206B90001E856
:0206BA0001D06D
:0206BB0001B884
:0206BC0001A09B
:0206BD000188B2
:0206BE000170C9
:0206BF000158E0
:0206C0000140F7
:0206C10001280E
:0206C200011025
:0206C30000F83D
:0206C40000E054
:0206C50000C86B
:0206C60000B082
:0206C700009899
:0206C8000080B0
:0206C9000068C7
:0206CA000050DE
:0206CB000038F5
:0206CC0000200C
:0206CD00000823
:0206CE0003F037
:0206CF0003D84E
:0206D00003C065
:0206D10003A87C
:0206D200039093
:0206D3000378AA
:0206D4000361C0
:0206D5000349D7
:0206D6000331EE
:0206D700031905
:0206D80003011C
:0206D90002E934
:0206DA0002D14B
:0206DB0002B962
:0206DC0002A179
:0206DD00028990
:0206DE000272A6
:0206DF00025ABD
:0206E0000242D4
:0206E100022AEB
:0206E200021202
:0206E30001FA1A
:0206E40001E231
:0206E50001CA48
:0206E60001B35E
:0206E700019B75
:0206E80001838C
:0206E900016BA3
:0206EA000153BA
:0206EB00013BD1
:0206EC000124E7
:0206ED00010CFE
:0206EE0000F416
:0206EF0000DC2D
:0206F00000C444
:0206F10000AD5A
:0206F200009571
:0206F300007D88
:0206F40000659F
:0206F500004DB6
:0206F6000036CC
:0206F700001EE3
:0206F8000006FA
:0206F90003EE0E
:0206FA0003D724
:0206FB0003BF3B
:0206FC0003A752
:0206FD00038F69
:0206FE0003787F
:0206FF00036096
:020700000348AC
:020701000330C3
:020702000319D9
:020703000301F0
:0207040002E908
:0207050002D21E
:0207060002BA35
:0207070002A24C
:02070800028A63
:02070900027379
:02070A00025B90
:02070B000243A7
:02070C00022CBD
:02070D000214D4
:02070E0001FCEC
:02070F0001E502
:0207100001CD19
:0207110001B530
:02071200019E46
:0207130001865D
:02071400016E74
:0207150001578A
:02071600013FA1
:020717000128B7
:020718000110CE
:0207190000F8E6
:02071A0000E1FC
:02071B0000C913
:02071C0000B12A
:02071D00009A40
:02071E00008257
:02071F00006B6D
:02072000005384
:02072100003C9A
:020722000024B1
:02072300000CC8
:0207240003F5DB
:0207250003DDF2
:0207260003C608
:0207270003AE1F
:02072800039735
:02072900037F4C
:02072A00036763
:02072B00035079
:02072C00033890
:02072D000321A6
:02072E000309BD
:02072F0002F2D4
:0207300002DAEB
:0207310002C301
:0207320002AB18
:0207330002942E
:02073400027C45
:0207350002655B
:02073600024D72
:02073700023688
:02073800021E9F
:020739000207B5
:02073A0001EFCD
:02073B0001D8E3
:02073C0001C0FA
:02073D0001A910
:02073E00019127
:02073F00017A3D
:02074000016353
:02074100014B6A
:02074200013480
:02074300011C97
:020744000105AD
:0207450000EDC5
:0207460000D6DB
:0207470000BFF1
:0207480000A708
:0207490000901E
:02074A00007835
:02074B0000614B
:02074C00004A61
:02074D00003278
:02074E00001B8E
:02074F000003A5
:0207500003ECB8
:0207510003D5CE
:0207520003BDE5
:0207530003A6FB
:02075400038F11
:02075500037728
:0207560003603E
:02075700034954
:0207580003316B
:02075900031A81
:02075A00030397
:02075B0002EBAF
:02075C0002D4C5
:02075D0002BDDB
:02075E0002A5F2
:02075F00028E08
:0207600002771E
:02076100025F35
:0207620002484B
:02076300023161
:02076400021978
:0207650002028E
:0207660001EBA5
:0207670001D4BB
:0207680001BCD2
:0207690001A5E8
:02076A00018EFE
:02076B00017714
:02076C00015F2B
:02076D00014841
:02076E00013157
:02076F00011A6D
:02077000010284
:0207710000EB9B
:0207720000D4B1
:0207730000BDC7
:0207740000A5DE
:02077500008EF4
:0207760000770A
:02077700006020
:02077800004936
:0207790000314D
:02077A00001A63
:02077B00000379
:02077C0003EC8C
:02077D0003D5A2
:02077E0003BDB9
:02077F0003A6CF
:02078000038FE5
:020781000378FB
:02078200036111
:02078300034A27
:0207840003323E
:02078500031B54
:0207860003046A
:0207870002ED81
:0207880002D697
:0207890002BFAD
:02078A0002A8C3
:02078B000291D9
:02078C000279F0
:02078D00026206
:02078E00024B1C
:02078F00023432
:02079000021D48
:0207910002065E
:0207920001EF75
:0207930001D88B
:0207940001C1A1
:0207950001AAB7
:020796000192CE
:02079700017BE4
:020798000164FA
:02079900014D10
:02079A00013626
:02079B00011F3C
:02079C00010852
:02079D0000F169
:02079E0000DA7F
:02079F0000C395
:0207A00000ACAB
:0207A1000095C1
:0207A200007ED7
:0207A3000067ED
:0207A400005003
:0207A500003919
:0207A60000222F
:0207A700000B45
:0207A80003F458
:0207A90003DD6E
:0207AA0003C684
:0207AB0003AF9A
:0207AC000398B0
:0207AD000381C6
:0207AE00036ADC
:0207AF000353F2
:0207B000033C08
:0207B10003251E
:0207B200030E34
:0207B30002F74B
:0207B40002E061
:0207B50002C977
:0207B60002B28D
:0207B700029BA3
:0207B8000284B9
:0207B900026ECE
:0207BA000257E4
:0207BB000240FA
:0207BC00022910
:0207BD00021226
:0207BE0001FB3D
:0207BF0001E453
:0207C00001CD69
:0207C10001B67F
:0207C200019F95
:0207C3000189AA
:0207C4000172C0
:0207C500015BD6
:0207C6000144EC
:0207C700012D02
:0207C800011618
:0207C90000FF2F
:0207CA0000E845
:0207CB0000D25A
:0207CC0000BB70
:0207CD0000A486
:0207CE00008D9C
:0207CF000076B2
:0207D000005FC8
:0207D1000049DD
:0207D2000032F3
:0207D300001B09
:0207D40000041F
:0207D50003ED32
:0207D60003D747
:0207D70003C05D
:0207D80003A973
:0207D900039289
:0207DA00037B9F
:0207DB000365B4
:0207DC00034ECA
:0207DD000337E0
:0207DE000320F6
:0207DF00030A0B
:0207E00002F322
:0207E10002DC38
:0207E20002C54E
:0207E30002AF63
:0207E400029879
:0207E50002818F
:0207E600026AA5
:0207E7000254BA
:0207E800023DD0
:0207E9000226E6
:0207EA00020FFC
:0207EB0001F912
:0207EC0001E228
:0207ED0001CB3E
:0207EE0001B553
:0207EF00019E69
:0207F00001877F
:0207F100017095
:0207F200015AAA
:0207F3000143C0
:0207F400012CD6
:0207F5000116EB
:0207F60000FF02
:0207F70000E818
:0207F80000D22D
:0207F90000BB43
:0207FA0000A459
:0207FB00008E6E
:0207FC00007784
:0207FD00006199
:0207FE00004AAF
:0207FF000033C5
:00000001ff
