:0B0000000000000000000000000035C0
:0B0001000017E0D6EEE74C0079E9693B
:0B0002007DD14A8000190F0176C5A6D1
:0B00030061C53281822A7814BD54C010
:0B0004000D56A050289DE20CF291E088
:0B0005005BFAD40110776A08C59690E2
:0B0006005F2B4A002B9BA5D0447960C3
:0B00070047FCE08127B3C402377F10E4
:0B00080071342181838E9603ACFA5CFA
:0B0009001913DD20F4C14B11BB0D20CA
:0B000A0073CC7401E40D4C1A16810049
:0B000B004DDB80830F3C7815147C4017
:0B000C0028304101C8A400192C26A0D8
:0B000D00759E5C003C3E000990E1E0A5
:0B000E0019B859030F3C780A2C297028
:0B000F003AED2A40923D8816269B40E7
:0B0010000017DED91256B40D97CF1078
:0B00110019BA41810096D209ADEC4005
:0B0012006D9848030C532C0B3C9F1012
:0B0013000017DEDA02C3880203DA5C8B
:0B0014006B8F6D81DCFB100B16E6907B
:0B00150005D048BA92832C144621E06D
:0B001600634302830F3C3C03CFD788FC
:0B00170049658301539D4C1A5B1A6081
:0B0018001CC4FD41DF1988040753C021
:0B001900169657630F3C781A28C1E0D0
:0B001A00012385FC565187947E17805F
:0B001B00114D08E1E3B14C0EC1B6909E
:0B001C003DD495430F3C780AEEE780CE
:0B001D00572A59802BAF87857331E014
:0B001E0016AFB720B57CB51A07E780CD
:0B001F006F697780F66A3C0F2DEF1030
:0B002000474B2E80B3865A0E876E20DF
:0B00210035B2DBC2B972D419E60A60E8
:0B0022004FFCFD01AEF61E0DC18690E4
:0B00230022E18BC2E0F298031820F0ED
:0B002400350CBD8172561E125F188063
:0B0025005410948280169808874B50FE
:0B0026002AC4818248D4D40A775D30E0
:0B0027000395598D933FC4166832E02A
:0B0028003D6E470218EE7804BFDC407C
:0B0029005536FB0256F9881A5B1A607E
:0B002A00558FA5800127A5B9701C4070
:0B002B006C747C030F3C781A5B1A60B9
:0B002C001A7137A004572D25701A58D8
:0B002D00426CF8030F3C7801E4600017
:0B002E000017DEDAADABE00CB144B00F
:0B002F0026998B82EEF1C4118832E0AC
:0B003000406130826AD6D41066900058
:0B00310076DCC4008DC21E19FAF1E05D
:0B0032001BC7FD60E9525A0233D96879
:0B0033007D579401CDAB10124D2A60E8
:0B00340037590E806E310F079615A89B
:0B003500357DC3415AD07808ED64B05F
:0B0036000000000000000000000000BF
:0B0037000000000000000000000000BE
:0B0038000000000000000000000000BD
:0B0039000000000000000000000000BC
:00000001FF
