:0B0000000000000000000000000055A0
:0B00010033FE14C06CD01E08E42BC0BE
:0B0002007C058F031694B41FDA234026
:0B00030028A27E0249565C144DFA60F2
:0B00040021E18982CCF0F8066943C0BE
:0B000500444BA00031EA0F02D0D69857
:0B0006007E7562013468B41C4C2100C0
:0B000700622FED00D445AD1F777100A3
:0B0008003E125E0278862406F0EAD06B
:0B0009007631440297DA180376352C9C
:0B000A004F65678262D93C19799EA007
:0B000B00196963C1CBADDA0882500018
:0B000C0000943695892F5A1CCABCC016
:0B000D0062F83C01995DEA1967008071
:0B000E006CF0B1038BE89806AD16986B
:0B000F0066B8800272582409D065A07A
:0B00100047890B83522A881A35E10053
:0B00110033196B4251BB081DC9508021
:0B001200629EDE003D781E040D6AD0E7
:0B0013000E7772D399AC3C193AA000A4
:0B0014006DCE4F03F1208814146440EF
:0B00150060E48B836E353C0DB2A3C08D
:0B001600286854C35759F8120DD7801A
:0B0017002AF025C0AB0D5A118FFDA090
:0B00180029A1A5C3409B981AEB09002A
:0B0019006157F4805F933C11CB326014
:0B001A00417B7103C0FA980F81288021
:0B001B00119EC002B5349810CEE80022
:0B001C003A1B1E0013F28796094BC030
:0B001D006FFABC006566CB98F3610031
:0B001E0043AE330367B73408870710B8
:0B001F000A8E78826981201DFA5C4087
:0B00200043CCEB81E2933413CC7F80D3
:0B0021006269C0019CFB96067C68F041
:0B0022000686FA593335F00192D4B481
:0B0023000E40E1E236836002212DA4B4
:0B0024004D2BF882B8FAB40D22EBC09F
:0B0025007D659300CCBA6204B731E0A7
:0B0026004EECBC020738A001CD77882B
:0B0027004478C4001F15800EDE3CB0C2
:0B00280058255100D657440A527BC0F7
:0B0029004E3B4581C9775A0C5CA78054
:0B002A003D186F00B31FF11E4F1000C7
:0B002B000F20000020E80782C310F047
:0B002C000BF661E0F431D308B674B0AD
:0B002D007F483C01D9B7F0077D5E2042
:0B002E0005F85A580839801B55444063
:0B002F0047493100FC24AD11C78100DF
:0B0030005F32CF02F738701DE69780AA
:0B003100749CE2011E04340B746DA0EF
:0B0032000308F4B5C4176A0D8B03C06F
:0B0033004CE67C03D820F001B99AD203
:0B0034007D854B83C0FF4C0DD5C5A09F
:0B0035005CBE73032CAA8014FA26A006
:0B00360005FD83C294542C09462B509A
:0B00370077C01A81F85E520EB778F017
:0B00380013BBAD23E56C4C01612BC431
:0B00390057257A82EAA1E00378F34C1F
:0B003A007BD044018295101534BF807C
:0B003B004701CD018C17341C2B16A0D0
:0B003C00424F510155D0EA05D0EAD038
:0B003D00315A8D414CB05A0C36CD30CA
:0B003E00526E6B80B5690F18FEBF000A
:0B003F00714069802F84A5CAC683C0F1
:0B00400062B756815E3C00112B22E0ED
:0B00410079371E02E2879012AEB080FB
:0B004200328898811815901800B260F9
:0B0043006EFFCF02767C4C18E8CBC0AB
:0B0044000EE23883D6FBE011CB93C026
:0B0045007F408B8397088819888AE0B1
:0B0046001C0CBC4185225A113F000039
:0B0047000250D879FC8BDA15AE452082
:0B00480005CA769B9116D40782E0F0F9
:0B00490023E66980F46E440424A0F05C
:0B004A005F9D478249D368128AE9E0FD
:0B004B0040D96D02D8200013EFFE200A
:0B004C002370310038FFAD5BA4108072
:0B004D0021CC45C118E4441E64716022
:0B004E0057183881053D0000FBD8006A
:0B004F000F4E25A075E8DA8F1201E0CB
:0B0050002C1C18824C7DA40CD37D30CA
:0B0051001AD6CB41D05F9619D3F6A061
:0B005200253F588392A3A40ACC81E054
:0B00530014EE3E20EC9E8817BA09E076
:0B0054002FF65683A99A980338BBC40E
:0B0055002BA165C1F474F802A684B46E
:0B00560000000000000000000000009F
:0B00570000000000000000000000009E
:0B00580000000000000000000000009D
:0B00590000000000000000000000009C
:0B005A0000000000000000000000009B
:0B005B0000000000000000000000009A
:0B005C00000000000000000000000099
:0B005D00000000000000000000000098
:0B005E00000000000000000000000097
:0B005F00000000000000000000000096
:0B006000000000000000000000000095
:0B006100000000000000000000000094
:0B006200000000000000000000000093
:0B006300000000000000000000000092
:00000001FF
