:0B000000000000000000000000004AAB
:0B00010046FEAB81EA523C05CFDD302B
:0B00020037BDA5C2990E201A5B25A097
:0B0003002A3D00020A8B9807CF678897
:0B0004005375BE00505BD304846C40B9
:0B00050038C7AF00AAB26908722000E3
:0B00060041F6B302CAB66813721C403A
:0B000700010D25A4639CE213D8AC405F
:0B00080023F2710336D82012B03C40F8
:0B00090012D39A628D00E00EB35B5032
:0B000A00594F240291F7B408B07A604F
:0B000B006879E200CC12881663F880D0
:0B000C00745BED0273B90005639B48B4
:0B000D0043C74B80ED86A60F2303C005
:0B000E005A084D02B39D4C013C3D2EF2
:0B000F005610710123B4B40812D5A0F4
:0B00100006A8D0F2E69AC414FE4E20B1
:0B00110057FA3C03A120B41A5AEC403F
:0B0012000E83B881477B5A18B6BC4033
:0B001300758F53020B873C1A5B1A60CC
:0B0014007DC531008C0D0F1174CB4036
:0B00150073E01302C3063C0C7F6D304B
:0B001600764A8780E4810F09C511E0E5
:0B001700249FA5C378E32C0321096897
:0B0018006B614001D11F1E0A7BE970E4
:0B0019001F9E5E20D791F1131BD0004A
:0B001A002286E201FB125A184EEF0094
:0B001B0038F6478007EAE1F41BBB4009
:0B001C000D522001C469A60AC32B503E
:0B001D0067566201AAA400027BE8788D
:0B001E006739B103D4285C09303C4076
:0B001F001B69E5A0D6F50006EBD5A894
:0B0020004CE0F103A55F4C052FE878D1
:0B00210009489C428142C401AFB3C4F7
:0B00220049E05E03B303E013B9C3C064
:0B00230026FA34C253DF5C00AF44B586
:0B0024003D1ECD42F023B4022AEB4C3D
:0B0025006F8C0401DA97001323678042
:0B002600345FCF0387465C1999BA6075
:0B0027006D41C780B9A73C02735788E9
:0B0028004EA5D101F414F014BD25A07A
:0B0029002FD260024C39780EEB1E2035
:0B002A007D680B83EFDE3C0E3522D01A
:0B002B0053B445834F225C0D23278057
:0B002C005EC20B80589B788B7DEE209D
:0B002D0060E9C5812B9DC40F79F4B081
:0B002E0014AC14C1A9F56A0381F78827
:0B002F003A545103012A1009E520009B
:0B0030007256C402FB16681A5B22E047
:0B003100445B2200CF63691739DE201A
:0B0032003D57B101A32B1E1A5BCC4010
:0B0033000AEF4D33C458D4123FCD201B
:0B0034001BC6AB42F2833C1A5952E09D
:0B00350033DCB4C189F24C13417000B1
:0B00360055CBA0003AA34B529E700077
:0B0037003167B8816BCAC4025C03C4CF
:0B0038000AF26F10E425880D7335A05C
:0B0039000EA46F102E4EF11A5B13C0D6
:0B003A0055B7C782B01DA41A493E2034
:0B003B00281492C0CD835A1A5B1A6093
:0B003C00230852C045042D0084DC3C6A
:0B003D0018E86D23E729C418D9C4C0DF
:0B003E004B24F481F5CD780D42C78003
:0B003F0018F1CD22CFD91007A160F00E
:0B00400073C8A20350F5C413549000D5
:0B0041005CCD240182574C1A5B2F009D
:0B00420020628F039CA83C0B3019705B
:0B00430026E100015487D20CAB969020
:0B0044005F1A9E02A8044C11E25F004E
:0B0045006E637C035D13A402E4887866
:0B0046000B4B9A60D94CB5008FD878A6
:0B00470000FB81E33A8B880BFBE4B068
:0B00480013E145A1B3DC1E121DFE20D9
:0B004900203D278037993C4CBA23C0B3
:0B004A0006C25E223D7CD41A5B32E04F
:0B004B000000000000000000000000AA
:0B004C000000000000000000000000A9
:0B004D000000000000000000000000A8
:0B004E000000000000000000000000A7
:0B004F000000000000000000000000A6
:0B0050000000000000000000000000A5
:0B0051000000000000000000000000A4
:0B0052000000000000000000000000A3
:0B0053000000000000000000000000A2
:0B0054000000000000000000000000A1
:0B0055000000000000000000000000A0
:0B00560000000000000000000000009F
:0B00570000000000000000000000009E
:0B00580000000000000000000000009D
:0B00590000000000000000000000009C
:0B005A0000000000000000000000009B
:0B005B0000000000000000000000009A
:0B005C00000000000000000000000099
:0B005D00000000000000000000000098
:0B005E00000000000000000000000097
:0B005F00000000000000000000000096
:0B006000000000000000000000000095
:0B006100000000000000000000000094
:0B006200000000000000000000000093
:0B006300000000000000000000000092
:00000001FF
