:0B0000000000000000000000000045B0
:0B000100130A7C43D862A01319EF0023
:0B00020061E2BC01D88DB8164D6E20E5
:0B000300177A3C40002146EDC6A5A086
:0B00040021CABC40A92D9C1A5B27807C
:0B0005003C19A5C0C9F682165C96A04D
:0B00060029E5F8837727DC1A5B3E2019
:0B00070061F9C0030420900404D5A898
:0B0008000C831692EB62E010458D2087
:0B000900084E4781B824B4106B1B4068
:0B000A000502C0024B57D004710C40EF
:0B000B0061FA8002C688B0123E596006
:0B000C002CC0CB435B10FC12E99A6093
:0B000D002DDD8B40002D16A10050F0EF
:0B000E0015AD000165BB8416A783C080
:0B000F000A93ED315F10AE03F4BB4C10
:0B0010000525696B28A9E401770C3C72
:0B001100574AE58176323408C1B0F098
:0B0012002A61BC42C3351007649788C8
:0B001300435BB103865DA407EA8B4845
:0B00140045600402DA31341484F5A0CA
:0B0015001B5447822747880BBA0B5092
:0B00160030615680F02DF80911A97030
:0B00170042F6E580E6BBAC030BE96895
:0B0018004802CB829A3CA006F681E073
:0B0019004D9053015EEE521A5B41E077
:0B001A0052510F020866440FC842D08C
:0B001B00265178818127DA107014C094
:0B001C00224E4780DD8FCA01B12F107B
:0B001D0011B10B4305075017A53E2052
:0B001E000C08ED3228D9041A5B36A054
:0B001F002F791A427094741A5B1A606B
:0B00200061F9CF00002D65A14A9D2E64
:0B00210020BA1E0000282774FF2C40AE
:0B00220061FAA582FF1E501A5B1C4013
:0B0023002D9A9E0093847F0FFC0C4080
:0B00240046B3D303D597A000DAD5A6A1
:0B0025005E9BCF03B4889C152B7780F6
:0B0026004800E58378DFF81A25A1E010
:0B0027004405F8813453DE0FD56B5008
:0B00280061FB7880CC85CE173DF10015
:0B0029000A308B530AB8E008D4300006
:0B002A0046B85A838A75A80F65BF1006
:0B002B002A0E47838ED30C02FB2E2010
:0B002C003A62E981D51D420AC51E2082
:0B002D003FDB74C2E64C00001D92D2C5
:0B002E0032DDD2C292D1680F03A5A002
:0B002F003741B4C0002C78DA4D41E0EE
:0B003000464EB481DA3D0E026F2878C6
:0B0031004D695A8099E38E0A8AF000A6
:0B00320045C40F00002D2E700446A0F6
:0B0033001E63B4C246255C144C600044
:0B003400136943C061907E86F72788A7
:0B0035005218C780002444B6E2D6A099
:0B0036004D4FC4024FDCA41A5B2D20CC
:0B00370031CE4F00002DC46A1EA780D0
:0B003800145BE9613155140AEEAF10B3
:0B0039000D278B50B9049411DB34C07C
:0B003A001EDE00029CE1A0008A15A65B
:0B003B0022071E03776EA80BEECB50CF
:0B003C0026163101B76E8A054930001E
:0B003D003AE243C1F85850147C510017
:0B003E00079152D040AB81189C84C099
:0B003F0061FADA8287D7200ABB9880A4
:0B00400047959E00004E9CC4EB43C09F
:0B00410061FB04013C28481091CB40FB
:0B00420061F81A80EA4C8D0311F3C432
:0B00430061F9930373AEA40C4604B0F7
:0B00440061DFE58000648A2D4EE5A01E
:0B0045002FB62D417ED7381A5B6100FA
:0B0046000000000000000000000000AF
:0B0047000000000000000000000000AE
:0B0048000000000000000000000000AD
:0B0049000000000000000000000000AC
:0B004A000000000000000000000000AB
:0B004B000000000000000000000000AA
:0B004C000000000000000000000000A9
:0B004D000000000000000000000000A8
:0B004E000000000000000000000000A7
:0B004F000000000000000000000000A6
:0B0050000000000000000000000000A5
:0B0051000000000000000000000000A4
:0B0052000000000000000000000000A3
:0B0053000000000000000000000000A2
:0B0054000000000000000000000000A1
:0B0055000000000000000000000000A0
:0B00560000000000000000000000009F
:0B00570000000000000000000000009E
:0B00580000000000000000000000009D
:0B00590000000000000000000000009C
:0B005A0000000000000000000000009B
:0B005B0000000000000000000000009A
:0B005C00000000000000000000000099
:0B005D00000000000000000000000098
:0B005E00000000000000000000000097
:0B005F00000000000000000000000096
:0B006000000000000000000000000095
:0B006100000000000000000000000094
:0B006200000000000000000000000093
:0B006300000000000000000000000092
:00000001FF
