:0B0000000000000000000000000042B3
:0B000100001E9A5A84B63C0C2544B047
:0B000200330DC782A67BC40178FDA669
:0B0003004FE8E20079CF4B994291E0FA
:0B00040031F5A202BC3A2008F74E9034
:0B00050061F9C783A42AB404FE25A8FB
:0B00060061F96D00ACB2D310DD334097
:0B000700385C0B430041881B6885A09B
:0B0008002B0A25C02E1D8792647F008C
:0B000900444A69812C6E3C0C35F970F4
:0B000A003B685E01C1A0B4004B22D394
:0B000B0047BC8B83F852D40F195ED065
:0B000C004DBBBC035AF47816ECA4C0F6
:0B000D002EA522038D22200C9FEE6028
:0B000E004D4D40026D912C183549202B
:0B000F001C999A6079741E0675004071
:0B00100061F722012253E21C95B6208C
:0B0011002FA143C0C0650F195AC62084
:0B0012004ED27482BE5B2C044A7D6855
:0B00130061F9220188C47814F8F34062
:0B001400050A74B9504B8814D29560A7
:0B00150061F9C00105160009DC0D7048
:0B00160061F9B882130E5C1CE69780B5
:0B0017000FC4CF13F62FA413022D60BE
:0B00180049B0DE0300B8780F7BA2D0D7
:0B001900162E5A63447B1006E7D658F1
:0B001A00322B8F037D4FC4141605002D
:0B001B000A109690ECD9C40D664B5003
:0B001C0061F9C001DEB6F00D1732D014
:0B001D00017AB0F15223881C4C8700D0
:0B001E002FEFD68248C27816FE592052
:0B001F0004598F124553881AF672A096
:0B002000184D21E2407DE008322BC0AB
:0B00210048AA9A810DB00013991F40FF
:0B00220061F72D02066E5C05287FC010
:0B0023000F8503C06E716994B2B80035
:0B00240014EF6D209A87881CA2488012
:0B0025001550E5A1CB2D100FC89BC0AB
:0B0026001322696159D43C0511907849
:0B0027004E4C8002AE6A201FE35260C6
:0B0028001C2FD6A20C79C4008D36D32B
:0B00290028213100DECAF10D533840E1
:0B002A0045850000CC801E1FD67960C9
:0B002B0061F9F103C348D41267000024
:0B002C0061F9C00027CB2D40AF2DE292
:0B002D0061F9BC03485EB41C780A6057
:0B002E0003C4A5A680AC780310D9A481
:0B002F002F4E5E02447CD40F778C0043
:0B003000485C80021C9B4C09A22D3094
:0B0031002D897101761A5A136385A017
:0B00320014127C432A80D40E5FACB097
:0B0033001AB996A2EC94D415751CC0FD
:0B0034002A2B4780FDE81E0122E6D2C7
:0B00350061F9C002D995680A8155707E
:0B0036001B523C419EB588194243401C
:0B003700482100037BF80008A5DDA0B5
:0B00380005E60F136B4388192FE380CF
:0B0039002ECA3C41A0552E0861169015
:0B003A003A1334C1983DC41B7297803C
:0B003B004A5C3C01F67C5A11B440C046
:0B003C003CDE1A402059C3CBFDCE2053
:0B003D001FD943C27988201D9079E094
:0B003E00545622003DAEF1075CC800E4
:0B003F00131CFC4005D30F0D877C0054
:0B0040004C2C34813C600004F601E011
:0B004100380478802B5B2D44412130F7
:0B00420061F9C002A1165C12C8E220A8
:0B0043000000000000000000000000B2
:0B0044000000000000000000000000B1
:0B0045000000000000000000000000B0
:0B0046000000000000000000000000AF
:00000001FF
